:020000041008E2
:4000000000780408F90208100D00000061030810610308106103081061030810000000000000000000000000000000005D0308105D030810000000005D0308105D0308104C
:400040005D0308105D0308105D0308105D0308105D0308105D0308105D0308105D0308105D0308105D0308105D0308105D0308105D0308105D0308105D0308105D03081000
:400080005D0308105D0308105D0308105D0308105D0308105D0308105D0308105D0308105D0308105D0308105D0308105D0308105D0308105D0308105D0308105D030810C0
:4000C0005D0308105D0308105D0308105D0308105D0308105D0308105D0308105D0308105D0308105D0308105D0308105D0308105D0308105D0308105D0308105D03081080
:400100005D0308105D0308105D0308105D0308105D0308105D0308105D0308105D0308105D0308105D0308105D0308105D0308105D0308105D0308105D0308105D0308103F
:400140005D0308105D0308105D0308105D0308105D0308105D0308105D0308105D0308105D0308105D0308105D0308105D0308105D0308105D0308105D0308105D030810FF
:400180005D0308105D0308105D0308105D0308105D0308105D0308105D0308105D0308105D0308105D0308105D0308105D0308105D0308105D0308105D0308105D030810BF
:4001C0005D0308105D0308105D0308105D0308105D0308105D0308105D0308105D0308105D0308105D0308105D0308105D0308105D0308105D0308105D0308105D0308107F
:400200005D0308105D0308105D0308105D0308105D0308105D0308105D0308105D0308105D0308105D0308105D0308105D0308105D0308105D0308105D0308105D0308103E
:400240005D0308105D0308105D0308105D0308105D0308105D0308105D0308105D0308105D0308105D0308105D0308105D0308105D0308105D0308105D0308105D030810FE
:400280005D0308105D0308105D03081010B5054C237833B9044B13B10448AFF300800123237010BDEC4702080000000018120810084B10B51BB108490848AFF300800848BE
:4002C000036803B910BD074B002BFBD0BDE81040184700BF00000000F047020818120810B8420208000000007047EFF3108072B6704780F310887047FFF7F6FF72B6114CEE
:40030000114DAC4209DA21686268A368043BA2BFC858D050FAE70C34F3E70C490C4A00209142BCBF41F8040BFAE70A480A490860BFF34F8F00F020F900F0FAF800F01EF885
:40034000FEE700001C12081034120810EC470208D84902080040020808ED00E0FEE7FEE700B504207146084202D0EFF3098001E0EFF30880043000F01FFDFEE708B562B647
:40038000044C054A0021204600F07AFD0123A3602361FEE70000384070100810704700BF5C4AD2F8803303F00F0303F1D00152F8212002F00702032A04D0042A05D092B9D8
:4003C000554914E0554A116811E003F1C002514951F8222002F01F02112A06D0132A04D04FF4FA4103E04E4901E04FF400418BBB484BD3F8902502F00100D3F88825C2F37C
:400400000172D3F8883513F0405F07D0414BD3F88835C3F30173012B02D102E0012300E0002303B108B9032A46D13A48D0F88025C2F31103D0F88425C2F30C02D0F8800510
:40044000C0F300600130B1FBF2F202FB03F2B2FBF0F131E0012B2FD12E4BD3F8402602F00100D3F80026C2F30172D3F8003613F0405F07D0274BD3F80036C3F30173012BF2
:4004800002D102E0012300E0002303B108B9032A12D12048D0F8002602F07F02D0F80036C3F30423D0F80006C0F3044002FB01F2B2FBF3F2B2FBF0F1164BD3F88033C3F3CD
:4004C000011321FA03F215494A601648D0F89030C3F3072301330069000E0130B2FBF0F08860B2FBF3F3CB600B6103F5742202F23F220D48A0FB0202C2F387420A7503F2C6
:40050000E7330A4AA2FB03239B098B61DB03CB61704700BF0000264000127A008C42020800366E010000214083DE1B43D34D621008B5104BD3F8802122F0404242F080424D
:40054000C3F88021D3F8802142F00042C3F88021D3F8802122F00102C3F88021FFF71EFFFFF71EFF00F022F800F028F800F0B0F808BD00BF0000264008B5FFF7B6FE074A8C
:40058000D2F8883043F47003C2F88830BFF34F8FBFF36F8FFFF7ADFE08BD00BF00ED00E008B5012000F078FB08BD00BF08B500221146042000F0FEF808BD00BF10B50648CF
:4005C00000F0B4F900F055FC0446044800F01AFA204600F052FC10BD084802083C1008101F4B98422DD00CD840282ED003D8E8B1102828D02FE0802829D0B0F5807F28D0D9
:4006000029E0184B984228D006D8B0F1204F0DD0154B984212D01EE0144B98420AD00133984209D0023B984215D101E0002070470F4870470F4870470F4870474FF4A000DB
:400640007047074870470D4870470D4870470D487047034870470C4870474FF4A400704706005200010000F0090000A0040000F001005200020052000300520001005000BB
:400680000200500005005200FF00520008B50C4B1B69002B12DB0B4B1868FFF7A1FF0122094BC3F88C24084BD3F80C34002BFAD1054BD3F88C34002BF5D108BD034808BD4D
:4006C0002000234088490208000025400200500000B583B05523ADF80030002301930C49684600F019FBBDF90030002B08DB590903F01F03012202FA03F3064A42F8213097
:4007000002220549012000F03FFA03B05DF804FB3943020800E100E00D43020838B50369002B0DDA0D4604460B0C1B0423B140F2B321044800F030FBA9B26160002038BDA5
:40074000014838BDD410081001008A0038B50368002B01DA002300E0094B73B90D460446C2600B0C1B0423B140F29A21054800F013FBA9B2A160002038BD014838BD00BF64
:4007800001008A00D410081038B504460D4619B99921064800F000FB2369002B03DAE3682B60002038BD024838BD00BF1411081001008A000F2840D8F8B515460E46044629
:4007C00082B979B90F2804D940F2A911214800F0E3FA600100F1804000F50C101E4B18600020F8BD5DB366B316F01F0F2BD10F2C04D940F2A911174800F0CEFA640104F1AF
:40080000804404F50C14144F3C607E60BD60F2080021284600F0EAFB00212046FFF77EFF3A4652F8040B0021FFF790FF68B900213868FFF773FF50B9F8BD084870470748AC
:40084000F8BD0648F8BD0548F8BD0548F8BD0448F8BD00BF541108109849020803018A0001018A002DE9F0411B4B1B68DC68236883422CD90D464609A0EB4610012303FA0D
:4008800000F819B900F0F5FA074600E00027124B18680368002B01DA002300E00F4B83B9626852F8263018EA030F05D023EA080342F82630002400E0094C0021FFF72EFFBC
:4008C00000E0084C25B9384600F0D7FA00E0064C2046BDE8F08100BF9849020801008A00020188000301880004018A000B4B1B68DB681A6882420CD94109A0EB411001228E
:4009000002FA00F05B6853F82130184203D004487047044870470448704700BF984902080101880004018A0000018800024B1B680BB9014B18607047A44902082DE9F84393
:400940000446884691461E46089F2A4B1B681BB9B421294800F020FA072C03D9B521264800F01AFA234B1B682C2000FB04F01C18F5B21D50C6F307236360360CA6600F2D6C
:4009800004D940F2A9111D4800F006FA6D0105F1804505F50C15256165680F2D04D94FF4E271164800F0F8F9154B03EB45156561A668330C1B0423B14FF4F1710F4800F0FA
:4009C000EBF9330C1B0423B140F2E3110B4800F0E3F9B3B243EA0646AE60C4F81C90C4F820800023A36117B1B7F90030A381BDE8F88300BFA44902089411081054110810E9
:400A000000102340F0B58FB0044618B950212C4800F0C2F9A369072B03D95421284800F0BBF9E36A1BB95621254800F0B5F9E368072B03D95721224800F0AEF9236A072BDD
:400A400003D958211E4800F0A7F9236B1BB959211B4800F0A1F907AE04F114050FCD0FC62F6802AD26460FCE0FC533682B60079B1933ADF83030089B0D93A26AE16A0CAD1F
:400A800000953B460A98FFF759FF00210091069B0A460598FFF752FF216B284600F03CF9BDF93030002B08DB590903F01F03012202FA03F3034A42F821300FB0F0BD00BFD7
:400AC0009411081000E100E0F8B506460F461D4614461AB9FD21264800F05EF9254B1B681BB9FE21224800F057F9072E03D9FF211F4800F051F9072F04D94FF480711C48BA
:400B000000F04AF91B4B1B682C2101FB063001FB07314B68012202FA03F31B04466802FA06F60269EAB18F69EFB91268002A01DA002200E0104AC2B922881343236003696E
:400B4000DC6001238B614D620469330C1B0423B140F29A21094800F01FF9B2B2A2600020F8BD0748F8BD0748F8BD0648F8BD00BF94110810A449020801008A0054110810D4
:400B800004028A0007028A00F8B505460F461646124B1B6823B940F26111114800F0FCF8072D04D94FF4B1710D4800F0F5F80B4B1B682C2404FB0534236A23B94FF4B371F3
:400BC000074800F0E9F8E369B34204D9236A43F826700020F8BD0348F8BD00BFA4490208941108100A028A0070B582B000230193044620B94FF4EA71264800F0CDF82369FD
:400C000023B940F2D511234800F0C6F8636923B94FF4EB711F4800F0BFF8236A23B940F2D7111C4800F0B8F86369DD682A0C1CD012041A601B6820690369002B15DA01A9CC
:400C4000FFF7A2FD60B9019803681E0CDBB2E269934206D2226A52F8233013B1984700E0002631462069FFF759FDADB275B16369ADB21D601B68636A1BB1984700236362E5
:400C800002E0A36A03B198470023A36163691B6802B070BD9411081010B504460B4B1B6823B94FF4DA710A4800F076F8072C04D940F2B511064800F06FF8044B1B682C20D3
:400CC00000FB0430FFF790FF10BD00BFA44902089411081038B50C4B9A680C4B9A420ED10D46044619B9FC21094800F055F804F11003064A52F8230042F8235038BD1030E7
:400D0000044B53F8200038BD00ED00E000400208D41108100000081070B338B504460D464368072B03D93621154800F035F8B4F900306268002B08DB5201D2B203F160437E
:400D400003F5614383F8002305E003F00F035201D2B20C49CA540C4B9A680C4B9A420DD11DB94521064800F017F82946B4F90000FFF7B0FF002038BD05487047002038BD23
:400D8000D411081014ED00E000ED00E0004002080100560001BEFEE738B50D46044C18220146204600F02AF9A5610020FFF7F2FF58470208FEE700BF08B50268254BDA618D
:400DC00042681A6282685A62C2689A620269DA6242691A6382695A63C2699A631E4A916AD963D16A1964516A5964516B9964926BDA64F1EE103A13F0900F27D0026A154B11
:400E00001A65426A5A65826A9A65C26ADA65026B1A66426B5A66826B9A66C26BDA66026C1A67426C5A67826C9A67C26CDA67026DC3F88020426DC3F88420826DC3F88820D8
:400E4000C26DC3F88C20026EC3F89020FFF7B2FF08BD00BF5847020800ED00E0000000000230800803D001300238FCD100BF00BF7047EFF3108072B6704780F31088704753
:400E8000002800F0AC8070B40446002A00F0A98092F828300BB1012500E00025137F0BB1022300E000231D431669B60406F4802645EA060395682D0405F440351D43166813
:400EC000300600F0E0602843136B556B43EA45031B0503F440130343906B43EA8000052E03D1D3681B029BB202E053681B029BB20343081D800123501368062B08D104EB90
:400F000081130120C3F808013F20C3F828011DE0936843B904EB81130020C3F808013120C3F8280112E0012B08D1506904EB8113C3F808011C20C3F8280107E004EB8113E4
:400F40000120C3F808011220C3F82801106A04EB8113C3F80C01506AC3F810015069C3F814019069C3F81801136EB3F1FF3F17D0106C00F00F00966C360206F47066304393
:400F8000156D2D0405F470250543906D000380B228431B01DBB2034304EB8110C0F82031D36B03F00303566C360106F030063343D56C2D0205F440752B43506D8001C0B285
:400FC0001843D36D9B0003F00C03034304EB8114C4F82431D36AC4F83831002002E002487047014870BC70470100B60002440346934202D003F8011BFAE7704710B50346A3
:4010000042B111F8014B03F8014B013A002CF7D11A4400E010BD934202D003F8014BFAE710BD0000F8B500BFF8BC08BC9E467047F8B500BFF8BC08BC9E467047030000004A
:401040000100000001000000000000000503600004000000010000000000000001000000060460000800000068490208A10508100400000000000000000000000000000011
:40108000000000009001000000800000000000005001000000400000000000000000000000000000000000000200000003000000FFFFFFFF03000000FFFFFFFF030000008B
:4010C000FFFFFFFF03000000FFFFFFFF03000000FFFFFFFF47656E6572617465645F536F757263655C50536F43365C70646C5C647269766572735C7065726970686572619D
:401100006C5C6970635C63795F6970635F6472762E68000047656E6572617465645F536F757263655C50536F43365C70646C5C647269766572735C7065726970686572613E
:401140006C5C6970635C63795F6970635F6472762E63000047656E6572617465645F536F757263655C50536F43365C70646C5C647269766572732F70657269706865726130
:401180006C2F6970632F63795F6970635F6472762E68000047656E6572617465645F536F757263655C50536F43365C70646C5C647269766572735C70657269706865726118
:4011C0006C5C6970635C63795F6970635F706970652E630047656E6572617465645F536F757263655C50536F43365C70646C5C647269766572735C70657269706865726121
:401200006C5C737973696E745C63795F737973696E742E63000000000000000000000810004002088C0200003C1208108C420208CC040000EC470208EC0100000048E80111
:4012400000127A0000093D0000127A0000127A0008000000401F00000000A00F02FF0000B10208108D0208100000000080B2C200E8B10F4B1B68002BFBDA3E210D4B196061
:4012800041F61E7104331960A3F584730621C3F8181522F07F42C3F81C25D3F81C350022034B5A60044BD3F81C35002BFADA7047E0002340040126400000264008B5437858
:4012C000FF2B0ED100F0E8F9064BDB685A68136843F001031360136813F0010FFBD100F0F3F908BD8000234038B54FF260034B4AD3589CB200F0D0F90546494B9A68631E01
:40130000032B00F28780DFE803F002234465032A06D10822434B9A60414B9B68032BFBD03F4A13691069C0F307221B0E581C02FB00003D4B03FB00F03C4B1B683C4AA2FB29
:4013400003239B09B0FBF3F08230FFF78FFF61E0032A06D10822334B9A60314B9B68032BFBD02F4A13691069C0F307221B0E581C02FB00002C4B03FB00F02C4B1B682C4AC7
:40138000A2FB03239B09B0FBF3F08230FFF76EFF40E0032A06D10822224B9A60204B9B68032BFBD01E4A13691069C0F307221B0E581C02FB00001C4B03FB00F01B4B1B68F6
:4013C0001B4AA2FB03239B09B0FBF3F08230FFF74DFF1FE0032A06D10822124B9A60104B9B68032BFBD00E4A13691069C0F307221B0E581C02FB00000B4B03FB00F00B4B67
:401400001B680B4AA2FB03239B09B0FBF3F08230FFF72CFF284600F057F938BD0000254000002140A000234040420F0090420208D34D6210F8B505460E462A4B1B69002B31
:401440001FDB002000F050F9274B98421BD00023264A0121184600F03FF918B1244C15E0013400E00024002000F03EF91E4B984202D0204B9C42F3D91E4B9C4205D91C4C42
:4014800004E01B4C02E01A4C00E000243CBB00F003F90746184BD3F81C35002B11DA174A0121174800F000F968B93046FFF7DEFE5DB1134B1B69002BFBDB00F01DF904465B
:4014C00004E00B4C02E00A4C00E00E4C0121002000F0F2F80028F9D1384600F0F5F82046F8BD00BFA000234001018800AC42020805005200EF4902000000264088490208A5
:401500002000234001005000394B1B68002BFBDA30B4374BDA6842F00102DA60DB6813F0020F20D0324DEB689CB232490A69120A120402F47F02D1F890301B0A42EA03637B
:401540002343EB600B6923F47F4343F410630B61D1F8903023F47F4343F41063C1F890300B69D1F89030224B00225A605B68224A136943F004031361012801D030BF07E063
:4015800020BF1E4B1B7803B120BF01221B4B1A70184BD3F8803003F00303022BE7D0144B1B68002BFBDA124BDB6813F0020F15D010490B6923F47F420D48C3681B0C1B020B
:4015C00003F47F4313430B61D1F8903023F47F42C3681B0E42EA0323C1F89030044BDA6822F00102DA6000225A6030BC704700BFE00023400000214000ED00E0A849020866
:401600001E4A136943F004031361012801D030BF07E020BF1A4B1B7803B120BF0122184B1A70184BD3F8803003F00303022BE7D0154B1B68002BFBDA144BD3F80C31C3B94D
:4016400041F61E72124B1A60062203F582631A603E22A3F214431A60442203F583631A600C4B1B68002BFBDA4FF0AA32074BC3F80C210022044B5A60704700BF00ED00E02C
:40168000A849020800002140E000234000002540080126401C05264001B40248844601BC604700BF730E081001B40248844601BC604700BF4D07081001B40248844601BCCD
:4016C000604700BF6508081001B40248844601BC604700BF7B0E081001B40248844601BC604700BFC90A081001B40248844601BC604700BFED08081001B40248844601BC1C
:40170000604700BF8D060810000000000000000000000000000000000000000000000000000000000000000000000000000000000000000000000000000000000000000098
:401740000000000000000000000000000000000000000000000000000000000000000000000000000000000000000000000000000000000000000000000000000000000069
:401780000000000000000000000000000000000000000000000000000000000000000000000000000000000000000000000000000000000000000000000000000000000029
:4017C00000000000000000000000000000000000000000000000000000000000000000000000000000000000000000000000000000000000000000000000000000000000E9
:0200000490303A
:02000000B6FB4D
:0200000490501A
:0C0000000005E20721002101E20ED7FB01
:00000001FF