:020000041000EA
:4000000000400208310100100D000000950100100000000000000000000000000000000000000000000000000000000091010010000000000000000091010010910100109B
:400040009101001091010010910100109101001091010010910100109101001091010010910100109101001091010010910100109101001091010010910100109101001060
:400080009101001091010010910100109101001091010010910100109101001091010010910100109101001091010010910100109101001091010010910100109101001020
:4000C00010B5064C2378002B07D1054B002B02D0044800E000BF0123237010BD740400080000000078280010084B10B5002B03D00749084800E000BF07480368002B00D154
:4001000010BD064B002BFBD09847F9E7000000007804000878280010EC000008000000007047EFF3108072B6704780F310887047FFF7F6FF72B6104C104DAC4209DA2168D4
:400140006268A368043B02DBC858D050FAE70C34F3E70B490B4A0020521A02DD043A8850FCDC094809490860BFF34F8F00F000F900F01EF8FEE700007C2800109428001062
:4001800074040008400600080000000808ED00E0FEE7FEE700B504207146084202D0EFF3098001E0EFF30880043001F0CBF9FEE710B562B6014800F04FF9FEE7000008103F
:4001C00070B56249E0239B00CB580F2213401A00D0329200525807210A40032A05D0042A06D0002A12D15A4814E05A4A106811E01A00C0329200554952581F210A40112ABF
:4002000006D0132A04D0FA20C00103E0524801E080200002002B36D14C4BB222D2009A5801211140B125ED005A59120F032422405B591B0F1C4207D0444C63591B0F032458
:400240002340012B02D102E0012300E00023002B01D0002901D1032A4BD13C4BB022D2009D58AD03AD0B3D495958C904C90C9C58240E01231C40013401F026FB68432100B9
:4002800001F022FB35E0012B33D1304BC822D2009A5801251540C024E4001A59120F03210A401B591B0F194207D028490B591B0F03210B40012B02D102E0012300E0002337
:4002C000002B01D0002D01D1032A12D11F4DC022D200AB587F210B40A958090A1F263140AC58240C3440584301F0EEFA210001F0EBFAE0239B00154AD3581B090322134044
:40030000D840144C6060164B1D692D0AFC32154001351969090E013101F0D6FAA060290001F0D2FA0500E06020610E4BC0180E4901F0CAFA20750D4BE818FA21890001F0B7
:40034000C3FAA061C003E06170BDC0460000264000127A00C000000800366E0184050000000021403F420F0040420F00E703000010B5234BB021C9005A58520052085A505F
:40038000E02080001A583024A2431A50802252045A501C491C4A9950A021890104329950FF211A4A995081315A58920092088020C00502435A505A588020000602435A5050
:4003C0005A58012082435A5000F082F9FFF7F8FE00F06EF800F076F800F0B2FAB0235B055B78002B04D0B0235B055B78DBB200E02123212B03D1064B0022DA605A6010BD04
:400400000000264001000200840500008C050000E00023408023024AD3580320184070470000214010B5FFF77CFE084980228C58074B2340074C23438B508823034AD358D1
:40044000DB06FAD5FFF771FE10BDC04600002140FCFF00000100FA0570B50500FFF761FE0400FFF7D7FF032801D1FFF7DBFF0A4AB0239B00D55080215058084B0340084806
:40048000034353508823044AD358DB06FAD52000FFF74BFE70BDC04600002140FCFF00000300FA0510B5002000F092FD10BDC04610B5034A8021042000F0F6FA10BDC046CE
:4004C0009004000810B50748103000F0ADFB01F0A4F80400044800F019FC200001F0A1F810BDC04690040008401A0010FEE7C046F0B50025002711E0BB00C658F3B2FF22A3
:40050000964308E06A008A181478A419527822700135013BDBB2002BF4D10137002FEBD0F0BDC04630B587B0514BA021C9005A58032082435A504F4990240A594E48024078
:400540000A510A691202120A8024640422430A610A6910400861E022920099580F20814399509958213081439950995880200006014399500021012000F05CFD0021022093
:4005800000F058FD0021032000F054FD0021042000F050FD0021002000F04CFD01A8374903000A0032CA32C312CA12C300F06AFD002802D00420FFF799FF2D49304A8B58C7
:4005C0008020000603438B502E4800F013FE002802D00420FFF78AFF254C2B4BE1582B4A0A40E250E1582A4A0A40E250E25880252D062A43E250043BE158264A0A40E250D1
:40060000E158254A0A40802189010A43E250E258802109020A43E250204A1168204B0B40802149000B431360002001F0FFF81D4BE2581543E550E158012291430A43E2508F
:400640006421002000F096FF174B4021174A9950902109015858164A0240164802435A508022D200144999509B5807B030BDC0460000264000002140FF00FFFF741A001030
:40068000087F0000400D030004050000FEFCFFFFFFFF00FFFFF0FFFFFF8FFFFF00002740FFFCFFFF0C050000000001404C0C0000FF0000FF004FC30040FF008010B50A0044
:4006C000002101F096F910BD10B501F089F910BD70B58AB09621002000F04CFF00F022FF002814D100F00EFFC0235B00424AD358DB0705D41100414A8B585B005B088B5033
:400700003D493E4A8B588020000603438B50012001F028F83A4A516C3A4B0B40E82189010B435364536C1B0AFF2213403A2B07D1334A516C344B0B40E82189010B435364F5
:40074000002300223149324801F08AF8002300223049314801F084F8FFF7E4FE2F4A304B1A6000240CE06200121953002D4AD318198B9A8AD88A00041043FFF79FFF013447
:400780000B2CF0D900240AE0620012199300254AD3185A6E196ED86DFFF796FF0134112CF2D9214C2100343120003830FFF7A0FE1E4A1368812149000B43136001AD2A00DF
:4007C00023003C3343CB43C243CB43C243CB43C22900174800F0BEF82A002300603313CB13C213CB13C213CB13C22900114800F0B1F80AB070BDC046000026400C05000088
:4008000000002740FF00FFFFFFC5FFDF0F0E0040050E0000010700402A0700000300FA05F0012140741A0010741B0010007934400003324080063240214B984230D00ED8B2
:40084000402831D004D800281FD010282AD031E080282BD080235B00984229D02AE0194B984229D007D8A0231B0698420DD0164B984212D01EE0154B98420AD0144B984242
:4008800009D0144B984215D101E0002016E0124814E0124812E0124810E0A020C0030DE007480BE00F4809E00F4807E00F4805E0034803E00E4801E0A420C0037047C04658
:4008C00006005200010000F0090000A0040000F0050000F0030000F0010052000200520003005200010050000200500005005200FF00520010B50C4B1B69002B11DB0B4BD6
:400900001868FFF799FF0121094B0A4AD150084B084AD358002BFAD1074BD358002BF6D100E0064810BDC04600002340200600080C040000000025408C04000002005000A0
:4009400010B502220249002000F0AEFA10BDC0464501000870B505000C00002848D0002948D0FF230A689A4303D08D21224800F0BBFDFF2322699A4303D08E211E4800F04D
:40098000B3FDA3685B0D03D08F211B4800F0ACFD63685B0A03D09021174800F0A5FDE3695B0F03D09121144800F09EFD236A5B0F03D09221104800F097FD104BEB18DB0933
:4009C0000F4A944663441B0122682A60E268AA622269EA6262692A63A2686A626268AA61A2696A63E2691A60226A5A60002002E0044800E0034870BD282500100000CEBF4A
:400A00000010030401005A0070B504000D000369002B0ADA0B0C03D00549064800F064FD2D042D0C6560002000E0034870BDC046B3020000A825001001008A0070B50500C8
:400A40000C000368002B01DA002300E0084B002B0BD1EA60230C03D00649074800F044FD2404240CAC60002000E0014870BDC04601008A009A020000A825001070B5050073
:400A80000C1E03D19921064800F02EFD2B69002B03DAEB682360002000E0024870BDC046E825001001008A00F8B504000E0015000F283FD8002A10D100290ED10F2804D935
:400AC000AA21FF31214800F00FFD6401204B9C466444204B1C60002037E0002D2CD0002E2CD0F3062CD10F2C04D9AA21FF31174800F0FAFC6401164B9C466444154F3C602D
:400B00007E60BD60F2080021280000F072FF00212000FFF779FF3A0001CA0021FFF78EFF00280FD10B4B18680021FFF76DFF00280AD10AE0084808E0074806E0064804E0D1
:400B4000054802E0054800E00448F8BD28260010000023403006000803018A0001018A00F0B583B00D001C4B1B68DC68236883422DD947097B01C01A012383401E000029C2
:400B800003D100F04AFD019001E000230193124B18680368002B01DA002300E00F4B002B0ED16368BF00DF193B68334203D0B3433B60002400E00A4C0021FFF725FF00E0D9
:400BC000084C002D04D1019800F02BFD00E0064C200003B0F0BDC0463006000801008A00020188000301880004018A000A4B1B68DA68136883420BD943095901401A012167
:400C0000814052689B009B580B4203D0034802E0034800E003487047300600080101880004018A0000018800034B1B68002B01D1014B18607047C0463C060008F0B5474686
:400C400080B404000F0090461E002B4B1B68002B03D1B421294800F047FC072C03D9B521264800F041FC244B1B682C2060431C18FF22150035402560330A13406360330C71
:400C8000A3600F2D04D9AA21FF311D4800F02CFC6B011C4A94466344236165680F2D04D9E2214900164800F01FFC6D01164B9C4665446561A668330C04D0F121490010483A
:400CC00000F012FC330C04D0E421FF310C4800F00BFC3604330C1E43AE604346E36127620023A361069B002B02D000229B5EA38104BC9046F0BDC0463C06000868260010F0
:400D0000282600100000234000102340F0B58FB0041E03D150212E4800F0E6FB6368032B03D952212A4800F0DFFBE36A002B03D15621274800F0D8FBE368072B03D95721A3
:400D4000234800F0D1FB236A072B03D95821204800F0CAFB236B002B03D159211C4800F0C3FB07AA1300210061C961C321C921C302AD290023001433C1CBC1C141CB41C1A3
:400D80000821535E0CAE3380079B1933B370089B0D930B9B0A980096A26AE16AFFF74EFF2B69E868002200920021FFF747FF216B300000F027FB0023F25E002A05DB1F239E
:400DC0001A401E3B9340034A13600FB0F0BDC0466826001000E100E0F8B504000F0016001D00002A03D1FD21284800F07DFB284B1B68002B03D1FE21244800F075FB072CE2
:400E000003D9FF21214800F06FFB072F04D9802149001E4800F068FB1D4B1B682C2120004843181879435918012213004C68A3401B044468A24014000269002A20D08F69F2
:400E4000002F1FD11268002A01DA002200E0114A002A19D132681204120C134333600369DE6001238B614D620569230C03D00A490A4800F039FB2204120CAA60002004E0B8
:400E8000074802E0074800E00648F8BD682600103C06000801008A009A0200002826001004028A0007028A0070B504000D001600134B1B68002B04D16221FF31114800F016
:400EC00013FB072C04D9B12149000E4800F00CFB0B4B1B682C2060431C18236A002B04D1B3214900074800F0FFFAE369B34204D9236AB6009D51002000E0034870BDC046C1
:400F00003C060008682600100A028A0070B582B0040000230193002804D1EA2149002B4800F0E2FA2369002B04D1D621FF31274800F0DAFA6369002B04D1EB21490023481F
:400F400000F0D2FA236A002B04D1D821FF311F4800F0CAFA6269D5682B0C1FD01B041360136820690369002B18DA01A9FFF786FD00280ED1019803681E0CFF221340E26980
:400F8000934207D29B00226AD358002B02D0984700E0002631002069FFF736FD2D042D0C0FD063691D601B68636A002B03D098470023636203E0A36A002B00D098470023D8
:400FC000A36163691B6802B070BDC0466826001010B504000B4B1B68002B04D1DA214900094800F081FA072C04D9B621FF31064800F07AFA034B1B682C2060431818FFF7CA
:4010000085FF10BD3C0600086826001010B504000F2803D9E421054800F066FAA402044B9C46644423680F20184010BDA82600100040244004281DD8042904D94B1EFF3B4B
:401040009BB2132B18D8FF290CD91F2319400B4A0300C0339B009950D03080000423835000200AE007231940D0308000034BC150002002E0024800E0014870470000264006
:4010800001004A0070B5041E04D1E221FF314C4800F02AFAB023DB004A4AD358002B01DB002500E0484D002D00D086E0474B22689A4204D9F8214900414800F015FA236833
:4010C0009B03990BE3791B068022520413400B43B022D2003B498B50A2883D4B9A4204D9F821FF31364800F0FFF92289394B9A4204D9FC214900324800F0F6F9A388DB04CA
:40110000D90C23891B04344A13400B43334A2D498B50A37A0F2B04D9FF214900284800F0E3F9E37A0F2B03D92A49254800F0DCF9A289274B9A4204D980218900204800F049
:40114000D3F9A37A0F211940E27A1201FF2313400B43A289120222490A401343A27B1207C02189050A401343B122D20015498B50A379072B04D982218900114800F0B4F911
:40118000228A144B9A4203D916490D4800F0ACF90C4815494658154B1E40A3791B02E022D2001340334343504658114B1E40238A1B04094A134033434350280070BDC0467E
:4011C000E82600100000264003004A00FFFF0300FF1F0000FF0100000000FF018405000000FF1F00090200008C050000FFF8FFFFFFFF00FE70B505002D492E4A8B58802030
:40120000000603438B502C0003E0012000F060F9013CB223DB00264AD3585B0701D4002CF3D12349B122D2008858234B03408020800503438B50002D02D00ED0002C0CD092
:401240001B49B022D2008B588020000603438B5003E0012000F03CF9013CB223DB00144AD358DB0701D4002CF3D1002D0ED0002C0CD10F4AB021C90053585B005B08535063
:401280000C4953585B005B0853500BE0084B0221B222D2009950B121C9005A58C020800502435A50002C01D1044800E0002070BD000026408C050000FFFFFFCF02004A00B6
:4012C00010B583089A00801AC000FF228240D44381400A40072B32D89B001949CB589F46184B196A0C4022431A6228E0154B596A0C4022435A6222E0124B996A0C402243A6
:401300009A621CE00F4BD96A0C402243DA6216E00C4B196B0C4022431A6310E0094B596B0C4022435A630AE0064B996B0C4022439A6304E0034BD96B0C402243DA6310BD98
:40134000702700100000214083089A00801AC100FF228A40072B2BD89B001748C3589F46164B186A1040C84023E0144B586A1040C8401EE0114B986A1040C84019E00F4B0D
:40138000D86A1040C84014E00C4B186B1040C8400FE00A4B586B1040C8400AE0074B986B1040C84005E0054BD86B1040C84000E00020C0B27047C046902700100000214050
:4013C00070B504000D000B4B9A680B4B9A420BD1002903D1FC21094800F086F81034064BA400E058E55003E01034A400044BE05870BDC04600ED00E000000008B027001091
:4014000000000010F0B583B0041E019150D04368032B03D93621294800F066F80023E05E002802DBA178FFF74BFF0023E25E6368002A12DB9008224EC030800087590321A5
:401440000A40D200FF25290091408F4399012B000B4093403B43835117E092B20F21114008398908063189001648844661444E6803200240D200FF27380090408643980193
:401480003B000340934033434B600E4B9A680E4B9A420FD1019B002B03D14521074800F023F80023E05E0199FFF78AFF002002E0064800E0002003B0F0BDC046B0270010D8
:4014C00000E100E000ED00E0000000080100560010B5034B1B78584300F096F810BDC046D400000801BEFEE770B50D00044C18220100200000F085FAA5610020FFF7F2FF94
:4015000038040008054B802212069A649B6C002B01DB002000E002487047C0460000274003004600054B8022120198585B68FF221A4202D08023DB0218437047000026409B
:40154000FEE7C04610B50A4B0268DA6142681A6282685A62C2689A620269DA6242691A6382695A63C2699A63FFF7EAFF10BDC04638040008F0B5002801D0192200E06422FB
:401580008A42924152421C4BE8256D005C590327BC433A4014435C515C59184E34405C51D03D5C59BC4322435A515A5916405E51002805D010290DD921290DD8012014E096
:4015C0001D290BD93A290BD957290BD978290BD803200AE0002008E0022006E0002004E0012002E0022000E00420054A13680F218B4303431360F0BD00002140FFFCFFFFC0
:4016000000002540000000000230800803D001300238FCD1C046C0467047EFF3108072B6704780F31088704710B5074A074813580F24A34302210B43135004381358A34360
:401640001943115010BDC0460000214004F0000010B5074A074813580F24A34303210B43135004381358A3431943115010BDC0460000214004F000000449054A8858054B89
:401680000340C020C00103438B5070470000214004F00000FF8FFFFF0449054A8858054B03408020C00103438B5070470000214004F00000FF8FFFFF10B50020FFF7A6FCE7
:4016C000B0235B055B78002B04D0B0235B055B78DBB200E02123222B03D8002803D1013002E0012000E0002010BDC04610B504000020FFF78BFC00280AD114498A69144BEB
:401700001A40240680235B041C4014438C611BE0002C01D00F4A00E00F4A01210F48FFF78DF900280DD10D4B1B69002BFBDB0B4BDB681B0E1B06A0221206934203D008486C
:4017400002E0074800E0002010BDC04600F02540FFFFFFFE01010030010000300000234004004200F8B50500012804D9EA21C9002948FFF7B9FEFFF79FFF002848D0FFF795
:401780004CFF0700002D17D1E823DB00B0225205D65CF6B20120FFF7A9FF041E1FD1FFF743FF1E481E4943581F229343143A13434350FFF761FF12E01A4BB0225205D65C12
:4017C000F6B21648164943581F229343143A134343500920FFF77CFEFFF75EFF0024002C12D10E490E4A8B581F20834306401E438E50012D08D11638FFF76AFEFFF728FF90
:401800000020FFF773FF04003800FFF70AFF00E0054C2000F8BDC046F4270010000026401CFF00004107000003004200042805D1094A116804230B4313600CE00006C02315
:401840009B04184090239B00044AD050024A136804218B431360704710E000E000002140F8B506000C0015001F00012B03D936211248FFF739FE32006240F0231B01134071
:4018800019D1220A0F210A40D20170310C401419A4000B4A94466444FF221640002D01D00133FF3333437F028026B60037403B432360002000E00348F8BDC0463428001018
:4018C000002001400100CE00002243088B4274D303098B425FD3030A8B4244D3030B8B4228D3030C8B420DD3FF22090212BA030C8B4202D31212090265D0030B8B4219D3D5
:4019000000E0090AC30B8B4201D3CB03C01A5241830B8B4201D38B03C01A5241430B8B4201D34B03C01A5241030B8B4201D30B03C01A5241C30A8B4201D3CB02C01A524164
:40194000830A8B4201D38B02C01A5241430A8B4201D34B02C01A5241030A8B4201D30B02C01A5241CDD2C3098B4201D3CB01C01A524183098B4201D38B01C01A52414309B8
:401980008B4201D34B01C01A524103098B4201D30B01C01A5241C3088B4201D3CB00C01A524183088B4201D38B00C01A524143088B4201D34B00C01A5241411A00D20146C7
:4019C000524110467047FFE701B5002000F006F802BDC0460029F7D076E770477047C046002310B59A4203D0CC5CC4540133F9E710BD03008218934202D019700133FAE77D
:401A00007047030030B5002A0DD00C7801335D1E013A2C700131002CF5D19A189A4202D01C700133FAE730BDF8B5C046F8BC08BC9E467047F8B5C046F8BC08BC9E46704758
:401A4000030000000100000001000000000000000503600004000000010000000000000001000000060460000800000000060008A5040010F4010000140004010A00090594
:401A800008000000630100000020344074008020344074000022344074008022344074000024344074008024344074000026344074008026344074000028344074008028AA
:401AC00034407400002A34407400802A3440740000213440F81B00109000000000233440881C00109000000000253440181D00109000000000273440A81D001090000000C9
:401B000000293440381E001090000000002B3440C81E00109000000000603440581F00107C00000080603440D41F00107C00000000613440502000107C000000806134401D
:401B4000CC2000107C00000000623440482100107C00000080623440C42100107C00000000633440402200107C00000080633440BC2200107C000000006434403823001092
:401B80007C00000080643440B42300107C00000000653440302400107C00000080653440AC2400107C000000ACC0000001713440000000000000000000000000000000BA74
:401BC0000000000000000000000000000000000000001D1D8000000000000000000000000000006000000000000000000000000000000000000000030000200000000000A8
:401C000000000000FFFFFFFFFFFFFFFFFFFFFFFFFFFFFFFFFFFFFFFFFF000000FFFFFFFFFFFFFFFFFFFFFFFFFFFFFFFFFFFFFFFFFF00000000000000061F000000000000A9
:401C4000000000000F0000000F0F0000FFFFFFFFFFFFFFFFFFFFF7FF11111111111111111111111111111111111111111111111111111111111111111111111111111111A3
:401C80001111111111111111000050080000000000000001FFFFFFFFFFFFFFFFFFFFFFF7FFFFFFFFFFFFFFFFFF000000FFFFFFFFFFFFFFFFFFFFFFFFFFFFFFFFFFFFFFFF74
:401CC000FF00000004001F001F061F000000001F000700000000000000000000FFFFFFFFFFFFFFFFFFEFFFFF111111111111111111111111111111111111111111111111DC
:401D0000111111611111111111111111111111110111011111111111000021110000000000000000FF6FFFFFFFFFFFFFFFFFFFFFFFFFFFFFFFFFFFFFFF000000FFFFFFFF52
:401D4000FFFFFFFFFFFFFFFFFFFFFFFFFFFFFFFFFF0000001F1F0000001F1F001F1F001F1F0000000000000000000000FFFFFFFFFFFFFFFFFFFFFDFF111111111111111102
:401D800011111111111111111111111111111111111111111111111111111111011111111111011111111111100002220000000000000000FFFFFFFFFFFFFFFFFFFFFFFF73
:401DC0000FFFFFFFF4FFFFFFFF000000FFFFFFFFFFFFFFFFFFFFFFFFFFFFFFFFFFFFFFFFFF0000001F1F0C07001F0000071F1F00071F1F000F000F0000000000FFFFFFFFE8
:401E0000FFFFFFFFFFFDDFFD1111111011111111111111111111111111111111111111111111111711111111111111111111119111111011111101113200A08500000000D3
:401E400000000000FFFFFFFFFFFFFFFFFFFFFFFFFFFFFFFFFFFFFFFFFF000000FFFFFFFFFFFFFFFFFFFFFFFFFFFFFFFFFFFFFFFFFF0000000E001F00061F071F1F1F1F00B7
:401E8000061F001FF000FF0000000000BFFFFFFFFFFFFFFFFFFFF3DD111111110111111111111111111111D111111111111111111111111111111111111111111111111111
:401EC0001111101111111111000044100000000000000010FFFFF7F7656FFFFFFFFFFFFFF6F6FFF7FFFFFF7F7F0000002FFFFFFFFFFFFFFFFFFFFFFFFFFFFFFFFFFFFFFF44
:401F0000FF00000006071F1F00001F1F000000001F1F001F0006000600000000FFFFFFFFFFFFFFFFFFFFEFFE111111111111111111111111111111F1111111111111111155
:401F40001111111111111111111111B1131111E1E87211111191E17200000000000000001F1F1F071F1F1F1F1F1F1F1F1F1F1F1F1F1F1F1F1F1F1F171F1F1F1F1F1F1F1FAE
:401F8000000E000E0000000000040000000000000700000007070000FFFFFFFFFFFFFFFFFFFFFFFF111111111111111111111111111111111111111111111111111111111C
:401FC00014111111111111111111111111151111EE1BE11100000000000002001F1F1F1F1F1F1F1F1F1F1F1F1F1F1F1F1F1F1F1F1F1F1F1F1F08071F1F1F1F1F1F040F00EA
:40200000001F1F000000001F000000000000000000000000FFFFFFFFFFFFDFDFFFF7F7FF11111111E1111111111111111111111111111111111111111111111111111111AF
:4020400011111111B1111111111B11111111111F00000000000000401F1F071F1F1F1F1F1F1F1F1F1F1F1F1F1F1F1F1F1F1F1F1F1F1F1F1F1F1F1F1F1F0D0000061F0E0031
:40208000000600021F0E05000000000000000000FFFFFFFFBFFFFFFFFFEFAFFF111111111111111111111111111111511111111111111111111111111111011111111111FE
:4020C000110111111101E1111111111E00000000000000001F1F1F1F1F1F011F1F1F1F1F1F1F1F1F1F1F1F1F171F1F1F1F1F1F1F1F1F1F1F0F001F00000F000000000F0051
:4021000000000E0006700F0000704030FFFFFFFFFFFFFFFFFBFFFFFF11111111D11111D11111111111111111111111101111111161111111111111111111111D111FD1916B
:402140001F11101011D1111100000000000000001F1F1F1F1F1F1F1F1F1F1F1F1F1F1F1F1F1F1F1F1F0D1F1F1F1F1F1F1F1F1F1F000001001F001F001F041F000005001F98
:40218000F000F00000000000FFFDFFFFFFFFFFFFFFFFFFFF111111111111110111111111111111111111111111111111111F11111611111111101111D11E11111E1111D1C5
:4021C000110E111E00000000000000321F1F1F1F1F1F1F071F1F1F1F1F1F1F0C1F1F1F0F1F1F1F1F1F1F1F1F1F1F1F1F001F1F0607001F070000000000040407000000003A
:4022000000000000FFFFFFFFFFFFFFFFFFDFFFFC111111110111111111111111111111111111111111111111911E1116111111111111E11111111111151111111101111E4A
:4022400000002000000000001F1F1F1F1F1F1F1F1F1F1F1F1F1F1F1F1F1F161F1F1F1F171F1F1F1F1F1F1F1F000000001F02000000000000000000000F0000000F0F000021
:40228000FFFFFFFFFFFFFFFFFFFFFFFF11111111E11111111111D1111161111111111D11111111111111111111111111D1111111111111111111011111110111000000006E
:4022C000000000001F1F1F1F1F1F1F1F071F1F1F1F1F1F1F1F1F1F1F1F1F161F061F1F1F1F1F1F1F00001F000D00070B00000008051F00000000000000000000FFFFFFFFD2
:40230000FFFFFFFFFEFFDFDD11111111171111111111F1119111111111111111111111111111111111111111111111110111111111111111111011010000000000000080F3
:402340001F1F1F1F1F1F1F1F1F1F1F1F1F1F1F1F1F1F1F1F1F1F1F1F171F1F1F1F1F1F1F091F000000081F00071F061F060A00000000000000000000FFFFFFFFFFFFFFFFE3
:40238000FFDDF77911111111111111111111111111111111111111111111111111111111111111711111111111111111111111111011111100000000000000541F1F1F1F72
:4023C0001F1F1F1F1F1F1F1F1F1F1F1F1F1F1F1F1F1F1F1F1F1F1F1F1F1F1F1F1F07001F001F00001F0D1F001F061F000F00060000000000FFFFFFFFFFFFFFFFFFFFFBBEC2
:40240000111111E11111111111111111111111111111111111111111111111111111111111111111111111D1E1E111E11111111100000000000000001F1F1F1F1F1F1F1F74
:402440001F1F1F1F1F1F1F1F1F041F1F1F0E1F1F1F1F1F1F1F1F1F1F1F000000000F000E071F051F0000000E7000770000000000FFFFFFFFFFFFFFFFFDFFFFFD111111F111
:402480001111111111111111111111111111111111111111111111111111111111B111111E111111111111361011111100000000000000101F1F1F1F1F1F1F1F1F1F1F1FDB
:4024C0001F1F1F1F1F1F1F161F1F1F1F1F1F061F1F1F1F1F000007000607060000000000061F0600000F000F00000004FFFFFFFFFFFFFFFFFFFFF3FE111111F111111111DC
:40250000111111111111111111111111111111111111111C1111111111111111D1D111111111DD1111E9111147656E6572617465645F536F757263655C50536F43365C70B2
:40254000646C5C647269766572735C7065726970686572616C5C6770696F5C63795F6770696F2E630000000047656E6572617465645F536F757263655C50536F43365C70B4
:40258000646C5C647269766572735C7065726970686572616C5C6770696F5C63795F6770696F2E680000000047656E6572617465645F536F757263655C50536F43365C706F
:4025C000646C5C647269766572735C7065726970686572616C5C6970635C63795F6970635F6472762E68000047656E6572617465645F536F757263655C50536F43365C706A
:40260000646C5C647269766572735C7065726970686572616C5C6970635C63795F6970635F6472762E63000047656E6572617465645F536F757263655C50536F43365C702E
:40264000646C5C647269766572732F7065726970686572616C2F6970632F63795F6970635F6472762E68000047656E6572617465645F536F757263655C50536F43365C7070
:40268000646C5C647269766572735C7065726970686572616C5C6970635C63795F6970635F706970652E630047656E6572617465645F536F757263655C50536F43365C704C
:4026C000646C5C647269766572735C7065726970686572616C5C70726F745C63795F70726F742E630000000047656E6572617465645F536F757263655C50536F43365C7007
:40270000646C5C647269766572735C7065726970686572616C5C737973636C6B5C63795F737973636C6B2E630000000047656E6572617465645F536F757263655C50536F63
:4027400043365C70646C5C647269766572735C7065726970686572616C5C737973636C6B5C63795F737973636C6B2E6800000000E0120010EC120010F81200100413001055
:40278000101300101C1300102813001034130010601300106A130010741300107E13001088130010921300109C130010A613001047656E6572617465645F536F7572636576
:4027C0005C50536F43365C70646C5C647269766572735C7065726970686572616C5C737973696E745C63795F737973696E742E630000000047656E6572617465645F536FEB
:40280000757263655C50536F43365C70646C5C647269766572735C7065726970686572616C5C737973706D5C63795F737973706D2E63000047656E6572617465645F536FD7
:40284000757263655C50536F43365C70646C5C647269766572735C7065726970686572616C5C747269676D75785C63795F747269676D75782E63000000000000000000108F
:4028800000000008C00000009C280010C00000087803000074040008CC0100000048E80100127A0000093D0000093D0000093D0004000000A00F00000000D00702FF0000D2
:4028C000E9000010C1000010000000000004400B19D00D4B1B68002BFBDA3E220B4B1A600B4A0C4B1A600C4B0621A322D20099500A4A98509B580022034B5A60074B064AAC
:40290000D358002BFADA7047E0002340040126401E1F000008012640000026401C05000010B54378FF2B0DD100F04CF9064BDB685A68116801230B4313601368DB07FCD437
:4029400000F048F910BDC04680002340F0B583B005000F0000F01EF90600032824D12E4B1B69002B22DB002000F03CF92B4B98421ED000232A4A0021012000F03BF900288A
:4029800003D0284C17E0013400E00024002000F029F9224B984202D0234B9C42F3D9224B9C4207D91F4C06E0002404E01D4C02E01C4C00E00024002C2BD100F003F901905D
:4029C0001A4B1B4AD358002B13DA1A4A01211A4800F018F900280ED13800FFF777FF002D0BD0154B1B69002BFBDB00F0DBF8040004E00C4C02E00B4C00E0104C032E05D1CA
:402A00000121002000F0D6F80028F9D1019800F0E1F8200003B0F0BDC000234001018800E000000805005200EF4902001C0500000000264020060008000023400100500033
:402A400070B5304B1B68002BFBDA2E4BD96802220A43DA60DB68DB071FD52A4EF2681204150C294B1A69120A1204FF2424042240110090241A59120A12060A432A43F2605E
:402A80001969224A114090252D012943196119590A402A431A511A691B591A4B00225A605B681B4A116904230B431361012801D030BF00E020BF134B1B68002BFBDA114BD2
:402AC000DB68DB0715D510480269104B1A4014000C4DEA68120C1202FF2109020A4022430261902142581340EA68120E120213434350044BDA6802218A43DA6000225A607D
:402B000070BDC046E000234000002140FF00FFFF00ED00E0164A116904230B431361012801D030BF00E020BF124B1B68002BFBDA86235B00104AD358002B14D10F4A104B5C
:402B40001A6006220F4B1A6038320F4B1A6006320E4B1A600D4B1B68002BFBDA0C4986235B00054AD1500022024B5A607047C04600ED00E0E0002340000025401E1F00005A
:402B80000801264018052640040126401C052640AAAAAAAA01B40248844601BC604700BF1504001001B40248844601BC604700BFF508001001B40248844601BC604700BF8F
:402BC000610B001001B40248844601BC604700BF1B16001001B40248844601BC604700BF2316001001B40248844601BC604700BFED0B001001B40248844601BC604700BF17
:402C0000D90D001001B40248844601BC604700BF3D0A001000000000000000000000000000000000000000000000000000000000000000000000000000000000000000005B
:402C40000000000000000000000000000000000000000000000000000000000000000000000000000000000000000000000000000000000000000000000000000000000054
:402C80000000000000000000000000000000000000000000000000000000000000000000000000000000000000000000000000000000000000000000000000000000000014
:402CC00000000000000000000000000000000000000000000000000000000000000000000000000000000000000000000000000000000000000000000000000000000000D4
:402D00000000000000000000000000000000000000000000000000000000000000000000000000000000000000000000000000000000000000000000000000000000000093
:402D40000000000000000000000000000000000000000000000000000000000000000000000000000000000000000000000000000000000000000000000000000000000053
:402D80000000000000000000000000000000000000000000000000000000000000000000000000000000000000000000000000000000000000000000000000000000000013
:402DC00000000000000000000000000000000000000000000000000000000000000000000000000000000000000000000000000000000000000000000000000000000000D3
:0200000490303A
:0200000054B1F9
:0200000490501A
:0C0000000005E20721002101E21475B1A7
:00000001FF