:400000000080002011000000350700003507000080B500AF00F098FB80B500AF2A4B12221A6002F0A1FB294B180002F0CDFB012002F0AAFB0C2002F01FF9254B254A1A600E
:40004000254B8022D2051A60244B244A126802210A431A60224B234A1A60234B00221A60224B224A126808218A431A60FA23DB00180002F0F7F91E4B180002F015FB1D4BDE
:40008000FE2212021A601C4B1C4A1A601C4BFE2212021A60184B1B4A1A601B4B802212061A601A4B00221A60194B40221A60194B41221A60084B8022D2051A60024B002223
:4000C0001A60C046BD4680BD30001040001BB70004010B40060000800C020B4078002E407C002E406A2D000064F02E406CF02E40DC050000000301400000014040FF0080A7
:400100000403014041FF008008010B4000010B40140101401001014080B582B000AF72B6364B00221A60FB1D00221A7022E0FB1D1A7813005B009B185B00314A9B183B605F
:400140003B681A78597809020A43997809040A43DB781B06134318003B681A795B791B0213439BB2190000F043FAFB1D1A78FB1D01321A70FB1D1B78012BD8D9214A224BE5
:400180001100180000F044FA204B8022D2021A601F4B00221A601F4B00221A601E4B992212041A601D4A1D4B1B78DBB23C218B43DBB214210B43DBB21370194A184B1B783A
:4001C000DBB216210B43DBB21370164B01221A60154B8022D2021A60144B01221A60144B01221A60134B01221A60FFF715FF00F051FAC046BD4602B080BDC0466CF02E408F
:4002000048460100644601005446010014000B40000002400800044020500F4001700F4000700F40000204400802044018020440000404401804044010B5064C2378002B47
:4002400007D1054B002B02D0044800E000BF0123237010BD581000200000000010450100084B10B5002B03D00749084800E000BF07480368002B00D110BD064B002BFBD0ED
:400280009847F9E7000000005C10002010450100A80B00200000000080B500AF00F02EF803F006F800F03AF9104B1B78012B12D100F006F90E4B1B78002B04D00C4B00226C
:4002C0001A7001F09FFB0B4B1B781A000123134001D000F027F8084B1B78002BE0D0064B00221A70002000F065FBD9E774100020AC0B0020751000207610002080B500AFF7
:4003000062B6074B180000F0C1FA062001F0CAFE002001F0E5FC00F055FFC046BD4680BD7D03000090B583B000AF134B1B88013B9AB2114B1A80104B1B88002B17D10E4BA5
:4003400005221A80002000F09FFFC04601F00AF8031EFBD101F094FCFC1D002001F0B2FC03002370FB1D1B78180000F07BF8C046BD4603B090BDC046AE0B002080B584B0C2
:4003800000AF786039607B684C2B53D87B689A002C4BD3181B689F462B4B01221A704CE0294B01221A7048E0284B1B78042B43D1254B01221A703FE0234B01221A703CE0FD
:4003C000234A3B681000190002231A0002F02BFF204B01221A7030E01E4B00221A701E4B00221A701D4B01221A7000F069F824E03B68FB60FB689B890F2B07D1FB685B68F0
:400400001A78154B1A70154B01221A70104B1A785B781B021A4300231204120C1B0C1B04134318000EF024FB07E03B681A780C4B1A7002E0C04600E0C046C046BD4604B049
:4004400080BDC046144501007610002094210020882100207410002075100020771000207810002080B586B000AF0200FB1D1A70114B1B78002B1BD10C23FB180E221A8132
:400480000C23FB18FA1D1A600C23FB1801229A800C23F918094B1A785B781B021A4300231204120C1B0C1B04134318000EF08AFAC046BD4606B080BD78100020882100207D
:4004C00080B584B000AF124B1B78002B1BD0104B00221A700F4B1A780C23FB181A700C23FB1800225A703B000F221A813B000C22BA181A603B0002229A80074A3800002310
:4005000000210FF0C9F8C046BD4604B080BDC04677100020751000208821002080B582B000AFFB1D00221A702E4B1A782E4B1B789A4209D0FB1D01221A702B4B1B78032B23
:4005400002D12A4B01221A60274B1A78254B1A70244B1B78032B12D0042B31D0022B00D038E0FB1D1B78002B31D0FB1D00221A70002001F097FD002001F0ACFD27E01B4BDA
:400580001B685A1E194B1A60184B1B68002B20D1062001F087FD01F0C5FD0300012B07D1002001F097FD114BFA2252011A6010E0012001F08FFD0D4BFA2252011A6008E06A
:4005C000012001F087FD002001F06CFD02E0C04600E0C046FB1D00221A70C046BD4602B080BDC046B00B002094210020B40B002080B582B000AF786039603A687B6800219F
:40060000180002F019FEC046BD4602B080BDC04680B586B000AF7860396000233B6100237B612FE07B699B007A68D3181B68BB600F23FB18BA681A70BB68FF229343BB6033
:4006400018E03B695B003A68D3181B781A00BB68D31819003B695B003A68D3185B780B703B6901333B610F23FB181A780F23FB18013A1A700F23FB181B78002BE1D17B695A
:4006800001337B617B69032BCCD9C046BD4606B080BDC04680B500AF074B03221A60074B03221A60064B00221A60012000F00AF8C046BD4680BDC04630003040300031401E
:4006C000000E3F4080B584B000AF0200FB1D1A70154B1B68FB60FB1D1B78002B05D0FB68802212061343FB6003E0FB685B005B08FB600D4BFA681A600C4B1B68FB60FB1D1A
:400700001B78002B05D0FB68982292051343FB6003E0FB68064A1340FB60044BFA681A60C046BD4604B080BD80033A4008010B40FFFFFFD980B500AF02F03AFD03001B689E
:400740000C2B00D1FEE7FEE780B586B000AF224B7B61224B3B61204B7B6135E03B691B68FB603B695B68BB603B699B683B6000237B600CE0FB681A68BB681A60BB680433D3
:40078000BB60FB680433FB607B6804337B607A683B689A42EED13B69DB683B6000237B6008E0BB6800221A60BB680433BB607B6804337B607A683B689A42F2D13B69103378
:4007C0003B617B69013B7B617B69002BC6D102F0F5FCFFF761FDFEE701000000E04A010080B582B000AF154B144A126801218A431A6000237B600FE07B68032B04D8104B87
:400800007A689200D35800E00E4B0F4A796889008B507B6801337B607B682F2BECD9FFF77BFC0A4B00221A60044B044A126801210A431A60C046BD4602B080BD00001040A8
:40084000000000003507000000000020C000002080B500AF064B00221A70064B00221A70054B00221A7000F009F8C046BD4680BD9F210020982100209E21002080B500AFAF
:4008800000F0F6FBC046BD4680BDC046B0B594B004AF78603E23FB1800221A802823FA183D4B1000190014231A0002F0BCFC3B4B1B78002B04D1FFF7CBFF384B01221A7095
:4008C0007B68002B5CD0364B7A681A603E23FB181B88002B29D11023FB181C22BA185A601023FB182022BA181A601023FB1800221A812023FB181B221A802023FB181B22FE
:400900005A802023FB1804221A711C23FB1808221A703E23FC180E23FA181023FB181100180002F0A1FD030023803E23FB181B88002B29D13E23FC182823FD18AE231A0176
:40094000184919480023029300230193052300932B0002F0DFFC030023803E23FB181B88002B11D1114B01221A703E23FC18104B1222102118000EF077FE0300238003E077
:400980003E23FB1801221A803E23FB181B881800BD4610B0B0BDC04684460100791000208C210020C8000020F10C000094210020A046010090B585B000AF0200FB1D1A70F2
:4009C000FB1D1B78022B04D90E23FB1801221A804CE02A4B1B78042B43D1294B1B78DBB21A00042313403CD1FB1D1B78002B0DD1244B1E221A82234B5B68902252001A80C7
:400A0000204B5B68A02252005A8010E0FB1D1B78012B0CD11B4B96221A821A4B5B68C822D2001A80174B5B68FA2212015A80164BFA1D12781A700E23FC18124B18000CF04E
:400A400037FE030023800E23FB181B88002B0DD10B4B1B78DBB204221343DAB2084B1A7004E00E23FB180422FF321A800E23FB181B881800BD4605B090BDC0469421002058
:400A80009F210020080C00209E21002080B584B000AF78600A00FB1C1A700023BB60BB68002B20D07B689A79BB681A700F23FB1800221A7012E00F23FB181B780133BA6878
:400AC000D3180F22BA18127879688A5C1A700F23FB181A780F23FB1801321A700F23FB181B78052BE7D9C046BD4604B080BDC04680B582B000AF78607B681B789AB27B68F9
:400B000001331B789BB21B029BB213439BB21800BD4602B080BDC04690B585B000AF78600F23FB1800221A707B689B890B22934232D17B68181D7A680F23FC1840230021C2
:400B40000EF0AAFD030023700F23FB181B78002B1AD17B685B681800FFF7CAFF03001A00022313409BB2002B07D00F4B1B687968822252001000984706E00B4B1B687968A8
:400B80000622FF3210009847084B1B78DBB201229343DAB2054B1A700F23FB181B781800BD4605B090BDC0468C2100209F21002090B585B000AF78600F23FC187B68180031
:400BC000FFF7AAFF03002370154B1B78DBB21A00012313401FD10F23FB181B78002B16D00823FB1812229A707B689A890823FB181A800823FB180F22BA181278DA7008233C
:400C0000FA187B68110018680DF09EFE03E07B6818680DF02DFFC046BD4605B090BDC0469F21002080B582B000AF7860C046BD4602B080BD80B500AF044B00225A70034BE2
:400C400000221A70C046BD4680BDC0469C21002080B582B000AF7860C046BD4602B080BD80B500AFC046BD4680BDC04680B584B000AF78600E23FB1800221A707B689B79B2
:400C8000002B1CD10F23FB1800221A7012E00F23FB181B787A68D35C002B04D00E23FB1801221A700BE00F23FB181A780F23FB1801321A700F23FB181B78052BE7D90E23A3
:400CC000FB181B781800BD4604B080BD80B582B000AF0200BB1D1A80C046BD4602B080BD80B582B000AF7860C046BD4602B080BD80B588B000AF02003960FB1D1A70CD4B69
:400D00001B78DBB201221343DAB2CA4B1A70FB1D1B78712B00D96BE19A00C74BD3181B689F461023FB1807221A701023FB1800225A701023FB18180004F09AFA1023FB182D
:400D400007221A701023FB1801225A701023FB18180004F08DFA0023002B01D002F0A0FAB64B1B681800FFF781FF031E11D0B34B1B68180002F0A0FAB04B1B680021180019
:400D8000FFF784FEAD4B1B6801211800FFF77EFE36E0AB4B1B781A003F231A40A94B1B789901FC231B010B401A43A74B1B781903F8235B020B401A43A44B1B785904FE235A
:400DC0001B040B401343BB61BB69DAB2A04B1A70BB691B0ADAB29E4B5A70BB691B0CDAB29B4B9A709A4B180002F066FA984B00211800FFF74BFE964B01211800FFF746FEA4
:400E000003200CF0E9FA0C23FB183F221A700C23FB1800225A700C23FB1818000CF0FAFA8C4B04221A70EAE03B681800FFF710FFE5E03B681A78884B1A70E0E03B687B6164
:400E40007B691B78002B00D0D4E07B695B78002B0BD1824B0022DA80804B00229A807F4B7F4A1A607B697D4A5A60724B1B78DBB201229343DAB26F4B1A70BBE06D4B1B7840
:400E8000DBB21A002023134000D0B5E0754B1B78102B02D1734B0522DA70734B1B78714A110018000CF0C2FB03001A000A23FB181A800A23FB181B88002B06D06B4B1B68FE
:400EC0000A22BA181100362098475A4B1B78DBB201221343DAB2574B1A708DE03B681800FFF7FEFE8BE03B681800FFF7F9FE594B02221A7083E0574B04221A707FE0554B85
:400F00001B78022B00D179E04A4B1B78DBB21A000123134000D171E0464B1B78DBB21A00042313400BD04B4B03221A70414B1B78DBB204229343DAB23E4B1A705EE03D4BED
:400F40001B78DBB21A00082313400BD0414B04221A70384B1B78DBB208229343DAB2354B1A704BE03B4B1B78032B47D1394B04221A7043E03B681B881800FFF7A7FE3EE071
:400F8000394A3B681000190002231A0002F04BF9314B00221A70FFF763FE30E0FFF74AFE2DE03B685B88162B05D81E23FB183A6852881A8003E01E23FB1817221A801E233A
:400FC000FB1819883B681A8800231204120C1B0C1B04134318000DF0C1FC10E03B681800FFF7E6FD0BE03B681800FFF71BFE06E0C04604E0C04602E0C04600E0C0460D4BFE
:401000001B78DBB21A00112313400ED0094B1B78DBB201229343DAB2064B1A70134B1B68FA1D1278396810009847C046BD4608B080BDC0469F210020EC470100240C0020C3
:401040007CF2FF0F7DF2FF0F7BF2FF0F78F2FF0F1C0C002094210020982100207C100020A80B0020980C00209C2100208C21002080B500AFC046BD4680BDC04680B582B00A
:4010800000AF00237B6007E07B680021180000F04DFC7B6801337B607B68002BF4D000F009F8002000F0A8FB00F078F9C046BD4602B080BD80B582B000AF244B1B68DAB2F2
:4010C000234B1A70224B1B787B607B680F2293437B60204B1B78DBB21A000F2313407A6813437B607B68F02293437B60194B1B78DBB21A00F02313407A6813437B60134B00
:401100007A681A60144B154A1A60154B154A1A60154B1B687B607B680F2293437B607B68062213437B60104B7A681A60102001F073FA0E4B1900102001F0DEF90321102020
:4011400001F000FAC046BD4602B080BD00FF2840A021002062F2FF0F0800284000020001040028400008A00100040240791D000080B582B000AF01F049F800F0F9FF00212D
:40118000002001F007F80021002001F051F8FF2000F0D6FF402001F021F8084B1B687B607B68074A13437B60044B7A681A60102001F01CFAC046BD4602B080BD04002840FA
:4011C0000010088080B500AF0C4B1B78002B04D1FFF754FF094B01221A70FFF7C9FF00F037FE074B01221A70064B064A12688021C9030A431A60C046BD4680BD8D1000200B
:40120000841000200400284080B584B000AF0200FB1D1A70FB1D1A78FB1D01321A70FB1D1B78012B0CD0FB1D1A78094B1100180000F0FCFA0300FB60FB68002BEAD000E00D
:40124000C046FB1D1B781800BD4604B080BDC0468C10002080B582B000AF7860084B00221A707B68DAB2074B1A70054B81221A707B68180000F07CF9C046BD4602B080BDE2
:40128000861000208710002080B586B000AF78602E4A7B68D3181A782D4B1A702D4A7B68D3181B787B617B69002B01D101237B61264A7B68D3181B781A007B69D318013B6A
:4012C000FB6000233B610BE0234A3B69D3181978224A3B69D3180A1C1A703B6901333B613B69002BF0D000233B611AE0184B1B78DBB21A003B699A420AD83A69FB689A4214
:4013000006D83969144B0122180000F0B1FA05E03969114B0022180000F0AAFA3B6901333B613B69002BE1D0094B1B78DBB2002B08D10B4B41221A70054B1B78DBB2180010
:4013400000F016F9C046BD4606B080BD184A0100871000201C4A01008C100020A82100208610002080B500AF044B1B78DBB21A00012313401800BD4680BDC046861000209E
:4013800080B582B000AF7860034B7A685200D35A1800BD4602B080BD8810002080B582B000AF00237B6006E07B68180000F062F87B6801337B607B68002BF5D0C046BD46C1
:4013C00002B080BD90B587B000AF786002237B6100231322BA18191C0B1CDB185B18137000221223FB1892001A701123FC1801F0F4F9030023701D4B7A699200D3581B68BE
:40140000FB601223FB181B780F229A401300DA43FB681340FB601223FB181B7804229A401300FA681343FB60114B7A699200D3580F4A796989008A581268132179180978C7
:40144000072088400100C9430A401A60074B7A699200D358FA681A601123FB181B78180001F0BFF9C046BD4607B090BDC4490100E049010090B589B000AF786002237B61F8
:4014800000221323FB1892001A7000231222BA18191C0B1CDB185B1813700023FB61304A7B68D3181B78BB612E4B7A699200D3582C4A796989008A58126813217918097825
:4014C0000F2088400100C9430A401A60BB69022B01D10023BB61BB69012B01D00623FB611123FC1801F079F9030023701E4B7A699200D3581B68FB601223FB181B780722F0
:401500009A401300DA43FB681340FB601223FB181B78FA699A401300FA681343FB60124B7A699200D358FA681A601123FB181B78180001F056F90D4B7A699200D3580B4AFA
:40154000796989008A5812680021080001218140C9430A401A60C046BD4609B090BDC046B8210020C4490100E0490100FC49010090B589B000AF78601723FB1800221A703E
:401580001723FB181A785F4B9200D358BB617A685D4B1100180000F049F903003B61BB695A4A934209D8BA693B699A401300BB61BB69FF2212041343BB6100F027FE00F025
:4015C000D7FD534A7B68D3181B789BB2013B9BB20021180000F0DEFD4E4A7B68D3181B789BB2013B9BB20021180000F021FEFF2000F0A6FD402000F0F1FD474B1B78002BE8
:4016000039D0102001F008F8444B1B68FB61FB6940221343FB61FB6980229343FB610F23FB183C497A688A1812781A700E23FB1837497A688A1812781A700F23FB181A78CD
:4016400013001B039B1A1B0418000E23FB181B781722BA1811782B4A89008A585343984203D2FB6980221343FB612C4BFA691A60102000F0BBFF102000F0CEFF284B1B68F4
:40168000FB61FB69274A1340FB61274A7B68D3181B781900254A7B68D3181B781B040B43FA691343FB611E4BFA691A601B4B1B68FB61FB691E4A1340FB61FB691D4A1343E6
:4016C000FB61102000F092FF7B681800FFF77AFE0D23FC1801F081F8030023700F4BFA691A60002001F070F8134BBA691A600D23FB181B78180001F074F8C046BD4609B078
:4017000090BDC046A40C0020A4210020FFFFFEFFBC210020AC21002085100020040028400800284000FF80FFB0210020B4210020FF1FDFFF200020000C00284080B586B0AC
:4017400000AF7860234B1B6899B2234B7A685200D15200237B61214B7A699200D358204A934214D87A681F4B1100180000F05EF803003B61184B7A685200D35A1A003B69CF
:401780001A41130099B2144B7A685200D1527B681800FFF76FFE102000F03EFF124B1B68FB60FB68114A1340FB60FB68A02212021343FB600C4BFA681A600D4B0C4A126813
:4017C0000C490A401A60102000F010FFC046BD4606B080BD0C00284088100020A40C0020FFFFFEFFA421002004002840FF1FDFFF0800284000FF80FF80B584B000AF786083
:401800007B68032213407B60074B1B68FB607B685B02FA681343FB60034BFA681A60C046BD4604B080BDC0460400284080B584B000AF786039603B68DB08FB603B68072223
:40184000134001229A400B23FB181A707A68FB68D3181B780B22BA1812781340DBB2002B01D0012300E000231800BD4604B080BD80B586B000AFF860B9607A60BB68DB0887
:401880007B61BB680722134001229A401323FB181A707B68002B0DD0FA687B69D318F9687A698A1811781322BA1812780A43D2B21A700EE0FA687B69D318F9687A698A1861
:4018C0001278132179180978C943C9B20A40D2B21A70C046BD4606B080BDC04680B584B000AF78600023BB600023FB6015E07B681800FFF7AFFCC046FFF734FD0300012B9E
:40190000FAD07B681800FFF73BFD03001A00BB689B18BB60FB680133FB60FB68002BE6D0BB689BB21800BD4604B080BD80B582B000AF786039603B68D9B2044A7B68D31823
:401940000A1C1A70C046BD4602B080BDB821002080B584B000AF78600F23FB1816497A688A1812781A70154B7A685200D15A144B7A685200D152134A7B68D31800221A704E
:40198000114A7B68D31800221A700F23FB181B780F22BA1812780D49895C0D4AD154074B7A685200D15A0B4B7A685200D152C046BD4604B080BDC046C04901008810002016
:4019C000901000209410002098100020B00C0020A0100020CC21002080B582B000AF78607B681800FFF736FCC046FFF7BBFC031EFBD17B681800FFF7ABFFC046BD4602B0DB
:401A000080BDC04680B582B000AF00237B6006E07B681800FFF7E0FF7B6801337B607B68002BF5D0C046BD4602B080BD90B587B000AF78600F23FB187D497A688A181278C0
:401A40001A700F23FB181A780E23FB1879498A5C1A701023FB18784A796849008A5A1A80764B1B78002B15D0754B7A685200D25A1023FC181023FB181B881100180000F012
:401A80005DF9030023806E4B7A685200102179180988D1527B68D9B2674A6A4B180000F063FF694B7A685200D35A1022BA1812889A4212D3654A7B68D31800221A70624B3F
:401AC0007A685200D25A1223FB181021791809888A1A1A8001237B610CE05B4B7A685200D15A1223FB181022BA1812888A1A1A8000237B617B69002B2AD10F23FB181B78B7
:401B0000534AD35C9BB21222BA1812889A421FD94E4A7B68D3181A784E497B68CB181B789A4209D37B681800FFF712FF474A7B68D31800221A7051E0444A7B68D3181B784B
:401B40000133D9B2414A7B68D3180A1C1A7045E00E23FB181B789BB21222BA1812889A420DD90F23FB181B78394AD35C9BB21222BA1812889A4231D27B69002B2ED1324B11
:401B80007A685200D35A1B02BB60334A7B68D3181B781A00BB681343BB601023FB181B88BA68D318BB60284B7A685200D35A1A00BB689B1ABB60BB681B0A99B2224B7A682C
:401BC0005200D152BB68D9B2234A7B68D3180A1C1A701E4A7B68D31800221A700E23FB181B789BB21222BA1812889A4217D97B69002B14D01223FB181B88FF2B05D9174A1E
:401C00007B68D318FF221A700EE01223FB181B88D9B2124A7B68D3180A1C1A7004E00F4A7B68D31800221A70C046BD4607B090BDC0490100C021002088100020A90C002091
:401C4000CC210020EC21002090100020C4210020C8210020A80C0020941000209810002080B582B000AF78607B68180000F06CF97B681800FFF7DAFEC046BD4602B080BDFD
:401C800080B582B000AF00237B6011E07A680C4B11001800FFF7CAFD03003B603B68002B03D07B681800FFF7DBFF7B6801337B607B68002BEAD0C046BD4602B080BDC0463E
:401CC0008C10002080B582B000AF7860034A7B68D3181B781800BD4602B080BD9810002080B584B000AF78600F23FB1800221A7001210E23FB180F22BA1812788A181A70BA
:401D00000F23FB1819780C4B01221800FFF7B0FD0F23FB181A780F23FB1801321A700F23FA180E23FB1812781B789A42E8D3C046BD4604B080BDC0468C10002080B584B05E
:401D400000AF0200BB1D1A803B1D0A1C1A80BB1D1A883B1D1B88D318FB603B1D1B885B00FA68D318FB60FB689B08FB60FB689BB21800BD4604B080BD80B500AF102000F04E
:401D80004BFC2D4B01221A602C4B1B78DBB21800FFF7D4FC2A4B1B78DBB25BB2002B08DA274B1B78DBB201229343DAB2244B1A703CE0224B1B78DBB21800FFF725FA0300BA
:401DC0001A001E4B1A701D4B1B78DBB2002B06D11A4B1B78DBB21800FFF7CAFB26E0184B1B78DBB201229343DAB2154B1A70144B1B78DBB21A004023134017D0114B002248
:401E00001A700FE00F4B1B781A000E4B1B7819000D4B595C0D4B99540A4B1B780133DAB2084B1A70074B1B78002BEBD0102000F0DDFBC046BD4680BD14002840871000200A
:401E400086100020A2100020A82100208C10002080B582B000AF334B01221A70314B01225A70304B01229A702E4B0C22DA802D4B2D4A9A802B4B2D4A9A6000F0A1F8002346
:401E80003B6007E02A4B3A6892002A49D1503B6801333B60234B5B781A003B689A42F1D800237B600CE0244A7B68D31804221A70224A7B68D31801221A707B6801337B609F
:401EC0007B68002BEFD000F089F81D4A154B1100180000F0A9FC134B180000F0B6FC194B01221A70164A0F4B1100180000F09CFC0C4B180000F0CAFC0A4B180000F088F889
:401F000000237B6006E07B68180000F01DF87B6801337B607B68002BF5D0C046BD4602B080BDC046EC210020CC040000304A0100A40C00200000FF0FAC210020BC210020BA
:401F40009A0D00008510002080B584B000AF7860164A7B68D3181B78FB600B23FB181449FA688A1812781A700B23FB181B785B08D9B2104AFB68D3180A1C1A700B23FB18E8
:401F80001B785B08D9B20C4AFB68D3180A1C1A700B23FB181B78DB08D9B2084AFB68D3180A1C1A70C046BD4604B080BDC0490100AC0C0020C0210020C8210020D0210020C3
:401FC00080B500AF044B044A126840218A431A60C046BD4680BDC0460400284080B582B000AF094B1B687B607B68084A13407B607B688022920013437B60034B7A681A6069
:40200000C046BD4602B080BD08002840FFFCFFFC80B584B000AF78600023FB6019E01C4AFB68D3181B785B08D9B21A4AFB68D3180A1C1A70164AFB68D3181B7801335B086C
:40204000D9B2134AFB68D3180A1C1A70FB680133FB607B681B781A00FB689A42DFD8102000F0DAFA0C4B1B68BB60BB680B4A1340BB60BB680A4A1343BB60074BBA681A605D
:40208000102000F0B3FAC046BD4604B080BDC046B0210020B421002008002840FFFCFFFC0002000180B582B000AF0200FB1D1A70064B064A126806491140FA1D1278920458
:4020C0000A431A60C046BD4602B080BD08020440FFFFE3FF80B584B000AF0200FB1D1A700F4B1B68DAB20F23FB1840218A431A70FB1D1B789B01DBB240221340D9B20F238B
:40210000FB180F22BA1812780A431A70044B0F22BA1812781A60C046BD4604B080BDC0460002044080B500AF044B1B68402213409B09DBB21800BD4680BDC0460402044048
:4021400080B582B000AF7860C046074B1B68002BFBDB054B7A68120204490A431A60C046BD4602B080BDC046000001404000008080B500AFC046054B1B68002BFBDB034B30
:40218000034A1A60C046BD4680BDC046000001404000004080B584B000AF0200BB1D1A807B1D0A1C1A700C4B1B6807221340FB60BB1D1B881A02FB681A437B1D1B78DB0069
:4021C000FF210B401343BB60034BBA681A60C046BD4604B080BDC0460003014080B582B000AF7860C046074B1B68002BFBDB054B7A68120204490A431A60C046BD4602B0F6
:4022000080BDC046000001404100008080B500AFC046054B1B68002BFBDB034B034A1A60C046BD4680BDC046000001404100004080B584B000AF0200BB1D1A807B1D0A1C2E
:402240001A700C4B1B6807221340FB60BB1D1B881A02FB681A437B1D1B78DB00FF210B401343BB60034BBA681A60C046BD4604B080BDC0460403014090B585B000AF7860B7
:402280000C23FC1800F0A9FA030023707B68022B00D8B3E07B68302B00D9AFE05E4B1B78DBB21A007B689A420AD35C4A0F23FB1812781A705A4A0E23FB1812781A703FE0F8
:4022C000584B1B78DBB21A007B689A420AD3564A0F23FB1812781A70544A0E23FB1812781A702DE0524B1B78DBB21A007B689A420AD3504A0F23FB1812781A704E4A0E233A
:40230000FB1812781A701BE04C4B1B78DBB21A007B689A420AD34A4A0F23FB1812781A70484A0E23FB1812781A7009E0464A0F23FB1812781A70454A0E23FB1812781A707E
:402340007B68DA1E0B23FB1841498A5C1A700B23FB181B782F2B0DD97B682A2B0AD93D4B19221A60052000F02FFA0D23FB1819221A7007E0374B1B68DAB20D23FB183F217A
:402380000A401A700B23FA180D23FB1812781B789A4208D22F4B7A68033A2D498A5C1A60052000F011FA7B68284A9A180A23FB1812781A70284B0A22BA1812781A60274B22
:4023C0000F22BA1812781A60254B0E22BA1812781A60052000F068F90B23FA180D23FB1812781B789A420CD91A4B7A68033A18498A5C1A60052000F0E7F902E0002000F05D
:4024000021F90C23FB181B78180000F0EAF9C046BD4605B090BDC04640F3FF0F41F3FF0F42F3FF0F43F3FF0F44F3FF0F45F3FF0F46F3FF0F47F3FF0F48F3FF0F49F3FF0FFA
:402440004AF3FF0F4BF3FF0F4CF3FF0F4DF3FF0F8C4A01002CFF0B4028FF0B401CFF0B4020FF0B4080B584B000AF78600023FB60154B154A126801210A431A60134B144A4F
:402480001A60144B134A1268802109020A431A607B68002B12D01023FB600CE0012000F003F900F019F8031E02D00023FB6005E07B68013B7B607B68002BEFD1FB681800E8
:4024C000BD4604B080BDC04660F02E4078002E400220000010002E4080B582B000AF054B1B68012213407B607B681800BD4602B080BDC0460C002E4080B584B000AF0200DD
:402500003960FB1D1A7080239B05FB60FB1D1B781F2B02D9002000F095F8FB1D1B7810339B00FA68D3181B68BB60FB1D1B7810339B00FA68D3183A681A60BB681800BD46B1
:4025400004B080BD90B587B000AF0200FB1D1A70BB1D0A1C1A70BB1D1B78032B02D9002000F070F8FB1D1B781F2B02D9002000F069F8FB1D1B7803221340DB0006337B61D3
:402580001323FC1800F029F903002370FB1D1B789B08DBB29B00144A944663441B68FB6003227B699A401300DA43FB681340FB60BB1D1A787B699A401300FA681343FB6084
:4025C000FB1D1B789B08DBB29B00074A94466344FA681A601323FB181B78180000F001F9C046BD4607B090BD00E400E080B582B000AF0200FB1D1A70064BFA1D12781F211C
:402600000A40012191400A001A60C046BD4602B080BDC04600E100E080B582B000AF0200FB1D1A70064BFA1D12781F210A40012191400A001A60C046BD4602B080BDC0466F
:4026400080E100E080B582B000AF0200FB1D1A7001BEC046BD4602B080BDC04680B582B000AF786009E00D4B1B68180000F0ACF87B680B4A944663447B607A6880231B020E
:402680009A42F0D8074B1B687A685343180000F09BF8C046BD4602B080BDC046C40C00200080FFFFBC0C002080B582B000AF0200BB1D1A80BB1D1B88044A127853431800AF
:4026C00000F082F8C046BD4602B080BDC00C002080B500AF0F4B0F4A126801218A431A600C4B0C4A126802218A431A600A4B0A4A126830218A4310210A431A60064B064AA7
:40270000126807218A4301210A431A60C046BD4680BDC04600F02E4000FF2E4080B500AF0F4B0F4A126802218A431A600D4B0D4A126807218A4302210A431A60094B094A00
:40274000126830218A4320210A431A60044B044A126801210A431A60C046BD4680BDC04600F02E4000FF2E4080B500AFFFF7B0FF044B044A1268802109060A431A60C04685
:40278000BD4680BD00F02E4080B584B000AF78600C4B1B6801221340FB607B68002B02D0012B03D005E0FFF793FF06E0FFF7B6FF03E00020FFF746FFC046FB681800BD4641
:4027C00004B080BD00F02E400230800803D00138FDD1C046C046C0467047EFF3108072B6704780F310887047F7B59C180023071C08268025019100922370237800982B4349
:402800002370BB689B6C9847019B984202D22378AB432370013E6D08002EEED12378F82B01D9F8232370F7BD70B5051C0E1C00242B789C4208D2AB68221C281C311C1B68A7
:40284000FFF7D2FF0134F3E770BD38B5051C00242B789C4219D2AA6813681B5DDB080F2B00D90F23D16BD268C95C1155AA68042B04D9936D906B211C012203E0936D906B32
:40288000211C002298470134E2E738BDF0B5041C002687B063789E4262D2A3685A6C925D0392002A01D1013203921A6C925D019201992278914251D29A689B69515C0F22A7
:4028C0001140B2000492002205910499019D5A50019B5B000293039B019A9B189D423DD2A768E388A0885843FB68595D00F074FB3B68595D00F0E6FA059B5843194B40007F
:402900005A2802D95B084008FAE7BA6904991B0C1B045350A36882085B6B01215855A368C008DB69029F5A550F22A36849421B6A5855A3685B6A5A55A368986AC1530021BA
:40294000D86AC153186B9B68C1535B19197801350A401A703B1C02330293BCE7013699E707B0F0BD0000FFFFF0B585684E002B6B925B9B191C8887B0141B0094AC6A1A8016
:40298000A45B6B6A0294EC6A5F5CA45B2B6A03946C6B7F00645C5B180494AC680193645C1B780594009CE40FA4460F24251C6744009C3D40AC46E51764196C409C4203D241
:4029C000012B05D0013B00E00133FF273F2B00D89F00019D2B7065460F2D29D0002D24D0BC4225D8059C029F24090094974200D9171C039D954200D2151C009A092A01D842
:402A0000141C01343A1C0A2C14D1EA1B934206D9049A92089A42924152429B1A00E001338268D26953543A1C04E0151C644601E0151C00246746836824015B6A5F5483688C
:402A40009F6ABA53DA6A9B6895530F225B181D782A401A7083689B6859180B781C430C7007B0F0BD80B582B000AF78600A00BB1C1A80BB1C1A887B681A60C046BD4602B0C9
:402A800080BDC04680B582B000AF78600A00BB1C1A80BB1C1A887B681A60C046BD4602B080BDC04680B584B000AF494B1B78DBB21B02484A1278D2B21343FB60464B1B7838
:402AC000DBB21B02454A1278D2B21343BB60BB68434A934207D1FB68072B04D1414BBB600423FB6009E0BA68D4231B019A4204D1FB68042B01D13B4BBB603B4BBA681A6038
:402B00003A4BFA681A603A4B1B78DBB21B02394A1278D2B21343FB60FA6880239B019A4202D0FB68002B01D1334BFB60334BFA681A60334B1B78DBB21B02324A1278D2B209
:402B40001343FB60FB68304A934206D0FB682F4A934202D0FB68052B01D12D4BFB602D4BFA681A602C4B1B681B097B602B4B1B68AA2B29D17B68012B26D9214B1B78DBB2B2
:402B80000E2B21D1264B1B78DBB29BB21B0299B2244B1B78DBB29AB2BB1C0A431A80224BBA1C12881A60214B1B78DBB29BB21B0299B21F4B1B78DBB29AB23B000A431A807B
:402BC0001C4B3A0012881A60C046BD4604B080BD59F1FF0F58F1FF0F5FF1FF0F5EF1FF0F580B0000580D00006C002E4074002E405BF1FF0F5AF1FF0F0220000078002E407D
:402C00005DF1FF0F5CF1FF0F0F0F000005050000050F000080002E40EC0F00F0E00F00F06DF2FF0F6CF2FF0F84002E406FF2FF0F6EF2FF0F94002E4080B582B000AF020027
:402C4000BB1D1A80BB1D1B881800FFF72DFDC046BD4602B080BDC04680B582B000AF78607B681800FFF7FAFCC046BD4602B080BD80B500AF00F0ECF8C046BD4680BDC04660
:402C800080B500AF00F0F0F8C046BD4680BDC04680B500AF00F0E8F8044B180000F0A2F8022000F0ADF8C046BD4680BDB52E000080B500AF034B180000F080F8C046BD46CC
:402CC00080BDC046B52E000080B500AF014B1800BD4680BD0202000080B582B000AF78602B231800BD4602B080BDC04680B582B000AF78602B231800BD4602B080BDC0468A
:402D000080B582B000AF78602B231800BD4602B080BDC04680B582B000AF78602B231800BD4602B080BDC04680B582B000AF78602B231800BD4602B080BDC04680B582B048
:402D400000AF78602B231800BD4602B080BDC04680B582B000AF78602B231800BD4602B080BDC04680B582B000AF78602B231800BD4602B080BDC04680B500AF2B2318008C
:402D8000BD4680BD80B582B000AF0200FB1D1A702B231800BD4602B080BDC04680B582B000AF786039602B231800BD4602B080BD80B500AFC046BD4680BDC04680B582B045
:402DC00000AF786000F050F87B68180000F00AF8022000F015F800F03BF8C046BD4602B080BDC04680B582B000AF7860034B7A681A67C046BD4602B080BDC046000000202A
:402E000090B585B000AF0200FB1D1A700623FB600B23FC18FFF7E1FC030023700B4B0B4A1268C0218A431100FA1D1078FA68904002000A431A600B23FB181B781800FFF736
:402E4000D0FCC046BD4605B090BDC0460CE400E080B500AF034B802252011A60C046BD4680BDC04600E100E080B500AF034B802252011A60C046BD4680BDC04680E100E0C9
:402E800090B583B000AFFC1DFFF7A7FC03002370074B074A126804218A431A6030BFFB1D1B781800FFF79DFCC046BD4603B090BD10ED00E080B500AF11F016FBC046BD46F4
:402EC00080BDC046002243088B4274D303098B425FD3030A8B4244D3030B8B4228D3030C8B420DD3FF22090212BA030C8B4202D31212090265D0030B8B4219D300E0090AB9
:402F0000C30B8B4201D3CB03C01A5241830B8B4201D38B03C01A5241430B8B4201D34B03C01A5241030B8B4201D30B03C01A5241C30A8B4201D3CB02C01A5241830A8B42E7
:402F400001D38B02C01A5241430A8B4201D34B02C01A5241030A8B4201D30B02C01A5241CDD2C3098B4201D3CB01C01A524183098B4201D38B01C01A524143098B4201D35B
:402F80004B01C01A524103098B4201D30B01C01A5241C3088B4201D3CB00C01A524183088B4201D38B00C01A524143088B4201D34B00C01A5241411A00D201465241104669
:402FC0007047FFE701B5002000F0F0F802BDC0460029F7D076E7704703460B437FD4002243088B4274D303098B425FD3030A8B4244D3030B8B4228D3030C8B420DD3FF22A3
:40300000090212BA030C8B4202D31212090265D0030B8B4219D300E0090AC30B8B4201D3CB03C01A5241830B8B4201D38B03C01A5241430B8B4201D34B03C01A5241030B5E
:403040008B4201D30B03C01A5241C30A8B4201D3CB02C01A5241830A8B4201D38B02C01A5241430A8B4201D34B02C01A5241030A8B4201D30B02C01A5241CDD2C3098B425C
:4030800001D3CB01C01A524183098B4201D38B01C01A524143098B4201D34B01C01A524103098B4201D30B01C01A5241C3088B4201D3CB00C01A524183088B4201D38B00B6
:4030C000C01A524143088B4201D34B00C01A5241411A00D201465241104670475DE0CA0F00D04942031000D34042534000229C4603098B422DD3030A8B4212D3FC228901FB
:4031000012BA030A8B420CD3890192118B4208D3890192118B4204D389013AD0921100E08909C3098B4201D3CB01C01A524183098B4201D38B01C01A524143098B4201D302
:403140004B01C01A524103098B4201D30B01C01A5241C3088B4201D3CB00C01A524183088B4201D38B00C01A5241D9D243088B4201D34B00C01A5241411A00D2014663463C
:4031800052415B10104601D34042002B00D54942704763465B1000D3404201B5002000F005F802BD0029F8D016E770477047C046014B18687047C046501000200E4B70B54F
:4031C00000251E000D4CE41AA410A54204D0AB00F35898470135F8E711F070FC084B00251E00084CE41AA410A54204D0AB00F35898470135F8E770BDC84A0100C84A0100DB
:40320000C84A0100D04A010030B50024A24208D0035D651C0C5DA34201D0181B02E02C00F4E7002030BD002310B59A4203D0CC5CC4540133F9E710BD03008218934202D076
:4032400019700133FAE77047134A1088810703D08107890F401A001D11791030484381B25088820703D08207920F801A001D800040180A494030098980B2CA0701D05030F4
:4032800080B2890706D504495422091F09785143081880B270470000D20C0020B010002010B501F005FF10BD10B501F007FF10BD10B500F055FA10BD10B5074904460978C9
:4032C0000220002907D1204601F048FF002802D120460AF091F910BD700E002070B504460120002C12D02368002B0FD0616800290CD0074D06222889208118462968FFF709
:4033000092FF6968606809780170002070BD0000B0100020FFB585B0002768460E9D07734F481C460078002802D0082009B0F0BD10990F9801900095029105A807C800F0F3
:4033400001F90028F2D16946264603AB84460873002C19D0002115E08A00B75A082F09D990198078002805D0083FB7521878401C187005E0002914D00027B7529019877057
:40338000491CC9B2A942E7D360460028CED10F98002809D0109901F03BFA002804D00120C4E701208446EFE701F088FE2D480021416081600599016021888180022D07D3DA
:4033C000A1798171A17AC171A1890181218A418100211EE0481C19E082008B00A75AE65ABE46BE4211D26F463E80B4461E190296B678BE7001967646E6521719029EBB7884
:40340000B3706646A652019EBE70401CA842E3D3491CA942DED3134822460C3000906846037B0799069800F015F90028B8D168460B4C007B60700B480C3001F06FFE0028EE
:40344000AED1084907480C3107F076F90028A7D107F090F90028A3D10121217066E70000CC0C0020A4100020F8B5054633480E460078002802D002242046F8BD002E5BD02F
:4034800000242F49002D16D02A89D0070DD02868002808D003881B3BE12B04D24088FB2801D81B2801D2012409E0900707D56868002804D1F7E70020088108604860002CB8
:4034C000DAD11F482F8907811C481B21801D018041800421017119490020891C0870F80705D016480622801D2968FFF79CFE1449B80703D56A681148127882700F480D4668
:40350000801D0860001F486001F04EFE0B48801D01F03CFE28890DF0B3F928890DF01AFB03461033FFF790FE1F21C018890140180249308088809FE701249DE7CC0C002016
:40354000B0100020FFB58446384F1C460020BB883F78054602460646002F11D100290ED0029999420BD36146002908D0002C06D00A99002906D02E4B0B99994202D2012066
:4035800004B0F0BD002144E0AB001F19BF78002F3BD0E35A002B38D07B43591889B22B0000F04AF8050410161C253100A7782388BC46FF27233BEB37BB4222D26346032BFF
:4035C0001FD322E0A388002B1FD0302B19D31CE02389002B19D0282B13D316E0A289002A13D01346134F233BBB420AD20DE0268A002A0AD033460F4F233BBB4201D29642B8
:4036000003D901200EE0002001E000280AD16D1CEDB2099B9D42B7D31C2463435B1802998B42ACD89642AAD8AAE70000CC0C002079020000BAFF000030B47446641E25784D
:40364000641CAB4200D21D46635D5B00E31830BC18470000FFB583B0002469460C801F4606468C80002806D00598002803D004983043800701D0012466E0002FFBD0344965
:40368000049809888842F6D3FFF712FBFFF7F8FA00F012FC002855D100F07AFD002851D12C49084601F0E8F805042D0C4AD12A480499066081800021C18007810C98007AF3
:4036C000C00704D0684601F012FD040007D10C98007A800703D501A801F012FD0446BF1DFEB2002C20D13146059800F05DF804001AD10DF03DFA040016D16A4610889288C3
:4037000008368518144AF1B29088D288AEB29319984207D3401B801A80B201F09DFB050007D000E0FF25012400F05EFA002D04D008E0F8B200F01CF9F6E700F081FA07494E
:403740000120087000F0CAFB204607B0F0BD0000D00C002095380000BC100020D80C002010B503480078012801D101F017FA10BDD80C002070B5084B0446DA889E880020B8
:403780005518B54206D81D68AA182260DA885118D98070BD032070BDBC1000200148008970470000BC100020F0B587B007460D4600208900009006916846FFF7DBFF844668
:4037C00000285DD1304800990160002117E02E4B88001A680629115406D22C4C0419667882185670628805E0C419203CA67A8218567022891B68C018491C4280C9B2A9420C
:40380000E5D300242DE0601CC2B2059025E01E4FA30039689600581840887118039604904E88B04217D938466F46FE80B6464F786E4677710297049F4F800168039F5E188C
:40384000767879184E700168764659184E800068029F18184770521CD2B2AA42D7D30598C4B2AC42CFD36046002809D168460699FFF780FF8446002802D10549009808600F
:40388000604607B0F0BD0000DC0C0020F04A0100E00C00207047000010B5002809D005494A68002A05D0011F08788000105801F081FA10BDDC0C002010B50446FFF76EFFF8
:4038C000C0B2801DA0420CD307484068002808D0A100405801F0E0F9002801D00470001D10BD002010BD0000DC0C0020F8B516460D460446FFF752FFC0B2801DA04203D2FF
:403900000020C0430090F8BDB2B2E9B2684601F0E9F90099481C03D0024AA000526811500098F8BDDC0C0020F8B50746FFF736FF801DC6B20A49002005460C680DE0617841
:40394000002907D06188B94202D32078FFF7B4FF002804D1241D6D1CEDB2B542EFD3F8BDDC0C002010B5002801D0FFF795FF10BD70B506460948002504680BE0617800291C
:4039800005D062882078121D0023FFF7AFFF241D6D1CEDB2B542F1D370BD0000DC0C0020FFB581B00A9F16000C4620D000F0F2F8054604281BD0002F0CD03846FFF7B4FF0D
:4039C00020492A0151184860002810D03A460499FFF729FC1B4928010E504618778101980570200406D47D20C000444304E0FF2005B0F0BD6404640C00F0BAF80746042859
:403A000007D000F04FFAA0420BD800F04BFA201A03E0204600F0AAFA0020F06035720020E6E700F03FFA009000F0B6FA00980121001B009000F0ECF802493A015118009848
:403A4000C860E6E7C8100020F8B5060116483418217A042903D0E068002802D017E00020F8BD00F01FFA054600F096FA00F0A0F804280CD001010C480F18F8680021451992
:403A800000F0C6F80020F860284600F06FFA6068054D002801D0FFF765FF042020720020A8516081E060DAE7C8100020FEB500266A46304601232549050169180D7A042D33
:403AC00002D0C96800291BD000211154401CC0B20428F0D300246846005D002830D01B48210108184189476805680291002101604160042241810272C160002E02D015E062
:403B00001354E3E700F054F804280ED001010F4808180190C6680021304600F079F801980021C160304600F021FA0126002D07D038460299A847002F02D03846FFF712FFC9
:403B4000641CE4B2042CC6D3FEBD0000C81000200EB5002005216A460090118150810348694600680DF069FE0EBD0000E40C0020074A0020010189180B7A042B02D0C9689B
:403B8000002903D0401CC0B20428F3D370470000C81000200549002002015218127A042A03D0401CC0B20428F6D37047C810002030B50A4B04200A4C00210A011219157A26
:403BC000042D06D0D268002A03D09A4201D808461346491CC9B20429EFD330BDFFFF0000C81000207047000030B50020074C05460423020111190B72A5504D60401C4D8182
:403C0000C0B2CD600428F4D330BD0000C810002030B5094C00231A011219157A042D04D0D568002906D02D18D5605B1CDBB2042BF1D330BD2D1AF7E7C81000200020704748
:403C40001CB5002469460C70142001902346054A05480DF0F7FD04480068401C00D1FF2420461CBDBD3C0000E40C00203EB5124A0146FF2000230124126800290DD0012976
:403C800014D0042908D104206946009308814B8110460DF0D2FD80B23EBD6846009304814381694610460DF0C3FDF4E768460093048143816946EBE7E40C002070B54589DB
:403CC0000468416800890300FFF7B6FC08280509091E22282628002005F0F0FB1EE0022908D0C8B22A4621460BF036FF2046FFF739FE13E002202A4621460BF02DFF2946E7
:403D0000204600F00DF809E000200DF095FA05E02046FFF7CBFE01E0FFF74AF8002070BD014B0022DB681847E80C002070B5448905680089022803D0032809D0FF2070BDCA
:403D40002246094C0023A46829460120A04708E0FFF7AAFA241DA2B200232946022006F09EFB002070BD0000E80C002070470000024800214160018041807047E80C002055
:403D800070B50C46002186B016460391012802D0022859D116E003A9012006F0D5FB01281BD1039D324621462846FFF73CFA0095287801900220694608814E816846FFF7AC
:403DC000B5FF41E0214D002B686809D0049004A9022006F0B9FB01281DD0022006B070BD002812D0298840182146FFF71CFA28880024801980B228806988091D884206D1FF
:403E00002C801348FFF792FF03E00320E6E788421AD96C6018E004986860E278A378110219430B4A698000231060E3565360032313815181A1788170E178C17061784170F1
:403E400021780170042028800020C7E7E80C0020081100203EB515460C46022803D004280CD000203EBD0091019002206946088107484A8100680DF0E0FC07E00BF06CFE6E
:403E8000044B0022DB6829462046984701203EBDE40C0020E80C0020014AD16090607047E80C0020034801688068081A0A214843000970471411002010B5FEF7E9FE48229F
:403EC00004490548FFF7AFF903490120C870002010BD00000C4B01001815002010B5FEF7C7FE10BD70B5134C2368002B08D0207B1149C20705D04008400020738868A08037
:403F000070BD88680B4AA18880B29268814203D90A4D691A091802E0814202D2411A5118A160A080A0689842EAD30DF0A3FC00F013F870BD14110020C0102E40FFFF0000DE
:403F400010B508461946FFF7A7FF10BD704710B5FFF780FF10BD000003480021016041608160C1607047000014110020024610B5FF20002A0CD0FFF7EFFF064C0321207B15
:403F80000843207310010A21FFF722F82060002010BD00001411002000B504480A21806848430209FFF7D8FF104600BD141100200248007B8007C00F70470000141100203F
:403FC00010B54B490868002802DA4A4B01221A70022290430860484800694549C00B4031096A0246C907C90F0A4259D0012000F097FA3F480E216C30FEF744FD3E482021C7
:404000008430FEF73FFD3C4814219C30FEF73AFD3948FF21C131A430FEF734FD3648FF212F31B030FEF72EFD33483449BC30FEF729FD31483249AC30FEF724FD30492E488B
:40404000491CB430FEF71EFD2B482E49B830FEF719FD29482C49CC30FEF714FD26482B490830FEF70FFD24482949A830FEF70AFD214828498830FEF705FD1F4826498C303A
:40408000FEF700FD1C481921C9029030FEF7FAFCFEF708FDFEF718FEC0B2022812D01FE000290BD0002101420AD0114801216030FEF7E8FC0120FEF7CFFD97E70121F2E7F7
:4040C000FF2010BD15491648FEF7DCFC14481549001DFEF7D7FC124800210830FEF7D2FC54200449C043891C0870002010BD000000F02E40F80C002000002E403203000043
:404100002F3F00003102000010520000EC160000FA12000031D000003AE300009956000080012E40F80F000070B50646581C80B245086D00002408E0304600F0C1F810550A
:40414000000A1119A41C4870A4B2AC42F4D3D80705D0D0182038D15CC47FD454C17770BD30B50A4C002100195B1E07E0541864782502545C2C430480891C89B29942F5DB25
:40418000994201D1515C018030BD000000102E4010B5FF2000F0C4F90F49FF2048700E481021801D41800121417001700A490020C91C4870FFF704FF04000AD100F010F9EF
:4041C00007210648FEF74EFC044807211830FEF749FC204610BD0000F80C0020CC112E4070B5002405465B1E0AE0284600F068F8010A161971702D1D1055A41CADB2A4B27E
:404200009C42F2DB9C4203D1284600F059F8105570BD000070B500210A4D5B1E0AE0541864782602545C344346193480001D891C80B289B29942F2DB994202D1515C4019AB
:40424000018070BD00102E40F0B50599091FCFB200217E1E0BE0541864782502545C2C43164D45192C80001D891C80B289B2B142F1DBFC0712D01C78515C24020F4A0C43A1
:4042800081180C809C785D78001D210280B2294384182180001D80B2D9780CE059781A7809021143054A84182180001DD9789B78090280B2194380180180F0BD00102E409D
:4042C000014940180088704700102E4010B50B490020487000F084F8002000F047F9002000F034F907210648FEF7BCFB044807211830FEF7B7FB002010BD0000FB0C0020DC
:40430000CC112E4010B50B46062812D006DC01280CD0032801D1FFF7D9FF10BD0A28FCD00B28FAD105480078107010BDFFF730FF10BD1146184600F035F910BDFE0C0020C3
:40434000F8B5244DAC6A0127A007234E002816DA307806280ED1286A384328621F480069F903084381B21D481030FEF78BFB042000F0D6F8174802212830FEF773FBE007F5
:4043800018D000F01DFF01280FD1002000F06AFF062000F0C5F81049FF20C91E48707078002802D1686B384368630A4801212830FEF758FBE0050BD53078042802D10520FC
:4043C00000F0AEF80348FF2101312830FEF74AFBF8BD000040F02E40FB0C002000002E4010B503212348FEF74DFB0120FEF724FC20483038406A204C80076178800F8900EB
:4044000001431C480C38FEF73DFB6078002808D0401E022181401820FEF7C4FEC000083800E0B82081B21548FEF72CFB1348032109021438FEF726FB10481149B830FEF77B
:4044400021FB612189010F48FEF71CFB0D480321001FFEF717FB0C490C48FEF713FB0B480B496038FEF70EFB084801218838FEF709FB10BD70F02E40FE0C0020D8102E40E3
:4044800090890000041E2E40FF0F000058122E40209000000849087806280BD148780749002803D1486B400840004863C86A01221043C86270470000FB0C002040F02E40A2
:4044C0000148007870470000FB0C002000B50300FFF7B2F8080D050D0B070507090D012000BD032000BD042000BD022000BDFF2000BD0000074A9168D26889B2064B92B2BC
:40450000994204D105498A4201D1012100E000210170704780002E4033D000003FE3000010B50446FEF7ACFB072C01D9FF2C01D102480470FEF79CFB10BD0000FB0C00208E
:404540000149487070470000F80C002010B5064A012805D01921C9021046FEF793FA10BD1D21C902F8E7000090002E4010B50A4A141D012808D009491046FEF783FA084905
:404580002046FEF77FFA10BD04491046891CFEF779FA0349491DF3E788002E4031D000003AE3000070B50C460546FEF78DFBC0B202280E49287804D0FF2810D04C280CD805
:4045C00010E0FF2809D10A4AD0680004800F032801D0087807E09069000A553803E00878207070BD4F382070087070BDFA0C002000002E40F0B50122002834D0002932D029
:404600000424420600D00524792342065B06D21800D0641C034600221EE00C2516466E43124D00277519AF72104F002ABB51696007D0661EB24209D10D4E86197606760E35
:4046400005E05E06760E8027BE1B00E080269B198919521C2E81D2B2A242DED303480549006B002288611046F0BD0000A013002079020000040D002018B500206946087036
:404680000A48006900280ED0132149014018047E684604704F21C900054800F059F8A04201D0012018BD002018BD0000040D002024110020074900200C2242435218927A3B
:4046C000012A05D0401CC0B20628F5D30020704701207047A0130020F8B50E000446154609D0194F19497868A04202D94018A04201D38D4201D90120F8BD31462046FEF775
:4047000083FD00281ED02A4631462046FEF78BFDE8B200210C224A43D21913895568EE18A6420BD90126641B1B1B9672834209DA1469C01A044AC0B220329676491CC9B2AC
:404740000629E7D30020F8BDA013002079020000034610B50020024604E09C5C2018521CC0B292B28A42F8D310BD000070B500F05FF8084C064A216907480D46FEF753FD9A
:4047800005492846FFF736FFFFF776FF207070BD79020000040D002024110020002070470020054A002902D0012902D002E0906000E0D06000207047040D002070B5084C49
:4047C000154608460549E26889182A46FEF72BFDE0684019E06028B270BD000024110020040D00203EB50A226946FFF7E7FF044606480A2200686946FEF706FD002802D065
:404800000020C0433EBD20463EBD0000080D0020002802D0044A914201D2FF20704703494A6108610020704779020000040D0020024800218160C16070470000040D0020C8
:4048400070B5074C15460548A26880182A46FFF743FFA0684019A06028B270BD24110020040D002010B503490A220968FFF7E8FF10BD0000080D002010B50F4A002313609F
:404880000E4A13600E4B18600E4801600E49012008600E490860000290600E490C4808600D4914300860FF381538506000F0BCF800F0CAF9002010BD380D0020200D0020D5
:4048C0004C0D0020500D00203C0D00202C0D0020E8140020300D0020440D0020014610B50020002910D0094B1A689C685118A14209D25868196080188A0704D08A07920F78
:40490000891A091D196010BD002010BD200D0020F8B50024164E671E321F3D463168136806E01422624310328A58521C1BD0641C9C42F6D36A1C14D02C4614225443224616
:404940000C3288500C214843FFF7C8FF3168002808510AD031680020103408517068401C70602846F8BD2546E4E73846F8BD0000300D0020F3B50026F64381B000281BDB1F
:404980001E490968884217D80299002914D01B4F142204463F1D54432546396810354859401C09D0FEF76CF938682F1F4159C359994203DBFEF75CF93046FEBD21460831E8
:4049C0000091465801590C20704308180C220299FEF729FC0948761C001D0068C159B14200D100260549009A091D865008684159491C4151FEF73CF90020FEBD2C0D00209D
:404A0000002803DB07490968884202D90020C043704704491422091D0968504310300858704700002C0D0020F0B500200D4A451E0346171F50600FE0142601467143146885
:404A40000E1DA3510C461668083433511668083435511468401C635039688842ECD30020F0BD0000300D0020F3B50026F64381B0002841DB2349096888423DD8029900296C
:404A80003AD0204F142204463F1D54432546396810354859401C2FD0FEF7F2F83868415900292BD0211D009146580C21005971430F46C1190C220298FEF7B5FB11480021C3
:404AC000001D0068761C00590C34C0190160416081600C48001D00680159B14200D100260849009A091D865008684159491E4151FEF7BEF80020FEBD3046FEBDFEF7B8F8E7
:404B0000FAE700002C0D0020FEB504460D4600201E49089E0860471E009001900290002C11D0486885420ED2002A0CD0002E0AD0642E08D808460C3001681C2068430C185C
:404B4000207A002801D03846FEBD0120226020721846FFF7DDFE6060401C13D06681A6810A4827610C3067610179A94200D205710021684601810A462846029B00F040F899
:404B80002846FEBD00202072DDE70000380D002038B50124009400F039F838BDFEB50027164EFF433D4600240EE01C20316860430818017A002906D04068FFF721FF002828
:404BC00001D0254603E0641C3079A042EDDA681C12D01C2130684D434419FEF751F869466068FFF741FF0546FEF742F8002DD9D1216868468847D5E7FEBD0000440D002072
:404C000038B50024009400F001F838BD1FB500220C49541E0A60002811DB496888420ED808491C220C31096850430818406801A9FFF7A0FE401C02D0002004B010BD20464A
:404C4000FBE70000380D0020F0B50021114A4D1E174611710C3F0B46BD6016E008461C2460431668041D355114680646235014680836A3551468361DA353044616680A34C5
:404C8000335318301468491C255078688142E5D30020F0BD440D002038B500210091002811DB0F49097888420DDA0D4D04010C3529680859002807D0201D0818694600F06D
:404CC0006FF9002801D0002038BDFDF7D9FF28680F34015D491E0155FDF7CAFF009838BD540D0020F7B582B0002502986E1E06602E48D21C024017462D4A2C4610460C38A4
:404D00000178106805E02301C358002B0FD0641CE4B28C42F7D3711C28D03401211D40180191039900F02AF900281FD101E02646F1E71F48016820460C300F521C48039905
:404D4000026820460E30115419480399026820460F3011540398784300F0A0F8144900280968085102D00024009011E001251AE00F48016801980818009900F02CF900283C
:404D800001D0012502E00098C0190090641CE4B203988442ECD3002D05D10298066004480179491C0171284605B0F0BDFCFF0000600D0020F8B50D4600216A468C461180B7
:404DC000002839DB23490978884235DA214B04010C3319680A59002A2ED020460C300B5A801C0E5C184670438018954224D3854222D2002006E007465F43BF18AF4206D023
:404E0000401CC0B2B042F6D36046002814D0114E271DC8190C366A46294600F006F900280AD168460088012808D030682946C01900F0D1F8002803D00120F8BD0020F8BDEA
:404E4000FDF71EFF30680F34015D491C0155FDF70FFFF3E7540D0020F8B50F46002400F031F8002817D10C4900220B460C334A600EE021011D680E466A501D680C36AA5369
:404E8000B61C1D680F31AA551D68641C6A54E4B2BC42EED31A71F8BD540D002000280BD0C01C074A81085068890053884118994203D8936851601818704700207047000035
:404EC000540D0020F8B5064600200F4D009029700C0121466846FEF74DFC00280CD129460C3100980860301B001F84B221466846FEF740FC002801D0FF20F8BD6C8000984B
:404F0000A8600020F8BD0000540D0020F8B5002827DB19490978884223DA174C05010C342168485900281CD028460C30085A009028460E300E5C401C0E5420682F1DC0198E
:404F400000F064F800280CD12068002445590EE0094829460C300068C01900F03CF8002801D00120F8BD00982D18641CE4B2B442EED30020F8BD0000540D002030B50D4640
:404F800004000BD0A800FFF789FF6060002805D000202570C0436080002030BD012030BD70B50D46040005D0002D03D00220205E002801DA012070BDFDF762FE0221615E04
:404FC00060688900405828606088401E6080FDF74FFE002070BD70B50D46040007D0002D05D002212078615E401E814201DB012070BDFDF745FE6088401C00B2608061689C
:4050000080000D50FDF734FE002070BD10B5040009D0227800216068FEF70EF90020C0436080002010BD012010BDF0B500231D46002802D00224045F0AE00120F0BD46680D
:405040009F00F6598E4201D1012503E05B1CDBB29C42F4DA15700020F0BD00000148007870470000680D00207CB505460024FEF71BF9A8796946087000A806222946013027
:40508000FEF7D1F80021684604F0DEFC0C2806D0072806D01F2806D0122806D006E0022404E0042402E0272400E0012420467CBD01480121417270472016002010B500F090
:4050C0005FF9FFF7FDF9FFF701FA10BD70B504460025FEF7E9F8002C06D0A079012803D8214602F07BFC00E00125284670BD01460120002902D05020088000207047000082
:4051000001460120002905D0034854220078504308800020704700006A0D002010B502460D49FE204870032410460CF0A9FE002810D10CF04DFE00280CD105F061FA002821
:4051400008D100F013FB002804D104F023FF002800D10024204610BD680D002070B50025044600280ED0A07901280BD8FEF79CF8A0790028204602D002F0D6FF03E002F003
:40518000ABFF00E00125284670BD0000014610B50120002904D006220248FEF744F8002010BD0000740D002001460120002903D00878024908700020704700006A0D002034
:4051C0000148007A704700002016002038B504460120002C20D0617801291DD800290BD0FF25E535FEF760F80C4828180088C0B22070072803D00EE0FF25CD35F2E70020B7
:40520000694608706846FFF775F969460878012801D108202070002038BD000000102E40014A002192681047680D002008B500226B461A7026280CD0094A342852680BD0E6
:40524000352805D1900703D50021352005F0B4FA08BD19462620F9E7D007F9D03420F5E7680D0020014908727047000020160020F8B504460120002C26D06178012902D9DB
:405280002278092A20D8002905D0FF25E5352078092803D004E0FF25CD35F8E708202070FEF702F82078114F114E08280DD00020FFF75CF970780128207810D00D49691892
:4052C0000880FE2070700020F8BD0120FFF74EF90720B8810549203188800120F2E7B8810248217820308180EBE70000C0112E40680D002000102E4070B50E46050001D014
:40530000002400E00C4C002C11D0E28A500609D5D107C90F022002F09BFFE08A40218843E08204E0D107C90F012002F091FF3146284602F079FC70BD80150020F8B50546B1
:40534000002004460D4E009013E022466946284600F0D6FF0098002801D00CF073FDA878214602F099FAA878214602F087FA641CE4B2308AA042E8D8F8BD00004C160020EF
:4053800038B51E4CFFF79CF8042813D0052811D0062812D003282AD007280AD100206946087002460120FEF7ADFFFFF789F80128FBD138BD00F077FB38BD02F0C3FA00F008
:4053C00072FB02F03FFB8007800F0228F4D10C4841880029F0D05B21095D0029ECD101210170A07D0140022002F032FF38BD02F0ADFA0120FFF794F838BD00008015002030
:405400008E0D0020F8B50646002402F08FFF0546304602F0A5FF03460A480021068A0DE001228A401046174628401F40002803D0002F01D1224394B2491CC9B28E42EFD8FF
:405440002046F8BD4C1600201CB50020694648706846FFF7BBFE01AA69460A20FEF752FF6946042008561CBD70B50D4601F028FB04000BD02079002808D0FDF715FFE178A1
:40548000A0782A4602F056FC002070BD022070BD0148007870470000581500204030C07E002800D00120704700B500F001F800BD902148430749084A40186030417F491CBB
:4054C000C9B24177D289914201D300214177C8B270470000601500204C16002013B501F0EFFA04000BD001F08CFE002807D0214601AA0A310620FEF705FF00201CBD0220D4
:405500001CBD000010B50C4601F0DAFA00280AD001F077FE002806D0224604490A20FEF7F1FE002010BD022010BD000041150020F3B581B0074601460026029802F0EEFE30
:405540000446002F01D0002500E0154D002D21D0284601F0EBFA032C04D13946029802F039FF06463846029902F088F9032C06D0002C10D00121384601F0DEFB03E0314624
:40558000384603F025F9284602F06CF80221284602F082F8FEBD3846029902F06FF9FEBD8015002010B5044600F066FA002804D103F0D8FD002801D00C2010BD2078611CD2
:4055C00002F0BAFCFF2801D01F2010BD02F000FDFF280AD02178621C02F0DEF8044821780068026B601C904710BD072010BD0000B40D002010B503F0B5FD002801D00C20F2
:4056000010BD02F07BFC03480068C06A8047002010BD0000B40D002070B50D46044610210CF050FB1021601806460CF04BFB334610221946204603F0C3FD102130460CF08B
:4056400041FB02202870204604F0DAFB70BD0000F8B504464078217802028006870FE0781143A67809050002090D0643084601F027FA00210546F2B2002812D0002C10D0B1
:40568000022F0ED0032F0CD0002A0AD00279092A07D0002A05D0134A5A23527E1B5C9A4207D82889002104F0E0FA20460CF0CAFBFF21002914D10C48224600682946436935
:4056C00030469847C0B2FF280AD128464030817EF2B2491C8176FF232146284600F0E3F8F8BD000018150020D00D00200020704710B5044603F036FD002801D00C2010BD45
:405700002078611C02F018FCFF2808D002F050FB044821780068426B601C904710BD1F2010BD0000B40D002010B500F06BF904F031FC002010BD10B5044600786178E2782A
:405740000843A17811430843217908436179084305D003F0F9FC002803D00C2010BD122010BD204602F0E0FC002010BD10B5FDF7ABFA02F0FDFD044803F060FD02F022FB56
:40578000012000F003F810BD28150020F1B586B003A8009005A8019028489F22817A114081726846FDF79AFD002845D169460989C90705D0224806990068C2686846904771
:4057C00069460989890706D5002835D11D480068816A0698884700282ED11B4E0025757075737571F575357675767575B570F570B5713746F5730120D03738731F20F88039
:40580000FF2130467972A0300176457600F0D0FA00242046069901F09FFC002803D1641C2406240EF5D0FD720749BD72B573C0310D704D704D600D7207B0F0BD18150020BB
:40584000D00D0020B40D00206015002070B505460E46084602F06AFD0446304602F080FD0121A9400A46224001400A4301D0012070BD002070BD10B50446084602F070FDA8
:405880000121A140014201D0012010BD002010BD10B5FEF715FE032804D102F057F80120FEF73EFE10BDFEB51C4616460F46054601F0D8FEA878FFF7F7FD02460190334695
:4058C00039460094284600F00DF8002808D1A8780199FFF711FDFF2C02D138460CF0B2FAFEBD0000FFB585B005460E980C46FF2810D02B49C00009680A5840180179C0794F
:405900005278814201D9012601E09006860F6846038108E06078A1788006860FE0780002014368460181284601F076FC070007D021462846079A00F077FC384609B0F0BD6D
:40594000304600F025FD04AE0346039002AA29460096204600F0B1FB3C20405D002818D0284601F059FC012813D0684600890096C0B20190A878231DFF22079902F008F9B1
:4059800068460089039BC2B2A878079902F048FCD3E7684600890021C0B20091E9E70000CC0D0020F8B5002600253046FFF72AFD07001DD090201149704340186030447FE3
:4059C00012E0601CFDF704FBCCB23846E040C007C00F07D02146304601F048FF21463046FFF7A6FD6D1CEDB20548018AA942E8D8761C3606360ED7D0F8BD00006015002084
:405A00004C16002010B502F0DDF90020FFF7BEFE0CF0AEFA002010BDF8B5002400F0B2F80123012800D10124104F00203E4620360425082203E0002801D0002100E0314646
:405A40000979002907D001290BD002290BD0114681402143CCB2401C0006000EEBD07C70F8BD1C43F7E72C43F5E700006015002010B5FFF7D1FF10BD10B5044604F0DCFB84
:405A8000002802D1601C00F001F810BD1CB500240094062269460194FDF7B6FB002800D1122420461CBD10B5FCF797FE0446FEF707FD012809D0FEF703FD022805D0FDF737
:405AC000DFF92046FCF78DFEEEE72046FCF789FE10BD10B50B4681791943817103D08078114602F06BFB10BD10B582798A43827102D1807802F076FB10BD000030B50C4C0B
:405B00000220A28A0B4B9978002901D0022906D11D785B78EB18282B01D9032002E0032900D101205105490DC0020143A18230BDC0112E40840D002000B500F029F8002859
:405B400007D0012805D0032801D0042801D0002000BD012000BD014600B50020C90701D000F010F800BD014600B50020C90701D000F008F800BD0000014800687047000058
:405B80007C0D002001480088000A704720102E400448008B410501D5042070474007800F7047000000102E4010B501F011FF044601F04EFF0146204601F032FF10BD000049
:405BC00001484068704700007C0D002038B50446000610D5FFF7DCFF01280CD1684601F0C5FE6846007800F023FB012001F0A2FD0220FFF73DFF600708D507480179012989
:405C000004D1002101712620FFF710FB0348006801692046884738BD880D0020B40D002070B505460C49007800240870FFF7AAFF012803D1FFF7B8FF022803D3284602F056
:405C4000DFF907E0284600F0EBF8040002D1034801210170204670BD840D00202016002070B50446FFF78EFF002801D00C2070BDA27B01211F48002A827801D00A4301E0C8
:405C80005208520082706279012A14D0C17849084900C170184D2868016820468847207901280CD06188208803F00EF82080207904280FD015E0C2780A43C270EAE728684A
:405CC000C168E01D8847E01D02F01AFA0B48808C208006E02868C168E01D8847E01D02F00FFA074920798870204602F097F9002070BD000060150020B40D00201815002071
:405D0000840D002008B50178FFF73CFF814201D10C2008BD002914D0072069460870FFF70BFF012807D10121684600F0D9F8012801D0092008BDFFF7E1FE02F0A3F901206C
:405D400011E0FFF7F9FE012806D1684601F00EFE6846007800F0A0FA02F08AF9FFF712FF0028FBD10220FFF783FE002008BD000070B505460C49007800244870FFF702FFEC
:405D8000012803D1FFF710FF022803D3284602F0F5F907E0284600F05DF8040002D1034801214170204670BD840D00202016002038B568460BF0DCFF002801D01F2038BDCC
:405DC00001210098C90201804180002505714571857107214173857302F020F9009C202200212046FDF728FA25702A460021601CFDF722FA204602F003F9204602F0BEF926
:405E000000980CF01FF8062200210448FDF714FA02480C388560002038BD0000880D0020F8B504460025684600950BF0A1FF002801D007250AE0064E009830602278611C47
:405E4000401CFDF7F0F93168207808702846F8BD7C0D0020F8B504460025684600950BF087FF002801D007250AE0064E009870602278611C401CFDF7D6F9716820780870AA
:405E80002846F8BD7C0D00200346084800B5834209D8184600F014FE002804D00089984201D1012000BD002000BD0000FF0E0000074A9179491C8906890E917138220A403D
:405EC00092014907090E1143084302490840704760150020FF0E0000C006C00E70470000F8B507460E4600240D4803E0002C01D0002500E005462979002905D0641C240691
:405F0000240EF3D00020F8BD0021204601F024F92E712046FFF7CCFF28813C700120F8BD8015002010B503F07FF90222002100F003F801F0F3FE10BD10B5094B400749079D
:405F4000000F090F185A595A40185043C0086421FDF73EF8002800D1012080B210BD0000544B0100F7B53D20405C88B015460C46002802D02878042802D200200BB0F0BD0E
:405F80006946087200262046FFF788FA012800D00126204603A938300191009023460327A17E34333246206A03F062F902A8089900900B46019120463A4603A9243003F0F8
:405FC000DFF802466846007A2870204601F0B0F81046D3E7FFB587B00C4605461078694608723D20005D1746002826D000262046FFF754FA012800D00126204603A93830DB
:40600000019100902346A17E34333246206A03F02FF902A80090291D019120462B1D03A924300A9A03F0ACF802006846007A388002D1204601F07CF810460BB0F0BDF0B554
:4060400005463C20405C89B016460C4600280CD0307869460873002806D000272046FFF71DFA012803D003E01F2009B0F0BD012703200890204604A938300191009023461B
:40608000E17E34333A46E06903F0F2F86846007B03A928180290009120462B46019504A92430089A03F0A0F802466846007B3070204601F047F81046D7E7FFB505463C208B
:4060C000405C89B016460C46002810D0084601F0A3F801280BD0308869468883002809D000272046FFF7DAF9012805D005E000200DB0F0BD0220FBE70127204603A938305B
:40610000019100902346E17E34333A46E06903F0AFF8291D2B1D07A8129A6D4607C5204603A924300C9A03F05FF802466846808B3080204601F006F81046D9E770B50D4659
:406140000446FFF7ABF901280AD0E87AA97A00020143A07801F0DEFC012808D0002070BD00222421204602F001FD242070BD28214C200155204600F0B1FB282070BD00008C
:40618000002801D0002000E003484030C07F012800D0002070470000801500200146002049070ED50021084B03E0002901D0002200E01A461279022A04D0491C0906090E04
:4061C000F3D0704701207047801500200146002049070ED50021084B03E0002901D0002200E01A461279022A04D0491C0906090EF3D07047012070478015002010B504461F
:4062000080346068002803D00BF030FE0020606010BD4030417070474030817070474030017070470171704792001018C166704770B53C2501F096F9040004D02046002163
:40624000433001F01BFCFF222946204600F0E2FB002C02D0A07801F007F970BD10B5002801D0002000E00348002802D0008903F043FD10BD8015002010B5002801D000208D
:4062800000E00448002804D00179072901D100F047F810BD8015002010B501F063F9002802D0807801F0E0F810BD00207047000070B50546008A00281ED01049F122897A99
:4062C0001140C90618D5294640314A8A098A521C4A4392B2D10800D10121540801E0621A94B2A042FBD9FEF7B9FE012804D1298AA878224601F0D4FC70BD0000181500206A
:4063000010B50023054C0B60248A944204D992001018C26E0A60C36610BD00004C16002038B5044600200090A079002814D14020015D052901D00E290ED168460BF028FDDE
:40634000002809D12046009902F0EEFB03481021C28A2046FFF7BDFB38BD00001815002010B50B4604460146184602F067F8002802D020460BF070FD10BD13B5044601AA7B
:4063800011460620FDF7BEFF6846818861811CBD002800D10220704770470000F8B504462346401D543300909A1EA078911E01F0F9FA25464035A88A298A8000FCF708FE3F
:4063C000401E81B2688A884203D96982A07801F079FF698A8C20015120460021433001F04DFB27480088E88102F01EFFE989891C8AB26179FFF7A0FD01F090FC02F014FF33
:406400002A8A6179FFF798FD074601F07BFC688A002806D01B49088A032212021043088202E0002001F042FF1648803801886E8A002E0CD0304648431349FCF7B3FE0004B8
:40644000000C01D0401C80B21049488002E00F4800214180288A704381B2A07801F09CFEFF2228374932B9B21346204602F030FCE98AA07801F010FEA07801F01FFAF8BD96
:4064800080102E40E0112E40710200008E0D00207FB504468034616805460E46183108226846FCF7C0FE31462031082202A8FCF7BAFE102168460BF005FC60681021083092
:4064C0000BF000FC60682B46083024331022694602F076FE7FBD10B504460821FFF704FB10212046FFF700FB207905281FD006281DD008281AD12189002003F075FB072066
:4065000020712046FEF7CAFF014620464030012913D00E21017000210176204600F0B6FF2046FFF76BFE2046FFF7C2FE10BD20890122002103F03CFBE1E70521EAE70000B5
:40654000FFB581B01F4604460821FFF7CDFA10212046FFF7C9FA2079082803D0092804D0042203E00422012501E009220025204600F03EFE264600204036307022712046FD
:40658000FFF73CFE0398002D02D0012808D00BE001280AD120890022029903F009FB04E02189029803F020FB012700203076012F04D0204600F06AFF05B0F0BD029830733E
:4065C000204602F0FFFA054605480121C28A2046FFF77FFA002DEFD109202071ECE700001815002070B50C460546FEF757FF012809D108212846FFF777FA002301222146ED
:406600002846FFF79DFF70BD10B5044600F0F0FD2046FFF7F3FD00214034217010BD70B505461A24FEF73AFF012809D108212846FFF75AFA0023012221462846FFF780FFB2
:4066400070BD0000F8B50446002000900E4668460BF09EFB002801D00D20F8BD8420005908212030009D00F026FA20460421383000F021FA002E02D1204600F0F5FD2946FC
:40668000204602F0E0F90E480821C28A2046FFF720FA204600F06BFF25464035002808D0204600F023F8002801D0092028700020F8BD08202870204600F0D4FFF7E7000001
:4066C00018150020014610B540310A460978082906D0092907D00A2901D100F091F810BD0B20107010BD00F001F810BD70B50446007925464035052805D0062803D008287B
:406700000FD00C2070BD03220621204602F02EFA0D480821C28A2046FFF7DBF91120287010E006202873204602F04CFA0646AA8A0A20424301212046FFF7CBF9002E01D1D2
:4067400009202071002070BD1815002038B504460020009068460BF01BFB002801D00D2038BD2046009D00F0BDF908202071204600F07AFD2946204602F098F900213D20FF
:4067800001550F2040210855204600F06BFF002038BD00B5024600F02BFD10214032117000BD10B50446FEF779FE012809D04020005D112805D100231A4606212046FFF77C
:4067C000BFFE10BD10B5FFF786FE10BD38B504460021684600910BF0DBFA00280CD12046009902F0E4F905480821C28A2046FFF770F90D204034207038BD000018150020CF
:4068000038B504460021684600910BF0C1FA002801D00D2038BD2046009902F0BDF905480821C28A2046FFF754F90C2040342070002038BD1815002000787047F8B500254B
:4068400069460D70002801D0002400E01F4C002C18D0204600F0D5FC002813D0207903280BD005280CD026464036B18AA07801F09DFCB078012806D01DE0042020711DE001
:4068800006202071F8BD0021204601F0F4FD274680373868002802D00BF0E8FA3D600020B0702079072802D12046FFF701FD0221204600F0F1FE20790428E3D1207A69466C
:4068C00008703420FEF7B2FCF8BD00008015002010B54C22115400F04CF810BD10B50446FF21FFF701F909202071A07801F084FC10BD000038B5FF216A461180002801D0B0
:40690000002400E0084C002C0DD011460620FDF7F9FC684601882046FFF72FFD03480068C1692046884738BD80150020D00D002010B504468079002809D022214C2001550A
:40694000FF212046FFF7D0F8204600F012F810BD10B5037902464032002B03D01173092B02D003E0002100E02221117300F001F810BDFEB504460089002700902781207944
:4069800026464036002817D0012815D002280AD112E002AA01A9204601F03EFD002807D101980BF059FA204601F05EFD0028F0D02046FEF7C3FCB776254680352868002859
:4069C00002D00BF053FA2F606868002802D00BF04DFA6F60317B002919D0009800F064F8A078002100F086FF2046FFF79BFAA07801F07AF8A07800F037FDFF212046FFF79F
:406A000073F80B20FFF734F800F068FCFEBD1F213173E2E7F8B517460E46054602F000FC04003CD020460C3001F018F82046062200211830FCF700FC2046062200211230C1
:406A4000FCF7FAFB1648224600683946436A28469847074626702846FEF720FD012148406070002D10D02889608028464030C1782171002E0FD169796171018AE180418AEA
:406A80002181808A608106E00648008BC005C00F2071002060803946204603F028F8F8BDB40D002000102E400A4610B50146002003F03AF910BD10B50AF0E0FE10BD000080
:406AC00000B50146FFF708FA002801D0002000E00348002802D002898A4200D0002000BD8015002038B5044680346068002806D168460BF05DF9002801D1009860606068E0
:406B000038BD000010B5014600F086FB0128887802D0FEF7CDFC10BD90214843024940186030007F10BD00006015002070B5054604464035A87F012811D1A1789020084A91
:406B4000484380186030067F3046FEF77FFE002805D10220A877A078314601F06FF870BD6015002010B50C4CA07A002813D0FEF719FF0A48027F417F408B00F0B7FB012895
:406B800009D10020A07200F007FF05498989090B01D000F03BFA10BD3016002060150020A0102E4070477047490510B5490F0B00FCF742FD060704080C0C0F073E21FFF7D1
:406BC00087FE10BD0821FFF7C3FE10BDFFF7D1FE10BDFFF7ADFE10BDF8B507460025002D01D0002600E0204E00F09AFE3046403044890021418100F09DFE304600F001FBFA
:406C000001282BD1A00702D52846FFF717FEE00602D52846FFF76EFEA00601D5FEF7C2FE600601D500F014FB200602D5284600F01DF8600702D5284600F02CFA380402D5FA
:406C40002846FFF719FB780402D52846FFF706FBE00703D021463046FFF7A6FF6D1C2D062D0EBCD0F8BD000080150020F8B5002801D0002400E0284C002C4BD02546403580
:406C8000A878012846D1FF278820493700593E46002805D02149897A890601D5878AC68A2046FEF7FBFB012834D002F0BDFA2A8A6179FFF741F9009001F024F80098334686
:406CC000283081B23A46204602F002F8E98AA07801F0E2F912480188688A124E002810D048431149FCF75EFA0004000C01D0401C80B27080A07DC107C90F002001F0A8FAA4
:406D000001E000207080288A698A484381B2A07801F042FAF8BD0000801500201815002060112E408E0D0020710200000149096809680847D00D002070B50D460026194A7D
:406D40000146002801D0002401E014462034002C26D0204600F060FA01280AD19020484380186030007FFEF771FD002801D101F0A9FE0D48006881692046884700280CD093
:406D800020464030817EA94202D3491B817600E086762089294602F068FF204600F062FC70BD000060150020D00D002070B503460088FFF785FE040013D000F022FA002899
:406DC0000FD02079092819D02546997840352973204601F0F7FE0646A878012803D0AA8A02E0022070BDEA880A20424301212046FEF76FFE002E01D109202071002070BD49
:406E00000EB5002217216B460292198100905A810120029B00990BF0C9F80EBDF8B518480024807A002822D1164E0025B089000B22E0204600F032FE1249A0394018078857
:406E40002A462146384600F051FA012810D00E480122478305770A4944778A72002D01D0002000E02030002801D000F0FBFBF8BDB089000B641CE4B20028DAD1F8BD0000EC
:406E800030160020A0102E406015002010B50088FFF716FE002809D0014640310C460978082905D00B2903D00C2010BD022010BDFFF71CFC002801D009202070002010BD34
:406EC00070B503460088FFF7FBFD040008D0254640352878082805D00B2803D00C2070BD022070BD8420005910220830991CFCF79AF92046FFF7CCFA2878082804D02046D1
:406F0000FFF77EFC002801D00A202870204600F0A9FB002070BD000010B50C46002121700088FFF7CDFD03000BD000F06AF9002807D00948F121807A0840C00603D411202B
:406F400010BD022010BD022020701A8A1889002102F006FF002010BD18150020F8B50F46002100910088FFF7ABFD040012D000F048F900280ED0E079410641D4617E022659
:406F80004A07002A08DB8907402500291ADA2843E07135E00220F8BD02F042F90021017021894180A1898180217E4170E189C1803E7005460178134802F0ACFB284602F0A3
:406FC00073FE1DE0204600F02DF9012806D068460AF0DEFE002803D00720F8BD2A20F8BDE07900992843E071204601F015FE607E0421304360760448C28A2046FEF769FD91
:407000000020F8BD1D040000181500203EB500220F236C460292238100910190628169460EC900200AF0C2FF3EBD0000F8B50F46054600F097FA040025D003202071254695
:4070400000264035EE76E6702046FFF7A7F901F00FF80920FEF70CFDA07800F033FD0121204600F019FB2E706E70AE703A4600212046FFF7CFFC0649887B401C8873A078B9
:40708000FFF754FEF8BD284601F0B6F8F8BD00006015002010B5002801D0002000E0094800280DD0014640310A464978022901D100215170807DC107C90F002001F0C8F852
:4070C00010BD00008015002070B503460D460088FFF7F6FC04000BD000F093F8002807D01248F121807A0840C00603D4112070BD022070BD20464030418A008A491C414378
:407100000804C10C5888884201D2122070BD20822079072802D12046FFF7CAF8022028702089002102F044FE002070BD18150020016A491C016204D1817E491C4906490EDB
:4071400081767047C169491CC16104D1C17E491C4906490EC1767047F0B5074687B003A8009005A800260D460190002F01D0002400E01B4C002C05D06846FCF7AFF80028AC
:4071800003D00BE0022007B0F0BD68460089C00704D1902200212046FCF74EF8114829460068826820469047050016D1A77066762746267140373E70204600F019F820461A
:4071C00001F04EF9084820820848BE77807AF121084000D001202075E682E8B2D3E7000080150020D00D0020B80B000018150020002101628176C161C17620300177417734
:4072000070470079002805D0012803D0022801D001207047002070474030807F002800D00120704740300078002807D0012805D0052803D00E2801D00120704700207047A1
