:020000041000EA
:4000000000400208230100100D00000085010010000000000000000000000000000000000000000000000000000000008101001000000000000000008101001081010010E9
:400040008101001081010010810100108101001081010010810100108101001081010010810100108101001081010010810100108101001081010010810100108101001060
:400080008101001081010010810100108101001081010010810100108101001081010010810100108101001081010010810100108101001081010010810100108101001020
:4000C00010B5064C2378002B07D1054B002B02D0044800E000BF0123237010BD3C06000800000000782E0010084B10B5002B03D00749084800E000BF07480368002B00D184
:4001000010BD064B002BFBD09847F9E70000000040060008782E0010E8000008000000007047FFF7FDFF72B60F4C104DAC4209DA21686268A368043B02DBC858D050FAE703
:400140000C34F3E70A490B4A0020521A02DD043A8850FCDC084809490860BFF34F8F00F005F900F01DF8FEE77C2E0010942E00103C060008140800080000000808ED00E01B
:40018000FEE7FEE700B504207146084202D0EFF3098001E0EFF30880043001F0D5FAFEE710B562B6014800F067F9FEE70000081010B5002001F044F810BDC04670B5624912
:4001C000E0239B00CB580F2213401A00D0329200525807210A40032A05D0042A06D0002A12D15A4814E05A4A106811E01A00C0329200554952581F210A40112A06D0132A7C
:4002000004D0FA20C00103E0524801E080200002002B36D14C4BB222D2009A5801211140B125ED005A59120F032422405B591B0F1C4207D0444C63591B0F03242340012BDC
:4002400002D102E0012300E00023002B01D0002901D1032A4BD13C4BB022D2009D58AD03AD0B3D495958C904C90C9C58240E01231C40013401F070FD6843210001F06CFDA2
:4002800035E0012B33D1304BC822D2009A5801251540C024E4001A59120F03210A401B591B0F194207D028490B591B0F03210B40012B02D102E0012300E00023002B01D049
:4002C000002D01D1032A12D11F4DC022D200AB587F210B40A958090A1F263140AC58240C3440584301F038FD210001F035FDE0239B00154AD3581B0903221340D840144C2E
:400300006060164B1D692D0AFC32154001351969090E013101F020FDA060290001F01CFD0500E06020610E4BC0180E4901F014FD20750D4BE818FA21890001F00DFDA0613D
:40034000C003E06170BDC0460000264000127A00C000000800366E0184050000000021403F420F0040420F00E703000010B5284801F0ECFC274CB022D200A3585B005B0814
:40038000A350E0218900635830208343635080235B04A350204A214BE250A02292010433E250FF221E4BE25001F0BEFCC0225200A35801218B43A35000F034FAFFF7FEFEF8
:4003C000B0235B055B78002B04D0B0235B055B78DBB200E02123212B03D1124B0022DA605A60114C22008021042000F0CFFC2000103000F063FD0D4B1A685123D35C002B57
:4004000002D00B4800F0D0FD00F098FB10BDC046C02D00100000264001000200840500008C050000E00023405806000810080008D01E00108023024AD358032018407047F1
:400440000000214010B501F010FA084980228C58074B2340074C23438B508823034AD358DB06FAD501F005FA10BDC04600002140FCFF00000100FA0570B50500830504D0C3
:40048000E821FF310F4801F031F901F0EEF90400FFF7D0FF032801D1FFF7D4FF0A4AB0239B00D55080215058084B03400848034353508823044AD358DB06FAD5200001F046
:4004C000D8F970BD041F001000002140FCFF00000300FA05FEE7C046F0B50025002711E0BB00C658F3B2FF22964308E06A008A181478A419527822700135013BDBB2002B65
:40050000F4D10137002FEBD0F0BDC0460323064A1360064A136080225201054B1A60054A054B1A607047C04608203140102031409402364001001180000E1F4110B50A00CB
:40054000002101F09EFC10BD10B501F091FC10BD30B587B0A249A022D2008B58032083438B50A04A116808688823CB58C31818689D49084018601368186884241B59C0181F
:4005800003681B021B0A80256D042B430360106805680359EB1818680140196013683E229A5C002A06D08E48E02189004258753CA24342503E229A5C002A06D08848E0210F
:4005C000890042583024A24342503E229B5C002B07D08349E02292008B588020000603438B500021012000F05DFE0021022000F059FE0021032000F055FE0021042000F0D7
:4006000051FE0021002000F04DFE01A8774903000A0032CA32C312CA12C300F071FE002802D00420FFF756FF6D49714A8B588020000603438B506F4800F01EFF002802D036
:400640000420FFF747FF664C6B4BE1586B4A0A40E250E1586A4A0A40E250E25880252D062A43E250043BE158664A0A40E250E158654A0A40802189010A43E250E2588021D3
:4006800009020A43E250614A1168614B0B40802149000B431360002001F028FB5D4BE2581543E550E158012291430A43E2506421002001F061F84B4B1B683F229A5C142AFB
:4006C00007D970229A5C01210A40C5210901986842509A6874215B5AD2185168424B0B40C02149010B4353603E4B1B6873229A5C0321914070229A5C7220185C14008440BF
:400700002143012002400A43802109060A438021C900986842509A6852583F229A5C162A06D97122995C6E3A8A403B49986842509A687A201B5AD2181368FF210B40374919
:400740000B43136027490A689468135AE3181A687E3082431A600B687322995C703A100088407021595C72241C5DA14001437120185C82400A43802109060A438021C9008F
:40078000986842509A6852583F229A5C332A03D90021234A986881509A6874215B5AD2181168114B0B40FE2109020B4313600D4B1A687323D15C703B8B4019007023D35CDD
:4007C0007220105C83400B43802109060B438021C9009068435093685B5807B030BDC0460000264010080008FF00FFFF1C1F0010087F0000400D030004050000FEFCFFFFF9
:40080000FFFF00FFFFF0FFFFFF8FFFFF00002740FFFCFFFF0C050000580C0000001FA107CC0C000070B58AB09621002000F0A4FF00F07AFF002814D100F066FFC0235B00FC
:40084000564AD358DB0705D41100554A8B585B005B088B505149524A8B588020000603438B50012001F0DAF94E4A516C4E4B0B40E82189010B435364536C1B0AFF221340D8
:400880003A2B07D1474A516C484B0B40E82189010B435364FFF75CFE454A464B1A6000240CE0620012195300434AD318198B9A8AD88A00041043FFF741FE01340B2CF0D9FA
:4008C00000240AE06200121993003B4AD3185A6E196ED86DFFF738FE0134112CF2D9374D2900343128003830FFF7F6FD344A1368812149000B43136001AC22002B003C33C4
:4009000043CB43C243CB43C243CB43C221002D4800F01CF922002B00603323CB23C223CB23C223CB23C22100274800F00FF924220021200001F0A5FA862301932100234822
:4009400000F004F9224D22002B1D43CB43C243CB43C243CB43C221001E4800F0F7F822002B00283343CB43C243CB43C243CB43C22100194800F0EAF822002B004C3323CB23
:4009800023C223CB23C223CB23C22100134800F0DDF8FFF7BBFD0AB070BDC046000026400C05000000002740FF00FFFFFFC5FFDF0300FA05F00121401C1F00101C20001068
:4009C000007934408000324000033240800332409C200010000432408005324080063240214B984230D00ED8402831D004D800281FD010282AD031E080282BD080235B0011
:400A0000984229D02AE0194B984229D007D8A0231B0698420DD0164B984212D01EE0154B98420AD0144B984209D0144B984215D101E0002016E0124814E0124812E01248DD
:400A400010E0A020C0030DE007480BE00F4809E00F4807E00F4805E0034803E00E4801E0A420C0037047C04606005200010000F0090000A0040000F0050000F0030000F0AB
:400A8000010052000200520003005200010050000200500005005200FF00520070B5124B1A683123D35C002B04D1C421FF310F4800F01CFE0C4B1D682C00B423EB582A6A3C
:400AC000944663441B68002B0BDB094B1868FFF787FF6B6801229A6063689B68002BFBD100E0044870BDC046100800083C2A0010E80700080200500010B50D4B18610028E0
:400B000005D002230370FD33437000234380094B1B6850229A5C002A08D051229B5C002B04D04F3A0449002000F0F8FA10BDC046E8070008100800086101000810B502489A
:400B40001430FFF7D9FF10BDE807000870B505000C0000285DD000295DD0FF230A689A4303D099212D4800F0C1FDFF2322699A4303D09A21294800F0B9FDA3685B0D03D028
:400B80009B21264800F0B2FD63685B0A03D09C21224800F0ABFDE3695B0F03D09D211F4800F0A4FD236A5B0F03D09E211B4800F09DFD1B4A11688B69EB1ADB0949691B016C
:400BC000CB18216829607D211068415C6918E06808607E211068415C6918206908607F211068415C6918606908607C211068415C6918A06808606168A961116880228A5C18
:400C0000AD18A2692A60E2691A60226A5A60002002E0044800E0034870BDC0467C2A00101008000801005A0070B504000D000A4B1A68B423D3581B181B68002B0ADA0B0C87
:400C400003D00649064800F051FD2D042D0C6560002000E0034870BD10080008D5020000FC2A001001008A0070B505000C000368002B01DA002300E0084B002B0BD1EA6019
:400C8000230C03D00649074800F030FD2404240CAC60002000E0014870BDC04601008A00BB020000FC2A001070B505000C1E03D19921084800F01AFD074B1A68B423D3580A
:400CC0005B191B68002B03DAEB682360002000E0024870BD3C2B00101008000801008A0070B504000D00234B1A683123D35C834236D9002936D00B68DB0635D13123D35CFD
:400D0000984204D3C421FF311B4800F0EFFC194B1B681A6AB0215B5A5C431419174E34602B68DA080021686801F0ABF800212000FFF77AFF3468002D03D111490E4800F012
:400D4000D5FC2A0000212000FFF78EFF00280DD10A4B18680021FFF767FF002808D108E0084806E0074804E0064802E0064800E0054870BD10080008FC2A001000080008CC
:400D80009303000003018A0001018A0010B50400002A17D1002915D1124B1A683123D35C984204D3C421FF310F4800F09FFC0D4B1B681A6AB0215B5A5C4314190B4B1C600C
:400DC00000200EE0002A09D0002909D0074B59609A60191D2000FFF783FF02E0044800E0034810BD10080008FC2A00100008000803018A00F0B583B00D001C4B1B68DC68E0
:400E0000236883422DD947097B01C01A012383401E00002903D100F028FD019001E000230193124B18680368002B01DA002300E00F4B002B0ED16368BF00DF193B68334227
:400E400003D0B3433B60002400E00A4C0021FFF7EBFE00E0084C002D04D1019800F009FD00E0064C200003B0F0BDC0460008000801008A00020188000301880004018A00F6
:400E80000A4B1B68DA68136883420BD943095901401A0121814052689B009B580B4203D0034802E0034800E003487047000800080101880004018A0000018800034B1B68CC
:400EC000002B01D1014B18607047C0460C080008F0B5474680B404000F0090461E002D4B1B68002B03D1B5212B4800F0FFFB294B1B682C2060431C18FF2215003540256074
:400F0000330A13406360360CA660244B1A683123D35C9D4204D3C421FF31214800F0E6FB1E4B1A68B023D35A6B43116A8C466344236166683223D35C9E4204D3E021FF3152
:400F4000174800F0D3FB154B1B681D6A80367601AD196561A668330C04D0FF214900104800F0C4FB330C03D00E490D4800F0BEFB3604330C1E43AE604346E36127620023D8
:400F8000A361069B002B02D000229B5EA38104BC9046F0BD0C0800087C2B001010080008FC2A0010FF010000F0B58FB0041E03D15221294800F09AFB6368032B03D9542157
:400FC000254800F093FBE36A002B03D15821224800F08CFB236B002B03D159211E4800F085FB07AA1300210061C961C321C921C302AD290023001433C1CBC1C141CB41C124
:401000000821535E0CAE3380144B1B6836215B5E07998C466344B370089B0D930B9B0A980096A26AE16AFFF753FF2B69E868002200920021FFF74CFF216B300000F0E8FAF3
:401040000023F25E002A05DB1F231A401E3B9340034A13600FB0F0BD7C2B00101008000800E100E0F8B505000F0016001C00002A03D1FD21224800F039FB224B1B68002BAF
:4010800003D1FE211E4800F031FB1E4B1B682C2128004843181879435918012213004D68AB401B044568AA4015000269002A20D08F69002F1FD11268002A01DA002200E0B4
:4010C000114A002A19D132681204120C134333600369DE6001238B614C6204692B0C03D00A490B4800F002FB2A04120CA260002004E0084802E0084800E00748F8BDC0469A
:401100007C2B00100C08000801008A00BB020000FC2A001004028A0007028A0070B504000D0016000F4B1B68002B04D1AF2149000D4800F0DBFA0B4B1B682C2060431C18E3
:40114000236A002B04D1B1214900074800F0CEFAE369B34204D9236AB6009D51002000E0024870BD0C0800087C2B00100A028A0070B582B0040000230193002804D1D2218F
:40118000FF312D4800F0B2FA2369002B04D1E9214900294800F0AAFA6369002B04D1D421FF31254800F0A2FA236A002B04D1EA214900214800F09AFA6269D5682B0C24D01F
:4011C0001B041360136820691C4B1A68B423D358C3181B68002B18DA01A9FFF765FD00280ED1019803681E0CFF221340E269934207D29B00226AD358002B02D0984700E041
:40120000002631002069FFF70FFD2D042D0C0FD063691D601B68636A002B03D098470023636203E0A36A002B00D098470023A36163691B6802B070BD7C2B0010100800082F
:4012400010B50400084B1B68002B04D1B221FF31064800F04BFA044B1B682C2060431818FFF786FF10BDC0460C0800087C2B001010B50400094B1B689B6CC340DB0703D4D4
:40128000BE21074800F032FA044B1B681B691034A402E3580F20184010BDC04610080008BC2B0010134B1A683C23D35C83421DD9042904D94B1EFF3B9BB2132B18D8FF297F
:4012C0000CD91F2319400C4A0300C0339B009950D03080000423835000200AE007231940D0308000044BC150002002E0034800E002487047100800080000264001004A00B8
:4013000070B5041E03D14A494A4800F0EFF9B023DB00494AD358002B00DA87E0474B22689A4203D94649434800F0E0F923689B039B0BE279002A02D08022520400E00022E6
:401340001343B022D2003C498B50A2883D4B9A4204D98C218900374800F0C8F922893A4B9A4203D93949334800F0C0F9A388DB04D90C23891B04364A13400B43354A2E49E3
:401380008B50A37A0F2B04D98E218900294800F0ADF9E37A0F2B03D92F49264800F0A6F9A289284B9A4203D92C49224800F09EF9A37A0F211940E27A1201FF2313400B4363
:4013C000A289120226490A401343A27B1207C02189050A401343B122D20017498B50A379042B03D91F49134800F080F9228A164B9A4204D9912189000E4800F077F90E481A
:4014000019494558194B1D40A3791B02E022D20013402B4343504558154B1D40238A1B040B4A13402B434350002000E0114870BD1F020000FC2B001000002640FFFF030077
:4014400029020000FF1F0000FF010000310200000000FF0184050000390200003A02000000FF1F00430200008C050000FFF8FFFFFFFF00FE03004A0070B505003149324A9E
:401480008B588020000603438B502C0003E0012000F020F9013CB223DB002A4AD3585B0701D4002CF3D12749B122D2008858274B03408020800503438B50002D01D0002C7C
:4014C0000CD02049B022D2008B588020000603438B5003E0012000F0FDF8013CB223DB00184AD358DB0701D4002CF3D1002D01D0002C08D01349B122D2008B58C020800504
:4015000003438B5013E00F4BB121C90058580F4A02408020800502435A5008395A58520052085A5008495A58520052085A50002D03D0002C03D0002002E0002000E0044854
:4015400070BDC046000026408C050000FFFFFFCF02004A0070B505000C001A4B1B6828229A5C012A15D1820807211000884327D19200AD1AED00FF20A8401B6820339A1860
:401580001168AC4023004B40184004004C40146016E03A229B5EDBB2994203D176210A4800F0A4F8074B1B681B68072215408022120615438022920194466444A400E55048
:4015C00070BDC04610080008842C001070B504000D000B4B9A680B4B9A420CD1002904D13821FF31084800F081F81034054BA400E058E55003E01034A400044BE05870BDD7
:4016000000ED00E000000008842C001000000010F0B5474680B482B0061E01914AD04368032B03D93221264800F060F80023F05E002804DBB178FFF78DFF002400E0214C4B
:401640000023F15E7368002912DB88081E4FC0308000C55903221140C900FC3290468A4095439A01434613408B402B43C35116E089B20F220A40083A920806329200134826
:401680001018476803221140C900FF252A008A4097439A012B0013408B403B4343600B4B9A680B4B9A4206D10023F05E0199FFF78DFF00E0034C200002B004BC9046F0BDEB
:4016C000842C00100100560000E100E000ED00E00000000810B5034B1B78584300F0BCF810BDC046D400000801BEFEE770B50D00044C18220100200000F0CBFBA56100204C
:40170000FFF7F2FF00060008054B802212069A649B6C002B01DB002000E002487047C0460000274003004600054B8022120198585B68FF221A4202D08023DB02184370474E
:4017400000002640FEE7C04610B50A4B0268DA6142681A6282685A62C2689A620269DA6242691A6382695A63C2699A63FFF7EAFF10BDC04600060008F0B5474680B400287A
:4017800001D0192300E064238B429B415B42304D2C682268A826A45BA41822680327BA433B401A4322602C682268A45BA2181668284CA046264016602C682668AA229446ED
:4017C000A25A96193268BA43134333602A6813686546525BD3181A68444614401C60002805D010291BD921291BD8012024E0184B1B6855229A5C914215D956229A5C9142B1
:4018000013D957229A5C914211D958229A5C91420FD959229B5C99420DD804200CE000200AE0022008E0002006E0012004E0022002E0032000E00520054A126852681368DA
:401840000F218B430343136004BC9046F0BDC04610080008FFFCFFFF0230800803D001300238FCD1C046C0467047EFF3108072B6704780F31088704710B5B0235B059B8998
:401880009BB2002B04D0B0235B059B899BB201E080235B0080225200934215D1184C23681968683A9B58C9180B680F208343963A13430B6021680C689C23CB58E318196870
:4018C00081430A431A6019E00D4C2368196898229B58C918B02040050A4BC2580A4B13400A681343C022920013430B60226811689C23D358CB18054A82581A6010BDC04602
:401900001008000848180000FFFCFFFF4418000030B5B0235B059B899BB2002B04D0B0235B059B899BB201E080235B0080225200934215D1184C23681968683A9B58C91832
:401940000B680F208343953A13430B6021680C689C23CB58E318196881430A431A6019E00D4D2B68196898229B58C918B0246405C12040012258094B13400A681343C0226A
:40198000920013430B602A6811689C23D358CB1822581A6030BDC04610080008FFFCFFFFB0235B059B899BB2002B04D0B0235B059B899BB201E080235B008022520093420D
:4019C0000DD1104B1B681A6898215B58D21811680D4B0B40C021C9010B43136011E0094B1B68196898229B58C918084BB0225205D258074B13400A681343C0229200134317
:401A00000B60704710080008FF8FFFFF18180000FFFCFFFF30B5B0235B059B899BB2002B04D0B0235B059B899BB201E080235B008022520093420DD1134B1B681A689821E1
:401A40005B58D2181168114B0B408021C9010B43136018E00C4D2B68196898229B58C918B02464050A4822580A4B13400A681343C022920013430B602A6811689C23D358E7
:401A8000CB1822581A6030BD10080008FF8FFFFF4C180000FFFCFFFF10B5B0235B059B899BB2002B04D0B0235B059B899BB201E080235B0080225200934217D10020FFF7A7
:401AC000D7FBB0235B055B78002B04D0B0235B055B78DBB200E02123222B03D8002803D1013004E0012002E0002000E0012010BDF8B50700012803D93D493E48FFF7F6FD80
:401B0000B0235B055B78002B04D0B0235B055B78DBB200E021239DB2B0235B059B899BB2002B04D0B0235B059E89B6B201E0802676000020FFF79CFB002814D180235B0080
:401B40009E4212D1222D12D82B4B1B685C682B4821582B4B19403B068022520413400B432350002404E0274C02E0264C00E0254C80235B009E4201D1222D03D880235B00AC
:401B80009E4232D01C4B1A683123D35C002B04D1C421FF311C48FFF7A9FD174B1B681D6A80235B009E4203D1002F05D0174A06E0002F03D0164A02E0164A00E0164A012153
:401BC0002800FFF751F800280FD10B4B1A68B423D3585B191B68002BF7DBEB681B0E1B06A0221206934200D100242000F8BDC0464C0A0000C82C00101008000818F000000A
:401C0000FFFFFFFE040042003C2A0010010100300300000C010000300100000CF8B50500012804D9822109012948FFF75FFDFFF733FF002849D0FFF718FE0700002D11D1BB
:401C40000021244B244AD150E823DB00B0225205D65CF6B20120FFF74BFF041E19D1FFF70BFE16E0B02252051C4BD0581A4B194958501B49565CF6B21A481A581F218A4334
:401C800014390A431A500320FFF724FDFFF7C2FE0024002C15D11049124A8B581F20834306401E438E50002D02D1FFF779FE08E00720FFF70FFDFFF72BFE0020FFF718FF0E
:401CC00004003800FFF7D5FD00E0074C2000F8BDC82C0010307F00000000264010180000410700001CFF000003004200042805D10B4A116804230B4313600FE0094B1A6872
:401D00001168A023D358CB180006C022920410401860034A136804218B4313607047C04610E000E0100800080749C02252008B589B009B088020C00503438B508B5880208A
:401D4000000603438B50704700002640014B18607047C04610080008002243088B4274D303098B425FD3030A8B4244D3030B8B4228D3030C8B420DD3FF22090212BA030C68
:401D80008B4202D31212090265D0030B8B4219D300E0090AC30B8B4201D3CB03C01A5241830B8B4201D38B03C01A5241430B8B4201D34B03C01A5241030B8B4201D30B0328
:401DC000C01A5241C30A8B4201D3CB02C01A5241830A8B4201D38B02C01A5241430A8B4201D34B02C01A5241030A8B4201D30B02C01A5241CDD2C3098B4201D3CB01C01A24
:401E0000524183098B4201D38B01C01A524143098B4201D34B01C01A524103098B4201D30B01C01A5241C3088B4201D3CB00C01A524183088B4201D38B00C01A524143080A
:401E40008B4201D34B00C01A5241411A00D20146524110467047FFE701B5002000F006F802BDC0460029F7D076E770477047C046002310B59A4203D0CC5CC4540133F9E7DA
:401E800010BD03008218934202D019700133FAE77047030030B5002A0DD00C7801335D1E013A2C700131002CF5D19A189A4202D01C700133FAE730BDF8B5C046F8BC08BC86
:401EC0009E467047F8B5C046F8BC08BC9E4670470300000001000000010000000000000005036000040000000100000000000000010000000604600008000000C8070008C5
:401F0000B101001073797374656D5F70736F63365F636D30706C75732E630000F4010000140004010A00090508000000630100000020344074008020344074000022344084
:401F40007400802234407400002434407400802434407400002634407400802634407400002834407400802834407400002A34407400802A34407400002134400C21001019
:401F800090000000002334409C21001090000000002534402C2200109000000000273440BC22001090000000002934404C23001090000000002B3440DC2300109000000013
:401FC000006034406C2400107C00000080603440E82400107C00000000613440642500107C00000080613440E02500107C000000006234405C2600107C00000080623440FB
:40200000D82600107C00000000633440542700107C00000080633440D02700107C000000006434404C2800107C00000080643440C82800107C00000000653440442900105C
:402040007C00000080653440C02900107C000000680C6C51027034402300000000000000000000006000600000000000000000000000000000030000000300000000000016
:402080000000000000000000000000BA0000000000000000000000000000000000001D1DFE0000000000000000000000000000000000000000000000000000000004040026
:4020C0000000000002000000000000000000000060000000000000000000000000000000000800000000000080000000000000000000000000000060000000000000000096
:40210000000000000000000000000008000000000000000000000000FFFFFFFFFFFFFFFFFFFFFFFFFFFFFFFFFFFFFFFFFF000000FFFFFFFFFFFFFFFFFFFFFFFFFFFFFFFFBC
:40214000FFFFFFFFFF000000000000000000000000000000000000000000000000000000FFFFFFFFFFFFFFFFFFFFFFFF11111111111111111111111111111111111111111C
:4021800011111111111111111111111111111111111111111111111111111111000000000000000000000000FFFFFFFFFFFFFFFFFFFFFFFFFFFFFFFFFFFFFFFFFF00000058
:4021C000FFFFFFFFFFFFFFFFFFFFFFFFFFFFFFFFFFFFFFFFFF000000000000000000000000000000000000000000000000000000FFFFFFFFFFFFFFFFFFFFFFFF11111111BC
:402200001111111111111111111111111111111111111111111111111111111111111111111111111111111111111111000000000000000000000000FFFFFFFFFFFFFFFFBA
:40224000FFFFFFFFFFFFFFFFFFFFFFFFFF000000FFFFFFFFFFFFFFFFFFFFFFFFFFFFFFFFFFFFFFFFFF00000000000000000000000000000000000000000000000000000080
:40228000FFFFFFFFFFFFFFFFFFFFFFFF11111111111111111111111111111111111111111111111111111111111111111111111111111111111111111111111100000000FA
:4022C0000000000000000000FFFFFFFFFFFFFFFFFFFFFFFFFFFFFFFFFFFFFFFFFF000000FFFFFFFFFFFFFFFFFFFFFFFFFFFFFFFFFFFFFFFFFF000000000000000000000008
:4023000000000000000000000000000000000000FFFFFFFFFFFFFFFFFFFFFFFF11111111111111111111111111111111111111111111111111111111111111111111111145
:40234000111111111111111111111111000000000000000000000000FFFFFFFFFFFFFFFFFFFFFFFFFFFFFFFFFFFFFFFFFF000000FFFFFFFFFFFFFFFFFFFFFFFFFFFFFFFFB6
:40238000FFFFFFFFFF000000000000000000000000000000000000000000000000000000FFFFFFFFFFFFFFFFFFFFFFFF1111111111111111111111111111111111111111DA
:4023C00011111111111111111111111111111111111111111111111111111111000000000000000000000000FFFFFFFFFFFFFFFFFFFFFFFFFFFFFFFFFFFFFFFFFF00000016
:40240000FFFFFFFFFFFFFFFFFFFFFFFFFFFFFFFFFFFFFFFFFF000000000000000000000000000000000000000000000000000000FFFFFFFFFFFFFFFFFFFFFFFF1111111179
:40244000111111111111111111111111111111111111111111111111111111111111111111111111111111111111111100000000000000001F1F1F1F1F1F1F1F1F1F1F1FFC
:402480001F1F1F1F1F1F1F1F1F1F1F1F1F1F1F1F1F1F1F1F000000000000000000000000000000000000000000000000FFFFFFFFFFFFFFFFFFFFFFFF111111111111111134
:4024C0001311111111111111111111111111111111111111111111111111111111111111111111111111111100000000000000001F1F1F1F1F1F1F1F1F1F1F1F1F1F1F1F42
:402500001F1F1F11101F1F1F1F1F1F1F1F1F1F1F000000000000000000000000000000000000000000000000FFFFFFFFFFFFFFFFFFFFFFFF1F1111111111111110111111FB
:4025400011111111111111111111111111111111111111111111111111111111111111111111111100000000000000001F1F1F1F1F1F1F1F1F1F1F1F1F1F1F1F1F1F1F1F8B
:402580001F1F1F1F1F1F1F1F1F1F1F1F000000000000000000000000000000000000000000000000FFFFFFFFFFFFFFFFFFFFFFFF13111111111111111111111111111111A1
:4025C000111111111111111111111111111111111111111111111111111111111111111100000000000000001F1F1F1F1F1F1F1F1F1F1F1F1F1F1F1F1F1F1F1F1F1F1F1FD3
:402600001F1F1F1F1F1F1F1F000000000000000000000000000000000000000000000000FFFFFFFFFFFFFFFFFFFFFFFF11111111111111111111111111111111111111115A
:402640001111111111111111111111111111111111111111111111111111111100000000000000001F1F1F1F1F1F1F1F1F1F1F1F1F1F1F1F1F1F1F1F1F1F1F1F1F1F1F1F1A
:402680001F1F1F1F000000000000000000000000000000000000000000000000FFFFFFFFFFFFFFFFFFFFFFFF11111111111111111111111111111111111111111111111112
:4026C00011111111111111111111111111111111111111111111111100000000000000001F1F1F1F1F1F1F1F1F1F1F1F1F1F1F1F1F1F1F1F1F1F1F1F1F1F1F1F1F1F1F1F62
:40270000000000000000000000000000000000000000000000000000FFFFFFFFFFFFFFFFFFFFFFFF11111111111111111111111111111111111111111111111111111111C9
:40274000111111111111111111111111111111111111111100000000000000001F1F1F1F1F1F1F1F1F1F1F1F1F1F1F1F1F1F1F1F1F1F1F1F1F1F1F1F1F1F1F1F0000000025
:402780000000000000000000000000000000000000000000FFFFFFFFFFFFFFFFFFFFFFFF111111111111111111111111111111111111111111111111111111111111111105
:4027C0001111111111111111111111111111111100000000000000001F1F1F1F1F1F1F1F1F1F1F1F1F1F1F1F1F1F1F1F1F1F1F1F1F1F1F1F1F1F1F1F0000000000000000E9
:4028000000000000000000000000000000000000FFFFFFFFFFFFFFFFFFFFFFFF11111111111111111111111111111111111111111111111111111111111111111111111140
:4028400011111111111111111111111100000000000000001F1F1F1F1F1F1F1F1F1F1F1F1F1F1F1F1F1F1F1F1F1F1F1F1F1F1F1F1F1F1F1F000000000000000000000000AC
:40288000000000000000000000000000FFFFFFFFFFFFFFFFFFFFFFFF111111111111111111111111111111111111111111111111111111111111111111111111111111117C
:4028C000111111111111111100000000000000001F1F1F1F1F1F1F1F1F1F1F1F1F1F1F1F1F1F1F1F1F1F1F1F1F1F1F1F1F1F1F1F0000000000000000000000000000000070
:402900000000000000000000FFFFFFFFFFFFFFFFFFFFFFFF1111111111111111111111111111111111111111111111111111111111111111111111111111111111111111B7
:402940001111111100000000000000001F1F1F1F1F1F1F1F1F1F1F1F1F1F1F1F1F1F1F1F1F1F1F1F1F1F1F1F1F1F1F1F000000000000000000000000000000000000000033
:4029800000000000FFFFFFFFFFFFFFFFFFFFFFFF111111111111111111111111111111111111111111111111111111111111111111111111111111111111111111111111F3
:4029C00000000000000000001F1F1F1F1F1F1F1F1F1F1F1F1F1F1F1F1F1F1F1F1F1F1F1F1F1F1F1F1F1F1F1F000000000000000000000000000000000000000000000000F7
:402A0000FFFFFFFFFFFFFFFFFFFFFFFF11111111111111111111111111111111111111111111111111111111111111111111111111111111111111111111111147656E65F3
:402A400072617465645F536F757263655C50536F43365C70646C5C647269766572732F7065726970686572616C2F6970632F63795F6970635F6472762E68000047656E656C
:402A800072617465645F536F757263655C50536F43365C70646C5C647269766572735C7065726970686572616C5C6770696F5C63795F6770696F2E630000000047656E656F
:402AC00072617465645F536F757263655C50536F43365C70646C5C647269766572735C7065726970686572616C5C6770696F5C63795F6770696F2E680000000047656E652A
:402B000072617465645F536F757263655C50536F43365C70646C5C647269766572735C7065726970686572616C5C6970635C63795F6970635F6472762E68000047656E6524
:402B400072617465645F536F757263655C50536F43365C70646C5C647269766572735C7065726970686572616C5C6970635C63795F6970635F6472762E63000047656E65E9
:402B800072617465645F536F757263655C50536F43365C70646C5C647269766572735C7065726970686572616C5C6970635C63795F6970635F706970652E630047656E6547
:402BC00072617465645F536F757263655C50536F43365C70646C5C647269766572735C7065726970686572616C5C70726F745C63795F70726F742E630000000047656E6502
:402C000072617465645F536F757263655C50536F43365C70646C5C647269766572735C7065726970686572616C5C737973636C6B5C63795F737973636C6B2E630000000098
:402C400047656E6572617465645F536F757263655C50536F43365C70646C5C647269766572735C7065726970686572616C5C737973636C6B5C63795F737973636C6B2E68D4
:402C80000000000047656E6572617465645F536F757263655C50536F43365C70646C5C647269766572735C7065726970686572616C5C737973696E745C63795F73797369EA
:402CC0006E742E630000000047656E6572617465645F536F757263655C50536F43365C70646C5C647269766572735C7065726970686572616C5C737973706D5C63795F73FA
:402D00007973706D2E6300000000204000002440000000400000000000002340000030400000314000009F40000022400000104002020202020202020210101D800017007A
:402D40007500FF030602063604102000000000007FC0000000040000000000000019324B647D00804000080B100000000000FF012002001F00800004FF08101800100014AF
:402D80000018001C4044484C50000000081000000800000004000000041000000012000004210000002100000016000040114002C41300138013A013200000001C000000D2
:402DC0000000214000002540000001400000344000002440000031400000324000001F410000234000001140010101010101010101101010800019005500F0000501053BA0
:402E000004101C01010000000FC000000004000001010101011D3A57789600082000101208000000001F00000010000F002000023F06080E00080009000A000B24282C30F1
:402E400034000000100000009000000088000000080000008000000004F0000000F00000400200002005A000D00100018001A001200000001000000000000000000000104F
:402E800000000008C00000009C2E0010C0000008400500003C060008D80100000048E80100127A0000093D0000093D0000093D0004000000A00F00000000D007E90000102E
:402EC000C10000100000000010B50004400B27D0144B1A68146AB023D15ACA00531AE3181B68002BF4DA3E220F4B1A600F4A104B1A60104B0621A322D20099500E4A985047
:402F00009B58084B1A68106AB023D15ACA00531AC31800225A60084B064AD358002BFADA10BDC04610080008040126401E1F000008012640000026401C05000010B5437885
:402F4000FF2B20D100F00AFA04000F4B1A683123D35C042B04D8C421FF310C4800F016FA094B1A68116AB023D35A9B00CB18DB685A68116801230B4313601368DB07FCD40C
:402F8000200000F0FBF910BD100800083C2A0010F0B585B001900291544B1A683123D35C002B04D1C421FF31514800F0EFF94F4B1B681E6AB4229A58971950229B5C002BD1
:402FC00077D000F0F3F9050003283CD1474B1A683123D35C062B04D8C421FF31444800F0D5F9424B1968B023CB5A5A00D21853000A6A94466344B4228A58D3181B68002B8B
:4030000023DB002000F0CAF93A4B98421FD03A4B1A6900230021012000F0D8F9002803D0364C17E0013400E00024002000F0B6F9304B984202D0324B9C42F3D9304B9C4230
:4030400007D92E4C06E0002404E02C4C02E02B4C00E00024002C46D100F080F90390294B294AD358002B13DA234A0121300000F0A5F900280ED10298FFF726FF019B002BFA
:403080000AD03B68002BFCDB00F060F9040004E01A4C02E0194C00E01C4C032D05D10121002000F063F90028F9D1039800F066F919E000F053F905000F4A0121300000F026
:4030C0007DF9002809D1019B002B08D03B68002BFCDB00F03BF9040002E0084C00E00B4C280000F04BF9200005B0F0BD100800083C2A001001018800E80700080500520033
:40310000EF4902001C0500000000264001005000F0B54F464646C0B4824B1A685468B0235B055B78002B04D0B0235B055B78DBB200E02123212B67D1B023D15ACB005B1ABA
:40314000116A8C46634419680029F5DADD6802212943D960B023D15ACB005B1A116A8C466344D968C9073ED5D9680904090C8C4684271168D559A84641440968090A0904F4
:40318000FF26360431400D0088261168894691598846C14449460968090A0906294365462943D9601168D359C9180A685E4B98461A4090252D012A430A605A4B99461A6808
:4031C00013689C46925962441368414619400B002B4313604B461A681568D15969180B689359EB181B684F4B1A68B021555AEB005B1B156AAC46634400255D60156A515A59
:40320000CA00531AEB185B68484A116904230B431361012801D030BF00E020BF414B1A68B023D15ACB005B1A116A8C46634419680029F3DAB02149054978002904D0B0218F
:4032400049054978C9B200E02121212932D1D968C90722D510688421525880180468324A1440DB681B0C1B02FF2109020B40234303602C4B19688823C8580B689C46604430
:4032800003681A400D6AB023CC5AE1000B1BEB18DB681B0E1B021A430260224B1A68106AB023D15ACA00531AC318DA6802218A43DA6028E086235B00E358002B23D11C48D8
:4032C00007681C4BA321C9005E581B4A904615681A4A0260062058503E21424611600631174A9950164B134AD358002BFADA154A86235B00E2500E4B1F60A323DB000D4A43
:40330000D6500D4B1D60074B1A68106AB023D15ACA00531AC31800225A600CBC90469946F0BDC04610080008FF00FFFF00ED00E00801264000002640040126401E1F0000C1
:403340001C050000AAAAAAAA0000000001B40248844601BC604700BF9D0A001001B40248844601BC604700BF6B18001001B40248844601BC604700BFF50D001001B4024865
:40338000844601BC604700BF7318001001B40248844601BC604700BFED16001001B40248844601BC604700BF810E001001B40248844601BC604700BF3504001001B40248C7
:4033C000844601BC604700BF690C001001B40248844601BC604700BF65100010000000000000000000000000000000000000000000000000000000000000000000000000EA
:020000041008E2
:4000000000780408EB0208100D00000051030810510308105103081051030810000000000000000000000000000000004D0308104D030810000000004D0308104D030810DA
:400040004D0308104D0308104D0308104D0308104D0308104D0308104D0308104D0308104D0308104D0308104D0308104D0308104D0308104D0308104D0308104D03081000
:400080004D0308104D0308104D0308104D0308104D0308104D0308104D0308104D0308104D0308104D0308104D0308104D0308104D0308104D0308104D0308104D030810C0
:4000C0004D0308104D0308104D0308104D0308104D0308104D0308104D0308104D0308104D0308104D0308104D0308104D0308104D0308104D0308104D0308104D03081080
:400100004D0308104D0308104D0308104D0308104D0308104D0308104D0308104D0308104D0308104D0308104D0308104D0308104D0308104D0308104D0308104D0308103F
:400140004D0308104D0308104D0308104D0308104D0308104D0308104D0308104D0308104D0308104D0308104D0308104D0308104D0308104D0308104D0308104D030810FF
:400180004D0308104D0308104D0308104D0308104D0308104D0308104D0308104D0308104D0308104D0308104D0308104D0308104D0308104D0308104D0308104D030810BF
:4001C0004D0308104D0308104D0308104D0308104D0308104D0308104D0308104D0308104D0308104D0308104D0308104D0308104D0308104D0308104D0308104D0308107F
:400200004D0308104D0308104D0308104D0308104D0308104D0308104D0308104D0308104D0308104D0308104D0308104D0308104D0308104D0308104D0308104D0308103E
:400240004D0308104D0308104D0308104D0308104D0308104D0308104D0308104D0308104D0308104D0308104D0308104D0308104D0308104D0308104D0308104D030810FE
:400280004D0308104D0308104D03081010B5054C237833B9044B13B10448AFF300800123237010BD4C4902080000000048400810084B10B51BB108490848AFF3008008482E
:4002C000036803B910BD074B002BFBD0BDE81040184700BF0000000050490208484008101C430208000000007047FFF7FDFF72B6104C114DAC4209DA21686268A368043B0A
:40030000A2BFC858D050FAE70C34F3E70B490C4A00209142BCBF41F8040BFAE709480A490860BFF34F8F00F07DF900F057F900F063F8FEE74C400810644008104C4902086F
:40034000244E02080040020808ED00E0FEE7FEE700B504207146084202D0EFF3098001E0EFF30880043003F0E1F8FEE708B500F047FE002839D100F099F9002000F002FC1D
:40038000642803DC1A4BC3F84C0103E00022184BC3F84C21012000F0E1FB58B12022154B9A60802203F5C0639A600022104BC3F8CC211AE0022000F0D1FB58B120220D4BEC
:4003C0005A60802203F5C0639A606422084BC3F8CC210AE02022074B5A60802203F5C0635A600022024BC3F8CC2100F079FEBEE7000038408000324008B562B602F0A8FB65
:4004000002F0BEFB0A4B0022C3F8CC21C3F84C21084A202353608021074B59600223936002F5A062936000F023F9FFF79FFF00BF00003840800032408006324008B5012033
:4004400002F0E4FF08BD00BF704700BF5C4AD2F8803303F00F0303F1D00152F8212002F00702032A04D0042A05D092B9554914E0554A116811E003F1C002514951F8222075
:4004800002F01F02112A06D0132A04D04FF4FA4103E04E4901E04FF400418BBB484BD3F8902502F00100D3F88825C2F30172D3F8883513F0405F07D0414BD3F88835C3F3F3
:4004C0000173012B02D102E0012300E0002303B108B9032A46D13A48D0F88025C2F31103D0F88425C2F30C02D0F88005C0F300600130B1FBF2F202FB03F2B2FBF0F131E029
:40050000012B2FD12E4BD3F8402602F00100D3F80026C2F30172D3F8003613F0405F07D0274BD3F80036C3F30173012B02D102E0012300E0002303B108B9032A12D12048CD
:40054000D0F8002602F07F02D0F80036C3F30423D0F80006C0F3044002FB01F2B2FBF3F2B2FBF0F1164BD3F88033C3F3011321FA03F215494A601648D0F89030C3F30723E3
:4005800001330069000E0130B2FBF0F08860B2FBF3F3CB600B6103F5742202F23F220D48A0FB0202C2F387420A7503F2E7330A4AA2FB03239B098B61DB03CB61704700BFB6
:4005C0000000264000127A008C42020800366E010000214083DE1B43D34D621008B50D4803F0BCF8FFF730FFFFF730FF00221146042002F0D3FC084802F066FD074B1B68FF
:4006000093F8513013B1064802F0CEFD02F094FB08BD00BF903F081068490208B84D0208D839081008B502F0DCFF074AD2F8883043F47003C2F88830BFF34F8FBFF36F8F47
:4006400002F0D3FF08BD00BF00ED00E008B5074B1B7833B900F036FA00F0B0FA0122034B1A7000F05DF800F09FFF08BDE84A020810B5FFF7EBFF044610B900F09DFE0446C1
:4006800014B900F019FE044614B900F029FD044600F0B6FC0028FBD100F06AFB00F0DCFA0CB902F03DFA204610BD00BF70B5194D0026344629E063090433174A52F8233089
:4006C00004F01F02D34013F0010F1CD0EB7E012B02D0022B09D011E0284600F0ADF806462946204600F0B4F90DE0284600F080F806462946204600F013F904E04FF4B87184
:40070000064802F003FF2C350134022CD3D9304670BD00BF783A0810A44C0208143A081070B500230AE01D4A191D02EB8100002444604FF0FF3042F821000133002BF2D08C
:40074000174C032325E06668A27E144B2B4400211976012A03D0D2B1032A07D917E02069A8B1228BF17903F00FF910E023690BB1F2791A706168002307E003F1080201EB1C
:4007800042024FF6FF7090800133002BF5D02C342B465D1E002BD6D170BD00BFA44C0208783A081010B582B004460846638802A921F8083D1346228A03F06EF8BDF8003079
:4007C00063809DF8023023719DF8033063719DF80430A37102B010BD30B40B884A889C1A0025CD800079844200DDCC8030BC70472DE9F843C5688468038B4768867E4FF05D
:40080000000911E032462146284600F009FB32462146384600F01AFB814621463846FFF7DBFF0A340A35434603F1FF38002BE9D14846BDE8F88300BF2DE9F04F83B08146CD
:40084000837E062B02D14FF0010B01E04FF0000BD9F80C80D9F80840D9F804709A46D9F824600025019520E052462146404600F0D7FA3246398A208803F036F82A46314621
:400880003846FFF78FFF0C3652462146384600F0DDFA019021463846FFF79EFF0A34BBF1000F01D108F10A080135B9F818309D42DAD3019803B0BDE8F08F00BFF0B50C8BAB
:4008C0008D684F680A69012324E010EA030403D17E88B979314402E07988BE79891BEE88B14201D3002100E01946A14202D01678013E1670A14201D014783CB920EA03008A
:40090000084309B9F97900E0012111705B000A350132744604F1FF3E002CD6D1F0BD00BF38B504468A7E154B03441D7E012A04D12846FFF7C3FF054604E04FF438711048A3
:4009400002F0E4FD0D4B23441D76620904F01F04012303FA04F445B90432084B03EB8202536823EA0404546038BD0432034B03EB820253681C43546038BD00BFA44C0208D3
:40098000403A0810F0B583B00B8B8A684D68D1F810E0844618B96F88A879074402E06888AF79C71B0024012009E0D3889F4201D3002300E003461C430A32400033465E1EA3
:4009C000002BF2D154B19EF8003013B1013B8EF800309EF8003023B1644602E0EB798EF800305CB10E466A88AB790F8BD21A3946B06801F0E7FF034610B923E0002321E0A4
:400A0000B27E022A1ED100233A46316A01A802F045F8034600220AE002A901EB420131F8040C02F1080105EB4101888001329342F2D807E003F1080205EB42024FF6FF7117
:400A400091800133002BF5D0204603B0F0BD00BF38B504468A7E194B03441D7E012A03D062B1032A05D909E02846FFF727FF054609E02846FFF786FF054604E040F22641C3
:400A80000F4802F043FD0D4B23441D76620904F01F04012303FA04F445B90432074B03EB8202536823EA0404546038BD0432034B03EB820253681C43546038BDA44C02089C
:400AC000403A0810F8B5234F4FF486720021384602F05AFF47F218033B804FF410637B8041F66A03BB800A23BB830423BB774FF0010E87F81FE0184E07F1200406F18C05E7
:400B00000FCD0FC40FCD0FC40FCD0FC495E80F0007C42380C7F8FCE0562206F1CC0107F1A40002F026FF304606F1080403230CE0A268238B04E010F8013B53720A320B4667
:400B4000591E002BF7D12C342B465D1E002BEFD1F8BD00BFA44C0208703A081002280DD800F01F02012303FA02F24009031D044800EB83035B6802EA030070470020704709
:400B8000A44C0208022810D82C230B4A03FB002393F82230023BDBB2012B09D82C22064B02FB0030C368988A70474FF6FF7070474FF6FF70704700BF703A08100023024A1A
:400BC000D380024A13607047A44C0208804B0208C9B2062902D083180021197130F8121000EB42035980024400231372704700BF70B506460D46012305E0224629463046CA
:400C0000FFF7E6FF23465C1E002BF6D170BD00BF08B52C23054A03FB0023986801EB81014A00997E1044FFF7E3FF08BD783A081038B505462C23074A03FB00231B8B04E08F
:400C400021462846FFF7E4FF23465C1E002BF7D138BD00BF783A081010B5032303E02046FFF7E6FF23465C1E002BF8D110BD00BF70B401230DE0D3B2062B09D031F814609F
:400C8000A30023445D004319465331F814505D8023465C1E002BEED170BC704770B4012410E0D4B2062C0CD031F813609D001D446C000444A68031F81350E58031F8135000
:400CC00025811C46631E002CEBD170BC704700BF2DE9F04F83B082462C231E4A03FB00235A6801921B8B2FE02C231A4A03FB0A23D3F808B004EB840257000BEB0709D8683C
:400D000080465D6A04EB44018A0015449E7E062E01D000EB0708324649464046FFF7A8FF324649464046FFF7B9FF2C23094A03FB0A23DB7E012B06D12A46019B198A3BF884
:400D4000070002F0C5FD23465C1E002BCCD103B0BDE8F08F783A081010B5032303E02046FFF7B6FF23465C1E002BF8D110BD00BF08B5FFF7F1FF08BDF0B4012319E0D3B27C
:400D8000062B15D031F81460A70027447B0003449D883544DF88EE191D8935441F819E88DE8031F814609E80C5F38F0321F8143023465C1E002BE2D1F0BC7047884202D932
:400DC000034608461946914200D91146884238BF084670472DE9F04707460E469046012319E05FFA88F3062B14D0A30023445D0007EB050937F805A0B9F80220514636F897
:400E00001400FFF7DBFFA9F802A036F814307B5326F8140023465C1E002BE2D1BDE8F08770B504460D461646FFF7D4FF324629462046FFF7A1FF70BD00FA03F3C2F58070AE
:400E400001FB00F102FB0310000A70472DE9F04107460D461646012338E035F8140005EB44035988884207D3421A2B194FF0000E83F808E0012301E00A1A00238BB97B7964
:400E80009A420ED92B191B7A3A7A934205D3224631462846FFF79CFE17E02A190133137213E0F3B2062B10D005EB040898F804E0082301224EEA0121FFF7BEFFC0F30F220D
:400EC00005EB44035A8088F8040023465C1E002BC3D10020BDE8F08130B49F280ED940F2FE3399420AD9244CA1FB04454B1B05EB53035B0AC3EB832399422FD09F280DD991
:400F0000B1F5FF7F0AD91D4CA1FB04454B1B05EB53031B0AC3EB4323994221D09F280CD97E290AD9164CA1FB04454B1B05EB53039B09C3EBC313994214D09F2814D93E2980
:400F400014D9104CA1FB04454B1B05EB53035B09C3EB831399420BD000200AE0042008E0032006E0022004E0002002E0002000E0012030BC704700BF051040002140800059
:400F800011080402054110044A1E032A01D8102300E0002379B183B1642202FB03F3B3FBF0F3002001E001305B00092BFBD90A2B04D9013802E0002000E00020C0B27047A1
:400FC00008B501F09DFC08BD08B50A4B1A689169094B5B1ADB09526902EB03135A6822F0F8525A60054A136823F00103136000F02FFF08BDB84D020880033240A8023640B9
:40100000024BD86800F08000704700BFA44C0208034B0340034AD0681843D060704700BF80000100A44C0208034B0340034AD06820EA0300D060704780000100A44C02082C
:4010400010B5164BDB6813F4803F0ED102280ED843090433114A52F8233000F01F02D34013F0010F05D1012404E0112402E0012400E0002484B92C23094A03FB0023DB7E28
:40108000022B02D101F04EFC06E0012B02D100F0F1FE01E04FF0FF34204610BDA44C0208783A081008B50C4BDB6813F4803F0DD10A4B1B78012B05D0022B09D101F000FB10
:4010C000002008BD00F026FE002008BD112008BD4FF0FF3008BD00BFA44C0208844B0208124BDB6813F0800F1AD110B500244FF0FF3312E02046FFF7A3FF034660B9012C61
:4011000003D801220A4B5A7002E00022084B5A70FFF7C8FF034606E00134022CEAD902E0112318467047184610BD00BFA44C0208844B0208124B1B78834220D010B50446C3
:40114000012B02D1FFF740FF03E0022B01D1FFF737FF012C05D100F053FC0122084B1A7010BD022C05D101F0F7F80222044B1A7010BD032C02D00022014B1A7010BD7047F3
:40118000844B020830B583B00025074C08E02179002300930E22206801F0D6FD08340135082DF4D903B030BD943B081038B51B4A93780133DBB293709078FFF741FF04466E
:4011C00050B9164B9B78DBB2022B02D10022134B5A70FFF767FF1EE0104B9B78DBB2022B10D10F4D2B8901332B818020FFF71CFFEB6823F07F43EB60EB6843EA0464EC60F0
:40120000002408E0064BDA6822F07F42DA60DA6842EA0062DA60002CC9D138BD844B0208A44C020810B50146124BB3F90030002B0DDB5A0903F01F03012404FA03F320322F
:401240000D4840F82230BFF34F8FBFF36F8F094C204602F015F9B4F90030002B08DB590903F01F03012202FA03F3034A42F8213010BD00BF0C3A081000E100E070B502284B
:4012800001D8002500E001258DB904462C23094A03FB0023DE7E022E02D1282101F00CF9012E04D15521204600F0B6FE0546284670BD00BF783A081038B50024254604E0E6
:4012C0002046FFF7DBFF05430134022CF8D9284638BD00BF70B5002519E02C230D4A03FB0523DB7E012B11D12C2303FB05F3D658002404E006EBC40000F054FD01342C23AF
:40130000044A03FB05231B7E9C42F3D30135022DE3D970BD783A08102C23034A03FB002043685889704700BF783A08102C23034A03FB002043685981704700BF783A0810DF
:40134000C0EB0032012303FA01F101398A4205D9C0EB0020814203D30520704706207047002070472DE9F04180460E46FFF7D4FF07460022318800F00DFC01463846FFF79F
:40138000ABFD054620B931887800FFF7D9FF054629463846FFF7F8FD04466B1FDBB2012B03D839464046FFF7C1FF2001C0B228433073BDE8F08100BFF0B58BB04FF47A7396
:4013C000ADF8003040F65503ADF802304FF41663ADF80430544B9A7F4CF25033B3FBF2F3ADF80C3000F00CFB00252E4652E02C234E4A03FB0523DB7E012B44D12C2303FB7B
:4014000005235C680C23238000232373BDF80C30474AA2FB03235B09274627F80A3F5521284600F0F9FD0497424B1B788DF81830414B1A884FF47A7303FB02F23F4BA3FBED
:401440000213D21A03EB5203C3F3CF23ADF80E30684602F0C9F93A4B984203D9062601E05B006381BDF80C10638941F2707202FB03F29142F4D8032BF2D90AAB03EB85032D
:4014800043F80C0C05E001220AAB03EB850343F80C2C0135022DAAD9002427E02C23234A03FB0423DB7E012B1FD12C2303FB04235D685521204600F0AFFD064305F10A03CD
:4014C00004930AAB03EB840353F80C3C0293194B1B788DF81830EB89ADF8063005F110030593684602F0A6F928800134022CD5D9002413E02C230D4A03FB0423DB7E012BF0
:401500000BD12C2303FB042359682046FFF72AFF5521204600F080FD06430134022CE9D930460BB0F0BD00BFA44C0208783A0810F1197605B0420208B2420208010110006C
:40154000870D0100F8B5002427E02C23144A03FB04235D68DB7E012B02D0022B05D016E029462046FFF7FEFE16E02E88204601F01FFA07463146FFF7AFFC064601463846BF
:40158000FFF702FD0001C0B23043287304E040F25971044801F0BAFF0134022CD5D9F8BD783A0810203C081008B5FFF7CBFFFFF7E9FD0020FFF7BEFD002008BD38B52D4D65
:4015C0002A6893692C4CE31ADB09526902EB03135A6822F0F8525A60802363602B6893F87D20135923F0704343F0C04313512A689369E31ADB0951691B01CA5822F4F852BA
:40160000CA50022363602B6893F87D20135923F0F00343F0600313512A689369E31ADB0951691B01CA5822F4F812CA50042363602B6893F87D20135923F4706343F4C0638B
:401640001351012001F056FF2B6893F87D20135923F0704313512B6893F87D20135923F0F00313512B6893F87D20135923F47063135138BDB84D0208800332400F4B197864
:401680002C220F4B01FB02335B680E4AD2F8D02091B2188801238340013B994206D20A4B1B680A49097823F811207047064A12680649097822F81130704700BF864B0208CE
:4016C000783A081000003640B04D0208DC3B081038B5214C227821492C2302FB03125068227802FB03131A7E013A1D4B1B78DBB29A421BD91A4C23780133DBB22370164D6D
:4017000029782C22154B01FB02339968237803EB83035A000A44134B1A6000F013FA2878217800F02DFB00F077FA38BD00220C4B1A704FF48030FFF777FC0B4B1B78012B81
:4017400002D1FFF733FD38BD8020FFF76DFC074A13890133138138BD864B0208783A08108C4B0208B04D0208854B0208A44C020808B5074B4FF483721A601B68FFF77EFFBA
:40178000044A1389013313810348FFF74DFC08BDF0003640A44C02088000010010B50C4B1B782C2203FB02F30A4AD3580A4A147803EBC404094B4FF483721A601B68FFF7C3
:4017C0005DFF204600F0EEFAFFF782FF10BD00BF864B0208783A08108C4B0208F000364001390843014B1860704700BF000236400E4B1B6823F4F8730D4A917F0D4AB2FB60
:40180000F1F20D498A4204D843F02003074A136070470A498A4204D843F03003034A1360704743F04003014A13607047AC420208A44C020880F0FA02001BB70000366E015E
:40184000044A054B1A604FF0C17203F580731A60704700BF0000830100043640084A136803F07F0343F0C17343F48033136002F58072136803F07F0343F4000313607047C2
:4018800000043640074A136843F0805343F001031360054A054B1A604FF0C17203F580731A607047A8023640000083010004364010B40488012000FA04F4013C04EB840357
:4018C00003FA00F00C4BA3FB00035B0901335818844200D220468B4201D8C91A00E00021914203D8904203D2062002E0062000E000205DF8044B70471F85EB510023164A32
:40190000136002F5927213600432136006212C3A11604FF48071083A11600121903A1160A2F580724FF48371116012680B4A136003220B4B1A604FF4FA6300E0013B094A64
:40194000126812F0040F01D1002BF7D113B90822034B1A60704700BF8C013640F800364040033640F00036401E4B4FF483721A601B681D4BB3F90030002B08DB590903F00A
:401980001F03012202FA03F3184A42F821300023174A136030321360043213602C3A13605021983A11600121643A11600C3A13608032136843F08073136002220D4B1A605B
:4019C0004FF4FA6300E0013B0B4AD2F8842012F0070F01D0002BF6D140F20132074B1A60704700BFF00036400C3A081000E100E080023640F80036400000364040033640CC
:401A000070B5FFF767FCFFF7D9FD4FF48032404B1A604048036843F0805343F00103036000233D4A136002F5E07213600C32136060321360A2F5CE72136002F58272136098
:401A4000083A1360354C2360A2F5807213604FF0487102F5A8721160314D2A6892F87D60304AB15821F07041B15029688D69521BD209496901EB0212516821F0F85141F0B5
:401A80008061516028490A6842F480520A604FF48071264A1160026842F0805242F0010202604FF0807222490A6040F64130A1F58E71086001F584710B602260FFF7C0FEEF
:401AC0001C4B9B7F013BFF2B0BD8154A12689068B2F87410425822F47F421B029BB213434350FFF785FE144B1B6843F0004343F48053124A13600F22114B1A600022A3F5EE
:401B000088731A600A2203F590731A6070BD00BF04023640A8023640F400364084023640B84D02088003324094023640A0023640A4023640A44C0208AC42020800003640F5
:401B40000003364038B5054601F04BFD0D490B6823F07F020C4B1C7825446B7A13430B6001F043FD01F03DFD08490B6823F07F02074B1B681C44637A13430B6001F035FD7A
:401B800038BD00BF00043640DC3B081000053640B04D020830B401248C40631E40B10F2904D9A4F10A03B3FBF0F301E0B3FBF0F3053A012A00D85B080BB9012000E018467D
:401BC00030BC704708B50C4B19782C220B4B01FB02335B6859891B7B18045A1F012A01D840F00070053B012B02D8490800D10121FFF7F6FD08BD00BF864B0208783A0810B8
:401C000008B5027B01884089FFF7C4FF80B2014B186008BD1403364008B50D4BB3F90030002B0DDB5A0903F01F03012101FA03F32032084941F82230BFF34F8FBFF36F8F1A
:401C40000122054B1A60FFF759FEFFF78DFE08BD0C3A081000E100E08001364008B50448FFF7D6F9172001F045FCFFF7D5FF08BD80000100F8B5054601F0B3FC06462F680C
:401C80002C79072C04D94FF47171204801F03EFCA4001F4B1B6893F87D00C2590F23A34022EA0301062202FA04F30B43C3512C682D79072D04D94FF42271144801F026FCD1
:401CC000134B1A689369E31ADB0952691B01D118032D0BD8D158ED001F20A84021EA00000B2101FA05F50543D5500BE0043D4B68ED001F22AA4023EA02020B2303FA05F551
:401D000015434D60304601F070FCF8BDE03B0810B84D0208F8B5144F3B78144D2C2603FB06535868124C002323703B7803FB06539968237803EB83035A000A440D4B1A609F
:401D4000FFF700FF3B7803FB06F3EB58207803EBC000094B1860FFF78DFF0848FFF762FAFFF77CFFF8BD00BF864B0208783A08108C4B0208B04D0208B44D02089D17081002
:401D800008B52C2303FB00F0044B185800EBC100034B1860FFF76EFF08BD00BF783A0810B44D0208F8B5064601F01BFC074634683579072D04D94FF42271234801F0A6FBC0
:401DC000224B1A689369E31ADB0952691B01D118032D08D8D158ED001F2000FA05F521EA0505D55008E0043D4B68ED001F2202FA05F523EA05054D6035683479072C04D9A6
:401E00004FF47171104801F081FBA4000F4B1B6893F87D0042590F23A34022EA03010E2202FA04F30B43435135683479072C04D940F28131044801F069FB0123A3406B60B9
:401E4000384601F0D2FBF8BDE03B0810B84D020808B5064B1B78012B06D1054B1868FFF7A1FF0022014B1A7008BD00BF8D4B0208B44D0208F8B5114E2C2707FB00635D6833
:401E8000C0B20F4C20700120FFF754F9FFF7E0FF237803FB07F3F2580A4B1A600A4BDA6822F07F02DA602178DA680A43DA602846FFF7A6FEFFF786FEF8BD00BF783A08105A
:401EC000864B0208B44D0208A44C020838B52C23114A03FB00235D68C9B2104C21709968237803EB83035A000A440D4B1A60FFF7C1FF2846FFF726FE20780A4A136803EB00
:401F0000C0001060FFF7B6FE0122074B1A700748FFF788F938BD00BF783A08108C4B0208B04D0208B44D02088D4B0208711708102DE9F84307460D4690462E4908782C2203
:401F40002D4B00FB02335E684FF0000985F8009008782A4B1978FFF7B9FFFFF77FFC8024B94503D22B7823EA04032B7064082B7823432B703046FFF7E5FDFFF76FFE204B04
:401F800000E0013B1F4AD26812F0800F01D0002BF7D11D4B1B68B3F80090002CE0D1154B1B782C2203FB02F3134AD358134A107803EBC000154B1860FFF7F4FE0022144B7A
:401FC0001A70FFF75FFC4A4639463046FFF770FC98F800202B789A4205D288F800300D4A1371A2F80690084B1B682A785A72BDE8F88300BF864B0208783A08108C4B0208B5
:4020000024330300A44C0208B04D0208B44D02088D4B0208AC4202082DE9F04383B004460F462C233A4A03FB00235E6801258DF80450B14639F8098B05FA08F808F1FF38A1
:4020400001FB08F3334AA2FB03384FEA5818C2B2314B1A703148FFF7E5F8314B1D71DD800025304B1D700AE001AA49464046FFF75FFF05432B4A13780133DBB213702C2338
:40208000234A03FB04231A7F264B1B78DBB29A42EAD89DF8043001335B0873720022214B1A7023E02C231A4A03FB04239A681D4B1B7803EB830302EB43021B4B1A60537A3E
:4020C000717A8B420BD35B1ADBB207FB03F363331049A1FB0313C3F34713537201E000235372104A13780133DBB213702C23084A03FB04231A7F0B4B1B78DBB29A42D1D88E
:402100000022084B1A70284603B0BDE8F08300BF783A08101F85EB51864B020871170810AC4202088C4B0208B04D020842890388901E10FB03F080B2704700BF08B52A4BC7
:40214000B3F90030002B0DDB5A0903F01F03012101FA03F32032254941F82230BFF34F8FBFF36F8F224B4FF483721A601B68214BD3F8D020D3F8D4309BB213FA82F31E4A8B
:40218000128892B2934204D91B4A13889BB2538002E09BB2184A5380184B1B689847184BDB6813F0800F0FD1164A124B1A604FF4407203F5C6731A60134A03F51D731A60F8
:4021C0001F22A3F598731A60074BB3F90030002B08DB590903F01F03012202FA03F3034A42F8213008BD00BF0C3A081000E100E0F000364000003640904B0208B44202087D
:40220000A44C020820100C80800E43013F4B1A683F4B1B7813445A7A3E4B13433E4A136000233E4A53803E493E4A1160012102F5C0721160112102F5807211604FF0807172
:40224000043211603C3213600622374B1A60374A28331A6041F2101204331A60344AC43B1A6040F2033203F5A8731A604FF4FA6300E0013B2F4A126812F0010F01D0002BAE
:40228000F7D12C4B1B6813F0010F03D04FF44272284B1A60284BDA7F284BB3FBF2F3284A934204D9274A934203D8302302E0202300E0402343F0004343F44123194A1360D9
:4022C00040F20132204B1A60002320490B6001F580710B6004310B603C310B6038390B601B482831086042F2102004310860C4390B601F21174B1960A3F5F0734FF483711D
:4023000019601B680B4B1A60704700BFB04D0208DC3B0810800E430100043640904B020820100C80000036408802364001010100AA00050040033640A44C020880F0FA02F1
:40234000001BB70000366E018C0136408001364001030300D002364010B5FFF72FF949490B6893F87D00484BC25822F0F002C2500A6892F87D10CA5822F47062CA504FF4FA
:40238000837203F57F3303F5B8731A60002404331C60022204331A6088331C6004331C6041F2415204331A604FF4407204331A60364A03F51D731A6003F580731C60344AC7
:4023C000A3F544731A60334A10331A6004331C607C331C6004331C6004331C6008331C6001F0FFF82C4A136823F48053136001F0FCF82322294B1A604FF0807204331A60AF
:4024000001F0EFF8264A136823F0805323F4801343F08053136001F0E8F8224A224B1A6042F2102204331A600C331C601F2210331A600F2230331A60042210331A600433B4
:402440001C600C331C604FF4427220331A60174AA3F550731A60164BDB7F013BFF2B0BD8084A12689068B2F87410425822F47F421B029BB213434350FEF784FE0D48FEF7B0
:40248000D1FE10BDB84D020880033240800E4301AA000500A700000C94023640A0023640A802364001030300B002364020100C80A44C02083D2108102DE9F84380460E463E
:4024C0002C242B4B04FB0034D4F80890294BC3F800906068FFF72AFE274B1880198889B201FB06F1254EA6FB0136E37E022B3CD17609227F657F05FB02F5002109E01D4AAF
:402500001368002018801368402058720A3313600131A942F3D32024402700E01C464046FEF78EFDFEF7BEFD154BDB6813F0800FFAD1104BC3F8009000210FE00D4B1B68FC
:402540001A88964203D25A7A22EA07025A725A7A22435A720A33074A13600131A942EDD3C4F347032746002CD8D1BDE8F88300BF783A0810B04D0208904B02081F85EB51BC
:40258000A44C0208F8B5054601F02BF806462F682C79072C04D94FF47171204800F0B6FFA4001F4B1B6893F87D00C2590F23A34022EA0301062202FA04F30B43C3512C6861
:4025C0002D79072D04D94FF42271144800F09EFF134B1A689369E31ADB0952691B01D118032D0BD8D158ED001F20A84021EA00000A2101FA05F50543D5500BE0043D4B6821
:40260000ED001F22AA4023EA02020A2303FA05F515434D60304600F0E8FFF8BDE03B0810B84D0208F8B5054600F0DBFF06462F682C79072C04D94FF471711F4800F066FFC9
:40264000A4001E4B1B6893F87D10CB590F2202FA04F423EA0404CC512C682D79072D04D94FF42271144800F051FF144B1A689369E31ADB0952691B01D118032D0BD8D158C0
:40268000ED001F20A84021EA0000042101FA05F50543D5500BE0043D4B68ED001F22AA4023EA0202042303FA05F515434D60304600F09BFFF8BD00BFE03B0810B84D020893
:4026C00010B50022104B1A70104B1B689968104A11605A7F0F4CA280187FE0801B68A36003EBC000E060FFF74DFFA068FFF79AFF094A0A4B1A608020FEF78AFC172000F066
:40270000F9FEFFF783FD10BD8C4B0208884B0208B04D0208904B020831280810B442020870B5054600F05DFF06462C682D79072D04D94FF42271114800F0E8FE104B1A680F
:402740009369E31ADB0952691B01D118032D08D8D158ED001F2000FA05F521EA0505D55008E0043D4B68ED001F2202FA05F523EA05054D60304600F038FF70BDE03B081068
:40278000B84D0208F8B5064600F02BFF074634683579072D04D94FF42271234800F0B6FE224B1A689369E31ADB0952691B01D118032D08D8D158ED001F2000FA05F521EA7A
:4027C0000505D55008E0043D4B68ED001F2202FA05F523EA05054D6035683479072C04D94FF47171104800F091FEA4000F4B1B6893F87D0042590F23A34022EA030106221F
:4028000002FA04F30B43435135683479072C04D940F28131044800F079FE0123A3406B60384600F0E2FEF8BDE03B0810B84D020810B52C4B19682C4B18782C4C23889AB288
:4028400063889BB2D31A21F81030E068FFF768FF274A13780133DBB21370A388013B9BB2A3805BB1E0680830E060FFF78BFE1D4A13680A331360FFF7C9FC10BD1B4AD388F9
:40288000013B9BB2D380D3B114469068FFF77AFFA0680830A060FFF7C5FE164B1A68537FA3801368107F03EBC000E060FFF76AFE0C4A13680A331360FFF7A8FC10BD0B4B92
:4028C0009868FFF75FFF0C4B1B7813B1FEF76EFC10BD0A4A1389013313818020FEF7A4FB10BD00BFB04D0208DC3B0810904B02088C4B0208884B0208854B0208A44C020885
:40290000074B1B8A53B110B5054CE068FFF708FFA068FFF737FF0023238210BD704700BF904B020838B50446C2B2194B1A700220FEF700FCFFF7E4FF164B2C2202FB0434B4
:40294000154B1C6065686C892A88144B1A602846FFF7ECFB124B18802B7B013CC4F30B0444EA034444F040640E4B1C600E4BDB7F013BFF2B0BD80D4A12689068B2F8741030
:40298000425822F47F421B029BB21343435038BD864B0208783A0810884B020814033640904B020800023640A44C0208B84D02082C23034A03FB002043685889704700BF2D
:4029C000783A0810F0B50023334C237004461E460BE0E588954206D9AE4204D22E4E3371012737702E460A3401338B42F1D32A4B1B78002B47D14BE0274EB3181B7903EB13
:402A000083056C000519B5F806E002EB42077D003544A5F80AE09BB901EB81056C000A3C0444E688550015446C001B4D2C442681013303EB83035D000544EB88A38120E092
:402A40004D1EEDB2AB420CD1A4F10A030344DD88540014446300104C23441D81C4889C810FE00A3C0444E688550015446C000A4D2C442681013303EB83035D000544EB8827
:402A8000A381013200E00022034B1B789A42B3D3014B1878F0BD00BFA44B02082DE9F041002533E01D4C2C4424793CB905EB45077E001A4F3E440027378109E0561EB44278
:402AC00006D105EB45077E00144F3E440027B7816F002F447E00114F3E44B6F80C80B6F808E0CEEB0807B6F80AC00EEB0C0608EB060E01FB07F696FBFEF604FB0134344473
:402B00007F34C4F30F2420F815400135034C2478A542C7D32046BDE8F08100BFA44B020808B509480022C0F80021084B5A729A721A724FF6FF721A805A809A80DA80A43083
:402B400000F012FE08BD00BFA44C0208B44B020808B5084B1B783BB9074A0321074800F047FD0122034B1A70044B08229A609A6108BD00BFC04B02084C3C08100000384025
:402B800008B5084B1B783BB9074A0121074800F02FFD0122034B1A70044B02229A609A6108BD00BFC14B0208B03C0810000038401F4B98422DD00CD840282ED003D8E8B128
:402BC000102828D02FE0802829D0B0F5807F28D029E0184B984228D006D8B0F1204F0DD0154B984212D01EE0144B98420AD00133984209D0023B984215D101E00020704787
:402C00000F4870470F4870470F4870474FF4A0007047074870470D4870470D4870470D487047034870470C4870474FF4A400704706005200010000F0090000A0040000F015
:402C4000010052000200520003005200010050000200500005005200FF00520038B5124B1B6893F83130012B04D840F2C3110F4800F04CFC0C4B1D682A6AB5F8B030134463
:402C80002C46D5F8B420D358002B0BDB084B1868FFF78EFF6B6801229A6063689B68002BFBD138BD034838BDB84D0208143D0810C44B0208020050001A4B186128B10223C6
:402CC0000370FF23437000234380174B1B6893F850202AB300B583B0B3F93830ADF80030002301931149684600F0CAFBBDF90030002B08DB590903F01F03012202FA03F324
:402D00000B4A42F82130084B1B6893F8513023B102220849012000F0F3FA03B05DF804FB704700BFC44B0208B84D02088D43020800E100E04544020808B50248FFF7BCFFFF
:402D400008BD00BFD84B02082DE9F04104460D46174698469DF81860072903D9D921354800F0D4FB37F00F0303D0DA21314800F0CDFBB8F1010F03D9DB212E4800F0C6FB44
:402D800036F01F0303D0DC212A4800F0BFFB22680123AB4022EA030308F0010808FA05F843EA08032360244B1B6893F87D100B59A8000F22824023EA020207F00F0303FA59
:402DC00000F717430F51072D04D94FF422711B4800F09CFB36F01F0304D040F28921174800F094FB144B1B689A69A41AE4095B6924011919032D0DD81959ED001F22AA4031
:402E000021EA020206F01F0606FA05F515431D51BDE8F081043D4A68ED001F23AB4022EA030306F01F0606FA05F51D434D60BDE8F08100BF543D0810B84D0208943D0810DB
:402E400038B50B4B1B68D3F8B4301B58002B0DDA0D4604460B0C1B0423B140F2D521054800F054FBA9B26160002038BD024838BDB84D0208D43D081001008A0038B5036872
:402E8000002B01DA002300E0094B73B90D460446C2600B0C1B0423B140F2BB21054800F035FBA9B2A160002038BD014838BD00BF01008A00D43D081038B504460D4619B9C7
:402EC0009921084800F022FB074B1B68D3F8B4301B59002B03DAE3682B60002038BD034838BD00BF143E0810B84D020801008A00254B1B6893F8313083423AD900293AD0E3
:402F00000B6813F01F0F38D170B50D4604461E4B1B6893F83130984204D340F2C3111B4800F0F4FA184B1B68186AB3F8B03004FB0304174E34602A68D2080021686800F013
:402F400023FD00212046FFF77BFF346825B940F293310E4800F0DAFA2A4600212046FFF78DFF60B900210A4B1868FFF769FF40B970BD084870470748704706487047064844
:402F800070BD054870BD00BFB84D0208D43D0810DC4B020803018A0001018A0010B504461346B2B9A9B9124B1B6893F83130984204D340F2C3110F4800F0A8FA0C4B1B68AD
:402FC0001A6AB3F8B03004FB03240B4B1C60002010BD43B149B1084A51609360111D2046FFF786FF10BD054810BD044810BD00BFB84D0208D43D0810DC4B020803018A0034
:403000002DE9F0411B4B1B68DC68236883422CD90D464609A0EB4610012303FA00F819B900F0DFFA074600E00027124B18680368002B01DA002300E00F4B83B9626852F841
:40304000263018EA030F05D023EA080342F82630002400E0094C0021FFF7F2FE00E0084C25B9384600F0C1FA00E0064C2046BDE8F08100BFDC4B020801008A00020188001A
:403080000301880004018A000B4B1B68DB681A6882420CD94109A0EB4110012202FA00F05B6853F82130184203D004487047044870470448704700BFDC4B0208010188006A
:4030C00004018A0000018800024B1B680BB9014B18607047E84B02082DE9F8430446884691461D46089F2C4B1B681BB9B5212B4800F00CFA284B1B682C2000FB04F01C18B0
:40310000EEB21E50C5F3072363602D0CA560244B1B6893F831309E4204D340F2C311214800F0F4F91E4B1B68196AB3F8B02006FB02162661666893F832309E4204D340F28F
:40314000DF11184800F0E2F9154B1B681D6A803605EB46156561A668330C1B0423B14FF4FF71104800F0D2F9330C1B0423B140F2FF110C4800F0CAF9B3B243EA0646AE6096
:40318000C4F81C90C4F820800023A36117B1B7F90030A381BDE8F883E84B0208543E0810B84D0208D43D0810F0B58FB0044618B95221274800F0AAF9A369072B03D9562114
:4031C000234800F0A3F9E36A1BB95821204800F09DF9236B1BB959211D4800F097F907AD04F114060FCE0FC537682F6002AD26460FCE0FC533682B60164B1B68B3F9362015
:40320000079B1344ADF83030089B0D93A26AE16A0CAD00953B460A98FFF75EFF00210091069B0A460598FFF757FF216B284600F027F9BDF93030002B08DB590903F01F0301
:40324000012202FA03F3044A42F821300FB0F0BD543E0810B84D020800E100E0F8B506460F461D4614461AB9FD211F4800F04EF91E4B1B681BB9FE211B4800F047F91B4B08
:403280001B682C2101FB063001FB07314B68012202FA03F31B04466802FA06F60269EAB18F69EFB91268002A01DA002200E0104AC2B92288134323600369DC6001238B6114
:4032C0004D620469330C1B0423B140F2BB21094800F01CF9B2B2A2600020F8BD0648F8BD0648F8BD0548F8BD543E0810E84B020801008A00D43D081004028A0007028A001B
:40330000F8B505460F4616460E4B1B6823B94FF4AF710D4800F0FAF80A4B1B682C2404FB0534236A23B94FF4B171074800F0EEF8E369B34204D9236A43F826700020F8BDEE
:403340000248F8BDE84B0208543E08100A028A0070B582B000230193044620B940F2D111284800F0D3F8236923B94FF4E971254800F0CCF8636923B940F2D311214800F024
:40338000C5F8236A23B94FF4EA711E4800F0BEF86369DD682A0C20D012041A601B682069194B1B68D3F8B430C358002B15DA01A9FFF782FD60B9019803681E0CDBB2E26961
:4033C000934206D2226A52F8233013B1984700E0002631462069FFF733FDADB275B16369ADB21D601B68636A1BB198470023636202E0A36A03B198470023A36163691B6820
:4034000002B070BD543E0810B84D020810B50446074B1B6823B940F2B111064800F076F8034B1B682C2000FB0430FFF791FF10BDE84B0208543E081038B50D4B9A680D4B6F
:403440009A420FD10D46044621B940F237110A4800F05CF804F11003064A52F8230042F8235038BD1030054B53F8200038BD00BF00ED00E000400208943E081000000810DA
:4034800048B338B504460D464368072B03D93221134800F03BF8B4F900306268002B08DB5201D2B203F1604303F5614383F8002305E003F00F035201D2B20A49CA540A4B19
:4034C0009A680A4B9A4208D12946B4F90000FFF7B3FF002038BD06487047002038BD00BF943E081014ED00E000ED00E0004002080100560008B5034B1B7800FB03F000F059
:4035000067F808BDA042020801BEFEE738B50D46044C18220146204600F03EFAA5610020FFF7F2FFB8480208FEE700BF08B50268254BDA6142681A6282685A62C2689A62B9
:403540000269DA6242691A6382695A63C2699A631E4A916AD963D16A1964516A5964516B9964926BDA64F1EE103A13F0900F27D0026A154B1A65426A5A65826A9A65C26A5A
:40358000DA65026B1A66426B5A66826B9A66C26BDA66026C1A67426C5A67826C9A67C26CDA67026DC3F88020426DC3F88420826DC3F88820C26DC3F88C20026EC3F89020C1
:4035C000FFF7B2FF08BD00BFB848020800ED00E00230800803D001300238FCD100BF00BF7047EFF3108072B6704780F310887047002800F0AC8070B40446002A00F0A980C7
:4036000092F828300BB1012500E00025137F0BB1022300E000231D431669B60406F4802645EA060395682D0405F440351D431668300600F0E0602843136B556B43EA4503DC
:403640001B0503F440130343906B43EA8000052E03D1D3681B029BB202E053681B029BB20343081D800123501368062B08D104EB81130120C3F808013F20C3F828011DE0B3
:40368000936843B904EB81130020C3F808013120C3F8280112E0012B08D1506904EB8113C3F808011C20C3F8280107E004EB81130120C3F808011220C3F82801106A04EB92
:4036C0008113C3F80C01506AC3F810015069C3F814019069C3F81801136EB3F1FF3F17D0106C00F00F00966C360206F470663043156D2D0405F470250543906D000380B295
:4037000028431B01DBB2034304EB8110C0F82031D36B03F00303566C360106F030063343D56C2D0205F440752B43506D8001C0B21843D36D9B0003F00C03034304EB811496
:40374000C4F82431D36AC4F83831002002E002487047014870BC70470100B600014B1860704700BFB84D0208014608B55622154800F0FFF8144A154B12680021596202B120
:403780001170134A12680AB100211170114A1168002201B10A701049DA610A600F4A12680AB1002111700E4A1168002201B10A700C491A710A7083F821201A6083F8492071
:4037C00008BD00BFB8420208144E0208284C0208084E0208EC4D0208F84D0208C84D0208DC4D0208EA4D0208014670B582890569CB8980884FF47A76584306FB00F428881E
:40380000B2FBF0F0B4FBF0F00C7E4B886043B0FBF3F00B884343B3FBF6F35A43044BB2FBF3F3012213B15B085200FBE72A8070BD00E1F505014643888A88007EC3EB0343E9
:403840005043B3FBF0F00B698A891B88B2FBF3F3104A4343B3FBF2F3CA8853430A22B3FBF2F38A6846F2A710824294BF6422C8221020934205D90138C0B206284FEA53039D
:40388000F7D149694B2253436422B3FBF2F30B80704700BFA086010003B10B880088800080B2824238BF02469A4238BF1A4692B25308FF2B0A804FEAD2028CBFFF23DBB239
:4038C000FF2A8B70CB7086BFFF230B710A7170478B0813800F23C9089372002351809080D0801081D3727047937A30B5948890805B00041BDBB24ABF013393729372957ACA
:40390000538848BF644205F00F05A342957203D9012B03D9013B00E0013353800F2D04D01DB15388B4EB830F04D90023D0801081D37230BDD488844201D9D08003E014893A
:40394000844238BF1081D07A092802D80130D07230BD1089D488001B80B2834204D9B3EB910F03D9013B00E0013353805388138030BD10B5431E0A44914204D011F8014B58
:4039800003F8014FF8E710BD02440346934202D003F8011BFAE7704710B5034642B111F8014B03F8014B013A002CF7D11A4400E010BD934202D003F8014BFAE710BD0000B8
:4039C000F8B500BFF8BC08BC9E467047F8B500BFF8BC08BC9E46704703000000010000000100000000000000050360000400000001000000000000000100000006046000EC
:403A000008000000C84A02083D040810310000000700000047656E6572617465645F536F757263655C50536F43365C43617053656E73655F436F6E74726F6C2E630000004C
:403A400047656E6572617465645F536F757263655C50536F43365C43617053656E73655F50726F63657373696E672E63000000002020202020202000943B0810C44C0208A4
:403A8000024D0208044B02087C4B020801280000050002010500640000190000384B020880000000BC3B0810DA4C0208344D0208F84A0208784B02080928000001000102AB
:403AC00001010000000000000000000000000000CC3B0810EE4C02083E4D0208EC4A0208744B02080128000001000102010100000000000000000000000000000C00640024
:403B000028280A031E2004000000A00000000000FFFF6400640028280A031E20A7000000A000000000006400640028280A031E20A7000000A0000000000000005608080886
:403B40000014001414141400000000030507090314181E2800000000030507090305320000320000642D2D05030303030000141E000003000C0000005000D007E80364004A
:403B8000E8030A00E8030A00F02829303F4849909F0000000004324003000000000432400400000000043240050000000004324006000000000432400700000000043240CE
:403BC000010000008000324000000000000432400200000080003240000000000000000047656E6572617465645F536F757263655C50536F43365C70646C5C647269766510
:403C000072732F7065726970686572616C2F6770696F2F63795F6770696F2E680000000047656E6572617465645F536F757263655C50536F43365C43617053656E73655FA4
:403C400053656E73696E672E630000000400000000000000000000000000000000000000640000000080000000000000320000000040000000000000000000000000000082
:403C8000000000000200000003000000FFFFFFFF03000000FFFFFFFF03000000FFFFFFFF03000000FFFFFFFF03000000FFFFFFFF0400000000000000000000000000000003
:403CC000000000006400000000800000000000003200000000400000000000000000000000000000000000000200000003000000FFFFFFFF03000000FFFFFFFF030000006B
:403D0000FFFFFFFF03000000FFFFFFFF03000000FFFFFFFF47656E6572617465645F536F757263655C50536F43365C70646C5C647269766572732F7065726970686572615D
:403D40006C2F6970632F63795F6970635F6472762E68000047656E6572617465645F536F757263655C50536F43365C70646C5C647269766572735C7065726970686572612C
:403D80006C5C6770696F5C63795F6770696F2E630000000047656E6572617465645F536F757263655C50536F43365C70646C5C647269766572735C7065726970686572615C
:403DC0006C5C6770696F5C63795F6770696F2E680000000047656E6572617465645F536F757263655C50536F43365C70646C5C647269766572735C70657269706865726117
